{
  "_format": "hh3-artifact-1",
  "contractName": "ArtworkRegistry",
  "sourceName": "contracts/ArtworkRegistry.sol",
  "abi": [
    {
      "inputs": [
        {
          "internalType": "address",
          "name": "_artworkTokenizationAddress",
          "type": "address"
        }
      ],
      "stateMutability": "nonpayable",
      "type": "constructor"
    },
    {
      "inputs": [],
      "name": "AlreadyAdmin",
      "type": "error"
    },
    {
      "inputs": [],
      "name": "ArtistMustApproveContract",
      "type": "error"
    },
    {
      "inputs": [],
      "name": "ArtistNotAuthorized",
      "type": "error"
    },
    {
      "inputs": [],
      "name": "AuthorizationAlreadyApplied",
      "type": "error"
    },
    {
      "inputs": [],
      "name": "EditionDoesNotExist",
      "type": "error"
    },
    {
      "inputs": [],
      "name": "EditionMustHaveCertificates",
      "type": "error"
    },
    {
      "inputs": [],
      "name": "EditionSizeTooLarge",
      "type": "error"
    },
    {
      "inputs": [],
      "name": "EmptyMerkleRoot",
      "type": "error"
    },
    {
      "inputs": [],
      "name": "InvalidIPFSCID",
      "type": "error"
    },
    {
      "inputs": [],
      "name": "InvalidMerkleProof",
      "type": "error"
    },
    {
      "inputs": [],
      "name": "KeyAlreadyClaimed",
      "type": "error"
    },
    {
      "inputs": [],
      "name": "MetadataLocked",
      "type": "error"
    },
    {
      "inputs": [],
      "name": "NoCertificateLeft",
      "type": "error"
    },
    {
      "inputs": [],
      "name": "NotAllowedToReview",
      "type": "error"
    },
    {
      "inputs": [],
      "name": "NotAnAdmin",
      "type": "error"
    },
    {
      "inputs": [],
      "name": "NotYourEdition",
      "type": "error"
    },
    {
      "inputs": [],
      "name": "OnlyAdminAuthorized",
      "type": "error"
    },
    {
      "inputs": [
        {
          "internalType": "address",
          "name": "owner",
          "type": "address"
        }
      ],
      "name": "OwnableInvalidOwner",
      "type": "error"
    },
    {
      "inputs": [
        {
          "internalType": "address",
          "name": "account",
          "type": "address"
        }
      ],
      "name": "OwnableUnauthorizedAccount",
      "type": "error"
    },
    {
      "inputs": [],
      "name": "QueryLimitTooHigh",
      "type": "error"
    },
    {
      "inputs": [],
      "name": "RatingOutOfRange",
      "type": "error"
    },
    {
      "inputs": [],
      "name": "ReentrancyGuardReentrantCall",
      "type": "error"
    },
    {
      "inputs": [],
      "name": "ReviewLimitReached",
      "type": "error"
    },
    {
      "anonymous": false,
      "inputs": [
        {
          "indexed": true,
          "internalType": "address",
          "name": "admin",
          "type": "address"
        }
      ],
      "name": "AdminRemoved",
      "type": "event"
    },
    {
      "anonymous": false,
      "inputs": [
        {
          "indexed": true,
          "internalType": "address",
          "name": "artist",
          "type": "address"
        }
      ],
      "name": "ArtistInfoUpdated",
      "type": "event"
    },
    {
      "anonymous": false,
      "inputs": [
        {
          "indexed": true,
          "internalType": "address",
          "name": "artist",
          "type": "address"
        },
        {
          "indexed": false,
          "internalType": "bool",
          "name": "isAuthorized",
          "type": "bool"
        }
      ],
      "name": "AuthorizationArtist",
      "type": "event"
    },
    {
      "anonymous": false,
      "inputs": [
        {
          "indexed": true,
          "internalType": "address",
          "name": "collector",
          "type": "address"
        },
        {
          "indexed": true,
          "internalType": "uint256",
          "name": "editionId",
          "type": "uint256"
        }
      ],
      "name": "CertificateClaimed",
      "type": "event"
    },
    {
      "anonymous": false,
      "inputs": [
        {
          "indexed": true,
          "internalType": "address",
          "name": "artist",
          "type": "address"
        },
        {
          "indexed": true,
          "internalType": "uint256",
          "name": "editionId",
          "type": "uint256"
        },
        {
          "indexed": false,
          "internalType": "string",
          "name": "newMetadata",
          "type": "string"
        }
      ],
      "name": "EditionMetadataUpdated",
      "type": "event"
    },
    {
      "anonymous": false,
      "inputs": [
        {
          "indexed": true,
          "internalType": "address",
          "name": "newAdmin",
          "type": "address"
        }
      ],
      "name": "NewAdmin",
      "type": "event"
    },
    {
      "anonymous": false,
      "inputs": [
        {
          "indexed": true,
          "internalType": "address",
          "name": "artist",
          "type": "address"
        },
        {
          "indexed": true,
          "internalType": "uint256",
          "name": "editionId",
          "type": "uint256"
        }
      ],
      "name": "NewArtworkEdition",
      "type": "event"
    },
    {
      "anonymous": false,
      "inputs": [
        {
          "indexed": true,
          "internalType": "address",
          "name": "collector",
          "type": "address"
        },
        {
          "indexed": true,
          "internalType": "uint256",
          "name": "editionId",
          "type": "uint256"
        },
        {
          "indexed": false,
          "internalType": "uint8",
          "name": "rating",
          "type": "uint8"
        }
      ],
      "name": "NewReview",
      "type": "event"
    },
    {
      "anonymous": false,
      "inputs": [
        {
          "indexed": true,
          "internalType": "address",
          "name": "previousOwner",
          "type": "address"
        },
        {
          "indexed": true,
          "internalType": "address",
          "name": "newOwner",
          "type": "address"
        }
      ],
      "name": "OwnershipTransferred",
      "type": "event"
    },
    {
      "inputs": [],
      "name": "MAX_EDITION_SIZE",
      "outputs": [
        {
          "internalType": "uint256",
          "name": "",
          "type": "uint256"
        }
      ],
      "stateMutability": "view",
      "type": "function"
    },
    {
      "inputs": [],
      "name": "MAX_REVIEWS_PER_USER",
      "outputs": [
        {
          "internalType": "uint256",
          "name": "",
          "type": "uint256"
        }
      ],
      "stateMutability": "view",
      "type": "function"
    },
    {
      "inputs": [],
      "name": "MAX_REVIEWS_QUERY",
      "outputs": [
        {
          "internalType": "uint256",
          "name": "",
          "type": "uint256"
        }
      ],
      "stateMutability": "view",
      "type": "function"
    },
    {
      "inputs": [
        {
          "internalType": "address",
          "name": "_newAdmin",
          "type": "address"
        }
      ],
      "name": "addAdmin",
      "outputs": [],
      "stateMutability": "nonpayable",
      "type": "function"
    },
    {
      "inputs": [
        {
          "internalType": "uint256",
          "name": "_editionId",
          "type": "uint256"
        },
        {
          "internalType": "uint8",
          "name": "_rating",
          "type": "uint8"
        },
        {
          "internalType": "string",
          "name": "_metadata",
          "type": "string"
        }
      ],
      "name": "addReview",
      "outputs": [],
      "stateMutability": "nonpayable",
      "type": "function"
    },
    {
      "inputs": [
        {
          "internalType": "address",
          "name": "",
          "type": "address"
        }
      ],
      "name": "admins",
      "outputs": [
        {
          "internalType": "bool",
          "name": "",
          "type": "bool"
        }
      ],
      "stateMutability": "view",
      "type": "function"
    },
    {
      "inputs": [],
      "name": "artworkTokenization",
      "outputs": [
        {
          "internalType": "contract IArtworkTokenization",
          "name": "",
          "type": "address"
        }
      ],
      "stateMutability": "view",
      "type": "function"
    },
    {
      "inputs": [
        {
          "internalType": "address",
          "name": "_artist",
          "type": "address"
        },
        {
          "internalType": "bool",
          "name": "_isAuthorized",
          "type": "bool"
        }
      ],
      "name": "authorizeArtist",
      "outputs": [],
      "stateMutability": "nonpayable",
      "type": "function"
    },
    {
      "inputs": [
        {
          "internalType": "uint256",
          "name": "_editionId",
          "type": "uint256"
        },
        {
          "internalType": "string",
          "name": "_secretKey",
          "type": "string"
        },
        {
          "internalType": "bytes32[]",
          "name": "_merkleProof",
          "type": "bytes32[]"
        }
      ],
      "name": "claimCertificate",
      "outputs": [],
      "stateMutability": "nonpayable",
      "type": "function"
    },
    {
      "inputs": [
        {
          "internalType": "string",
          "name": "_metadata",
          "type": "string"
        },
        {
          "internalType": "uint256",
          "name": "_amount",
          "type": "uint256"
        },
        {
          "internalType": "bytes32",
          "name": "_merkleRoot",
          "type": "bytes32"
        }
      ],
      "name": "createArtworkEdition",
      "outputs": [],
      "stateMutability": "nonpayable",
      "type": "function"
    },
    {
      "inputs": [
        {
          "internalType": "address",
          "name": "_address",
          "type": "address"
        }
      ],
      "name": "getArtist",
      "outputs": [
        {
          "components": [
            {
              "internalType": "bool",
              "name": "authorized",
              "type": "bool"
            },
            {
              "internalType": "string",
              "name": "metadata",
              "type": "string"
            }
          ],
          "internalType": "struct ArtworkRegistry.Artist",
          "name": "",
          "type": "tuple"
        }
      ],
      "stateMutability": "view",
      "type": "function"
    },
    {
      "inputs": [
        {
          "internalType": "uint256",
          "name": "_id",
          "type": "uint256"
        }
      ],
      "name": "getArtworkEdition",
      "outputs": [
        {
          "components": [
            {
              "internalType": "string",
              "name": "metadata",
              "type": "string"
            },
            {
              "internalType": "bytes32",
              "name": "merkleRoot",
              "type": "bytes32"
            },
            {
              "internalType": "bool",
              "name": "hasBeenClaimed",
              "type": "bool"
            }
          ],
          "internalType": "struct ArtworkRegistry.ArtworkEdition",
          "name": "",
          "type": "tuple"
        }
      ],
      "stateMutability": "view",
      "type": "function"
    },
    {
      "inputs": [
        {
          "internalType": "uint256",
          "name": "_editionId",
          "type": "uint256"
        },
        {
          "internalType": "uint256",
          "name": "startIndex",
          "type": "uint256"
        },
        {
          "internalType": "uint256",
          "name": "limit",
          "type": "uint256"
        }
      ],
      "name": "getEditionReviews",
      "outputs": [
        {
          "components": [
            {
              "internalType": "address",
              "name": "collector",
              "type": "address"
            },
            {
              "internalType": "uint8",
              "name": "rating",
              "type": "uint8"
            },
            {
              "internalType": "uint256",
              "name": "editionId",
              "type": "uint256"
            },
            {
              "internalType": "string",
              "name": "metadata",
              "type": "string"
            }
          ],
          "internalType": "struct ArtworkRegistry.Review[]",
          "name": "",
          "type": "tuple[]"
        }
      ],
      "stateMutability": "view",
      "type": "function"
    },
    {
      "inputs": [
        {
          "internalType": "uint256",
          "name": "_editionId",
          "type": "uint256"
        }
      ],
      "name": "getEditionReviewsCount",
      "outputs": [
        {
          "internalType": "uint256",
          "name": "",
          "type": "uint256"
        }
      ],
      "stateMutability": "view",
      "type": "function"
    },
    {
      "inputs": [
        {
          "internalType": "address",
          "name": "_address",
          "type": "address"
        }
      ],
      "name": "isAdmin",
      "outputs": [
        {
          "internalType": "bool",
          "name": "",
          "type": "bool"
        }
      ],
      "stateMutability": "view",
      "type": "function"
    },
    {
      "inputs": [
        {
          "internalType": "address",
          "name": "_artist",
          "type": "address"
        }
      ],
      "name": "isArtistApproved",
      "outputs": [
        {
          "internalType": "bool",
          "name": "",
          "type": "bool"
        }
      ],
      "stateMutability": "view",
      "type": "function"
    },
    {
      "inputs": [
        {
          "internalType": "uint256",
          "name": "_editionId",
          "type": "uint256"
        }
      ],
      "name": "isEditionLocked",
      "outputs": [
        {
          "internalType": "bool",
          "name": "",
          "type": "bool"
        }
      ],
      "stateMutability": "view",
      "type": "function"
    },
    {
      "inputs": [
        {
          "internalType": "uint256",
          "name": "_editionId",
          "type": "uint256"
        },
        {
          "internalType": "string",
          "name": "_secretKey",
          "type": "string"
        }
      ],
      "name": "isKeyClaimed",
      "outputs": [
        {
          "internalType": "bool",
          "name": "",
          "type": "bool"
        }
      ],
      "stateMutability": "view",
      "type": "function"
    },
    {
      "inputs": [],
      "name": "owner",
      "outputs": [
        {
          "internalType": "address",
          "name": "",
          "type": "address"
        }
      ],
      "stateMutability": "view",
      "type": "function"
    },
    {
      "inputs": [
        {
          "internalType": "address",
          "name": "_admin",
          "type": "address"
        }
      ],
      "name": "removeAdmin",
      "outputs": [],
      "stateMutability": "nonpayable",
      "type": "function"
    },
    {
      "inputs": [],
      "name": "renounceOwnership",
      "outputs": [],
      "stateMutability": "nonpayable",
      "type": "function"
    },
    {
      "inputs": [
        {
          "internalType": "uint256",
          "name": "",
          "type": "uint256"
        },
        {
          "internalType": "address",
          "name": "",
          "type": "address"
        }
      ],
      "name": "reviewCount",
      "outputs": [
        {
          "internalType": "uint256",
          "name": "",
          "type": "uint256"
        }
      ],
      "stateMutability": "view",
      "type": "function"
    },
    {
      "inputs": [
        {
          "internalType": "string",
          "name": "_metadata",
          "type": "string"
        }
      ],
      "name": "setArtistInfo",
      "outputs": [],
      "stateMutability": "nonpayable",
      "type": "function"
    },
    {
      "inputs": [
        {
          "internalType": "address",
          "name": "newOwner",
          "type": "address"
        }
      ],
      "name": "transferOwnership",
      "outputs": [],
      "stateMutability": "nonpayable",
      "type": "function"
    },
    {
      "inputs": [
        {
          "internalType": "uint256",
          "name": "_editionId",
          "type": "uint256"
        },
        {
          "internalType": "string",
          "name": "_newMetadata",
          "type": "string"
        }
      ],
      "name": "updateEditionMetadata",
      "outputs": [],
      "stateMutability": "nonpayable",
      "type": "function"
    }
  ],
  "bytecode": "0x60a060405234801561000f575f5ffd5b50604051611f3d380380611f3d83398101604081905261002e91610106565b338061005357604051631e4fbdf760e01b81525f600482015260240160405180910390fd5b61005c816100b7565b5060018080556001600160a01b038216608052335f81815260056020526040808220805460ff1916909417909355915190917f71614071b88dee5e0b2ae578a9dd7b2ebbe9ae832ba419dc0242cd065a290b6c91a250610133565b5f80546001600160a01b038381166001600160a01b0319831681178455604051919092169283917f8be0079c531659141344cd1fd0a4f28419497f9722a3daafe3b4186f6b6457e09190a35050565b5f60208284031215610116575f5ffd5b81516001600160a01b038116811461012c575f5ffd5b9392505050565b608051611dba6101835f395f818161017601528181610593015281816109d301528181610a6e01528181610bfd01528181610db701528181610ef10152818161105c01526111a40152611dba5ff3fe608060405234801561000f575f5ffd5b506004361061016d575f3560e01c80637ae37e4e116100d9578063dd00f80411610093578063f9fbd8a61161006e578063f9fbd8a614610399578063fc31b994146103b8578063fe3010ba146103cb578063fec05e01146103eb575f5ffd5b8063dd00f80414610360578063e55e29ae14610373578063f2fde38b14610386575f5ffd5b80637ae37e4e146102c05780638da5cb5b146102e0578063956b3236146102f0578063a6a738921461031a578063b949c8041461032d578063d5fac2841461034d575f5ffd5b80634909f98b1161012a5780634909f98b1461025f5780634df637ed1461027257806350027063146102855780636c5e845a1461029b57806370480275146102a5578063715018a6146102b8575f5ffd5b80630a7c395a146101715780631785f53c146101b557806324d7806c146101ca5780633b3412f214610205578063429b62e51461021857806344d14a851461023a575b5f5ffd5b6101987f000000000000000000000000000000000000000000000000000000000000000081565b6040516001600160a01b0390911681526020015b60405180910390f35b6101c86101c336600461169b565b6103f3565b005b6101f56101d836600461169b565b6001600160a01b03165f9081526005602052604090205460ff1690565b60405190151581526020016101ac565b6101c86102133660046116c3565b61047b565b6101f561022636600461169b565b60056020525f908152604090205460ff1681565b6101f56102483660046116fa565b5f9081526003602052604090206002015460ff1690565b6101c861026d3660046117c2565b610548565b6101f561028036600461181c565b6107af565b61028d606481565b6040519081526020016101ac565b61028d620186a081565b6101c86102b336600461169b565b6107fa565b6101c8610886565b6102d36102ce3660046116fa565b610899565b6040516101ac919061188e565b5f546001600160a01b0316610198565b61028d6102fe3660046118cb565b600760209081525f928352604080842090915290825290205481565b6101c86103283660046118ee565b610984565b61034061033b36600461169b565b610c92565b6040516101ac91906119cf565b6101c861035b3660046119fd565b610d6d565b6101c861036e36600461181c565b610fc0565b6101f561038136600461169b565b61117d565b6101c861039436600461169b565b61120f565b61028d6103a73660046116fa565b5f9081526004602052604090205490565b6101c86103c6366004611a47565b611251565b6103de6103d9366004611a79565b6112fc565b6040516101ac9190611aa2565b61028d600281565b6103fb611562565b6001600160a01b0381165f9081526005602052604090205460ff16610433576040516355098f2760e01b815260040160405180910390fd5b6001600160a01b0381165f81815260056020526040808220805460ff19169055517fa3b62bc36326052d97ea62d63c3d60308ed4c3ea8ac079dd8499f1e9c4f80c0f9190a250565b335f9081526005602052604090205460ff166104aa57604051630bbee75f60e11b815260040160405180910390fd5b6001600160a01b0382165f9081526002602052604090205481151560ff9091161515036104ea57604051639a7d4c4b60e01b815260040160405180910390fd5b6001600160a01b0382165f81815260026020908152604091829020805460ff191685151590811790915591519182527f51d474af3af5acba8610b2ab0f151688924b2181d40898a5c49f7d3572efdee1910160405180910390a25050565b5f838152600360205260409020600101546105765760405163eb49290360e01b815260040160405180910390fd5b604051627eeac760e11b8152336004820152602481018490525f907f00000000000000000000000000000000000000000000000000000000000000006001600160a01b03169062fdd58e90604401602060405180830381865afa1580156105df573d5f5f3e3d5ffd5b505050506040513d601f19601f820116820180604052508101906106039190611b3c565b1161062157604051635fb99c9960e01b815260040160405180910390fd5b60058260ff16111561064657604051630e3a750160e41b815260040160405180910390fd5b5f83815260076020908152604080832033845290915290205460021161067f576040516370ac688560e11b815260040160405180910390fd5b602881511015801561069357506064815111155b6106b0576040516321d094fb60e21b815260040160405180910390fd5b5f838152600460209081526040808320815160808101835233815260ff8088168286019081529382018981526060830188815284546001818101875595895296909720835160039097020180549551909216600160a01b026001600160a81b03199095166001600160a01b039690961695909517939093178355925190820155915190919060028201906107449082611bd6565b5050505f838152600760209081526040808320338452909152812080549161076b83611ca5565b909155505060405160ff83168152839033907fcda0375a4942a11df7b813db200963b233e46e9ea344aed473ce3eec638ea4899060200160405180910390a3505050565b5f5f826040516020016107c29190611cbd565b60408051601f1981840301815291815281516020928301205f87815260068452828120918152925290205460ff169150505b92915050565b610802611562565b6001600160a01b0381165f9081526005602052604090205460ff161561083b57604051631c3681a560e11b815260040160405180910390fd5b6001600160a01b0381165f81815260056020526040808220805460ff19166001179055517f71614071b88dee5e0b2ae578a9dd7b2ebbe9ae832ba419dc0242cd065a290b6c9190a250565b61088e611562565b6108975f61158e565b565b6108bd6040518060600160405280606081526020015f81526020015f151581525090565b5f82815260036020526040908190208151606081019092528054829082906108e490611b53565b80601f016020809104026020016040519081016040528092919081815260200182805461091090611b53565b801561095b5780601f106109325761010080835404028352916020019161095b565b820191905f5260205f20905b81548152906001019060200180831161093e57829003601f168201915b50505091835250506001820154602082015260029091015460ff16151560409091015292915050565b61098c6115dd565b5f83815260036020526040902060018101546109bb5760405163eb49290360e01b815260040160405180910390fd5b604051636f8f89ad60e01b8152600481018590525f907f00000000000000000000000000000000000000000000000000000000000000006001600160a01b031690636f8f89ad90602401602060405180830381865afa158015610a20573d5f5f3e3d5ffd5b505050506040513d601f19601f82011682018060405250810190610a449190611cd3565b604051627eeac760e11b81526001600160a01b038083166004830152602482018890529192505f917f0000000000000000000000000000000000000000000000000000000000000000169062fdd58e90604401602060405180830381865afa158015610ab2573d5f5f3e3d5ffd5b505050506040513d601f19601f82011682018060405250810190610ad69190611b3c565b90505f8111610af857604051633d91e3f160e01b815260040160405180910390fd5b5f85604051602001610b0a9190611cbd565b60408051601f1981840301815291815281516020928301205f8a81526006845282812082825290935291205490915060ff1615610b5a57604051634e7f17b160e11b815260040160405180910390fd5b610b6985856001015483611607565b610b865760405163582f497d60e11b815260040160405180910390fd5b5f8781526006602090815260408083208484529091528082208054600160ff199182168117909255600288018054909116821790559051637921219560e11b81526001600160a01b038681166004830152336024830152604482018b9052606482019290925260a0608482015260a48101929092527f0000000000000000000000000000000000000000000000000000000000000000169063f242432a9060c4015f604051808303815f87803b158015610c3e575f5ffd5b505af1158015610c50573d5f5f3e3d5ffd5b50506040518992503391507f6129cf1b5cb4d24f2c9bf19b374e058a938d29d81ea5ae0cb8d84c092a032cf1905f90a350505050610c8d60018055565b505050565b604080518082019091525f8152606060208201526001600160a01b0382165f908152600260209081526040918290208251808401909352805460ff16151583526001810180549192840191610ce690611b53565b80601f0160208091040260200160405190810160405280929190818152602001828054610d1290611b53565b8015610d5d5780601f10610d3457610100808354040283529160200191610d5d565b820191905f5260205f20905b815481529060010190602001808311610d4057829003601f168201915b5050505050815250509050919050565b335f9081526002602052604090205460ff16610d9c57604051632f7d4ab160e21b815260040160405180910390fd5b60405163e985e9c560e01b81523360048201523060248201527f00000000000000000000000000000000000000000000000000000000000000006001600160a01b03169063e985e9c590604401602060405180830381865afa158015610e04573d5f5f3e3d5ffd5b505050506040513d601f19601f82011682018060405250810190610e289190611cee565b610e4557604051632f0dd10360e11b815260040160405180910390fd5b6028835110158015610e5957506064835111155b610e76576040516321d094fb60e21b815260040160405180910390fd5b5f8211610e965760405163041b8e8b60e31b815260040160405180910390fd5b620186a0821115610eba5760405163168ce0ef60e01b815260040160405180910390fd5b80610ed8576040516385ac2b9960e01b815260040160405180910390fd5b6040516309cd436760e11b81525f906001600160a01b037f0000000000000000000000000000000000000000000000000000000000000000169063139a86ce90610f2a90339087908990600401611d09565b6020604051808303815f875af1158015610f46573d5f5f3e3d5ffd5b505050506040513d601f19601f82011682018060405250810190610f6a9190611b3c565b5f81815260036020526040902090915080610f858682611bd6565b5060018101839055604051829033907fcc0870ecad2de210be4179cb95e10a19ab4e68254575e8652cdaa569fe0b9777905f90a35050505050565b335f9081526002602052604090205460ff16610fef57604051632f7d4ab160e21b815260040160405180910390fd5b5f828152600360205260409020600181015461101e5760405163eb49290360e01b815260040160405180910390fd5b600281015460ff1615611044576040516313ef243160e11b815260040160405180910390fd5b604051636f8f89ad60e01b8152600481018490525f907f00000000000000000000000000000000000000000000000000000000000000006001600160a01b031690636f8f89ad90602401602060405180830381865afa1580156110a9573d5f5f3e3d5ffd5b505050506040513d601f19601f820116820180604052508101906110cd9190611cd3565b90506001600160a01b03811633146110f857604051630207726160e61b815260040160405180910390fd5b602883511015801561110c57506064835111155b611129576040516321d094fb60e21b815260040160405180910390fd5b816111348482611bd6565b5083336001600160a01b03167fccc8015d194f311e1bda6fe884601a0f6985c027d9e981f39e8403cb801805aa8560405161116f9190611d38565b60405180910390a350505050565b60405163e985e9c560e01b81526001600160a01b0382811660048301523060248301525f917f00000000000000000000000000000000000000000000000000000000000000009091169063e985e9c590604401602060405180830381865afa1580156111eb573d5f5f3e3d5ffd5b505050506040513d601f19601f820116820180604052508101906107f49190611cee565b611217611562565b6001600160a01b03811661124557604051631e4fbdf760e01b81525f60048201526024015b60405180910390fd5b61124e8161158e565b50565b335f9081526002602052604090205460ff1661128057604051632f7d4ab160e21b815260040160405180910390fd5b602881511015801561129457506064815111155b6112b1576040516321d094fb60e21b815260040160405180910390fd5b335f908152600260205260409020600181016112cd8382611bd6565b5060405133907fd50aeda4ce38e630c9d6059336d35c97d8bf00973f1f901f356d58f4cbeeb4ce905f90a25050565b6060606482111561132057604051632444a20f60e11b815260040160405180910390fd5b5f8481526004602052604090205480841061138457604080515f808252602082019092529061137b565b604080516080810182525f80825260208083018290529282015260608082015282525f1990920191018161134a5790505b5091505061155b565b5f816113908587611d4a565b116113a45761139f8486611d4a565b6113a6565b815b90505f6113b38683611d5d565b90505f8167ffffffffffffffff8111156113cf576113cf611711565b60405190808252806020026020018201604052801561141e57816020015b604080516080810182525f80825260208083018290529282015260608082015282525f199092019101816113ed5790505b5090505f5b82811015611554575f898152600460205260409020611442828a611d4a565b8154811061145257611452611d70565b5f91825260209182902060408051608081018252600390930290910180546001600160a01b038116845260ff600160a01b90910416938301939093526001830154908201526002820180549192916060840191906114af90611b53565b80601f01602080910402602001604051908101604052809291908181526020018280546114db90611b53565b80156115265780601f106114fd57610100808354040283529160200191611526565b820191905f5260205f20905b81548152906001019060200180831161150957829003601f168201915b50505050508152505082828151811061154157611541611d70565b6020908102919091010152600101611423565b5093505050505b9392505050565b5f546001600160a01b031633146108975760405163118cdaa760e01b815233600482015260240161123c565b5f80546001600160a01b038381166001600160a01b0319831681178455604051919092169283917f8be0079c531659141344cd1fd0a4f28419497f9722a3daafe3b4186f6b6457e09190a35050565b60026001540361160057604051633ee5aeb560e01b815260040160405180910390fd5b6002600155565b5f82611613858461161c565b14949350505050565b5f81815b84518110156116565761164c8286838151811061163f5761163f611d70565b602002602001015161165e565b9150600101611620565b509392505050565b5f818310611678575f82815260208490526040902061155b565b505f9182526020526040902090565b6001600160a01b038116811461124e575f5ffd5b5f602082840312156116ab575f5ffd5b813561155b81611687565b801515811461124e575f5ffd5b5f5f604083850312156116d4575f5ffd5b82356116df81611687565b915060208301356116ef816116b6565b809150509250929050565b5f6020828403121561170a575f5ffd5b5035919050565b634e487b7160e01b5f52604160045260245ffd5b604051601f8201601f1916810167ffffffffffffffff8111828210171561174e5761174e611711565b604052919050565b5f82601f830112611765575f5ffd5b813567ffffffffffffffff81111561177f5761177f611711565b611792601f8201601f1916602001611725565b8181528460208386010111156117a6575f5ffd5b816020850160208301375f918101602001919091529392505050565b5f5f5f606084860312156117d4575f5ffd5b83359250602084013560ff811681146117eb575f5ffd5b9150604084013567ffffffffffffffff811115611806575f5ffd5b61181286828701611756565b9150509250925092565b5f5f6040838503121561182d575f5ffd5b82359150602083013567ffffffffffffffff81111561184a575f5ffd5b61185685828601611756565b9150509250929050565b5f81518084528060208401602086015e5f602082860101526020601f19601f83011685010191505092915050565b602081525f8251606060208401526118a96080840182611860565b9050602084015160408401526040840151151560608401528091505092915050565b5f5f604083850312156118dc575f5ffd5b8235915060208301356116ef81611687565b5f5f5f60608486031215611900575f5ffd5b83359250602084013567ffffffffffffffff81111561191d575f5ffd5b61192986828701611756565b925050604084013567ffffffffffffffff811115611945575f5ffd5b8401601f81018613611955575f5ffd5b803567ffffffffffffffff81111561196f5761196f611711565b8060051b61197f60208201611725565b9182526020818401810192908101908984111561199a575f5ffd5b6020850194505b838510156119c0578435808352602095860195909350909101906119a1565b80955050505050509250925092565b602081528151151560208201525f60208301516040808401526119f56060840182611860565b949350505050565b5f5f5f60608486031215611a0f575f5ffd5b833567ffffffffffffffff811115611a25575f5ffd5b611a3186828701611756565b9660208601359650604090950135949350505050565b5f60208284031215611a57575f5ffd5b813567ffffffffffffffff811115611a6d575f5ffd5b6119f584828501611756565b5f5f5f60608486031215611a8b575f5ffd5b505081359360208301359350604090920135919050565b5f602082016020835280845180835260408501915060408160051b8601019250602086015f5b82811015611b3057868503603f19018452815180516001600160a01b0316865260208082015160ff169087015260408082015190870152606090810151608091870182905290611b1a90870182611860565b9550506020938401939190910190600101611ac8565b50929695505050505050565b5f60208284031215611b4c575f5ffd5b5051919050565b600181811c90821680611b6757607f821691505b602082108103611b8557634e487b7160e01b5f52602260045260245ffd5b50919050565b601f821115610c8d57805f5260205f20601f840160051c81016020851015611bb05750805b601f840160051c820191505b81811015611bcf575f8155600101611bbc565b5050505050565b815167ffffffffffffffff811115611bf057611bf0611711565b611c0481611bfe8454611b53565b84611b8b565b6020601f821160018114611c36575f8315611c1f5750848201515b5f19600385901b1c1916600184901b178455611bcf565b5f84815260208120601f198516915b82811015611c655787850151825560209485019460019092019101611c45565b5084821015611c8257868401515f19600387901b60f8161c191681555b50505050600190811b01905550565b634e487b7160e01b5f52601160045260245ffd5b5f60018201611cb657611cb6611c91565b5060010190565b5f82518060208501845e5f920191825250919050565b5f60208284031215611ce3575f5ffd5b815161155b81611687565b5f60208284031215611cfe575f5ffd5b815161155b816116b6565b60018060a01b0384168152826020820152606060408201525f611d2f6060830184611860565b95945050505050565b602081525f61155b6020830184611860565b808201808211156107f4576107f4611c91565b818103818111156107f4576107f4611c91565b634e487b7160e01b5f52603260045260245ffdfea26469706673582212207fc2ad347d2ee1f26685322c05e45a29a617c532ef37c45816087f556124863964736f6c634300081c0033",
  "linkReferences": {},
  "deployedLinkReferences": {},
  "immutableReferences": {
    "1484": [
      {
        "length": 32,
        "start": 374
      },
      {
        "length": 32,
        "start": 1427
      },
      {
        "length": 32,
        "start": 2515
      },
      {
        "length": 32,
        "start": 2670
      },
      {
        "length": 32,
        "start": 3069
      },
      {
        "length": 32,
        "start": 3511
      },
      {
        "length": 32,
        "start": 3825
      },
      {
        "length": 32,
        "start": 4188
      },
      {
        "length": 32,
        "start": 4516
      }
    ]
  },
  "inputSourceName": "project/contracts/ArtworkRegistry.sol",
  "buildInfoId": "solc-0_8_28-b151333e8b246836de27a3fbf7c086833474f57c"
}