{
  "_format": "hh3-artifact-1",
  "contractName": "ArtworkRegistry",
  "sourceName": "contracts/ArtworkRegistry.sol",
  "abi": [
    {
      "inputs": [
        {
          "internalType": "address",
          "name": "_artworkTokenizationAddress",
          "type": "address"
        }
      ],
      "stateMutability": "nonpayable",
      "type": "constructor"
    },
    {
      "inputs": [],
      "name": "AlreadyAdmin",
      "type": "error"
    },
    {
      "inputs": [],
      "name": "ArtistMustApproveContract",
      "type": "error"
    },
    {
      "inputs": [],
      "name": "ArtistNotAuthorized",
      "type": "error"
    },
    {
      "inputs": [],
      "name": "AuthorizationAlreadyApplied",
      "type": "error"
    },
    {
      "inputs": [],
      "name": "EditionDoesNotExist",
      "type": "error"
    },
    {
      "inputs": [],
      "name": "EditionMustHaveCertificates",
      "type": "error"
    },
    {
      "inputs": [],
      "name": "EditionSizeTooLarge",
      "type": "error"
    },
    {
      "inputs": [],
      "name": "EmptyMerkleRoot",
      "type": "error"
    },
    {
      "inputs": [],
      "name": "InvalidConfigValue",
      "type": "error"
    },
    {
      "inputs": [],
      "name": "InvalidIPFSCID",
      "type": "error"
    },
    {
      "inputs": [],
      "name": "InvalidMerkleProof",
      "type": "error"
    },
    {
      "inputs": [],
      "name": "KeyAlreadyClaimed",
      "type": "error"
    },
    {
      "inputs": [],
      "name": "MetadataLocked",
      "type": "error"
    },
    {
      "inputs": [],
      "name": "NoCertificateLeft",
      "type": "error"
    },
    {
      "inputs": [],
      "name": "NotAllowedToReview",
      "type": "error"
    },
    {
      "inputs": [],
      "name": "NotAnAdmin",
      "type": "error"
    },
    {
      "inputs": [],
      "name": "NotYourEdition",
      "type": "error"
    },
    {
      "inputs": [],
      "name": "OnlyAdminAuthorized",
      "type": "error"
    },
    {
      "inputs": [
        {
          "internalType": "address",
          "name": "owner",
          "type": "address"
        }
      ],
      "name": "OwnableInvalidOwner",
      "type": "error"
    },
    {
      "inputs": [
        {
          "internalType": "address",
          "name": "account",
          "type": "address"
        }
      ],
      "name": "OwnableUnauthorizedAccount",
      "type": "error"
    },
    {
      "inputs": [],
      "name": "QueryLimitTooHigh",
      "type": "error"
    },
    {
      "inputs": [],
      "name": "RatingOutOfRange",
      "type": "error"
    },
    {
      "inputs": [],
      "name": "ReentrancyGuardReentrantCall",
      "type": "error"
    },
    {
      "inputs": [],
      "name": "ReviewLimitReached",
      "type": "error"
    },
    {
      "anonymous": false,
      "inputs": [
        {
          "indexed": true,
          "internalType": "address",
          "name": "admin",
          "type": "address"
        }
      ],
      "name": "AdminRemoved",
      "type": "event"
    },
    {
      "anonymous": false,
      "inputs": [
        {
          "indexed": true,
          "internalType": "address",
          "name": "artist",
          "type": "address"
        }
      ],
      "name": "ArtistInfoUpdated",
      "type": "event"
    },
    {
      "anonymous": false,
      "inputs": [
        {
          "indexed": true,
          "internalType": "address",
          "name": "artist",
          "type": "address"
        },
        {
          "indexed": false,
          "internalType": "bool",
          "name": "isAuthorized",
          "type": "bool"
        }
      ],
      "name": "AuthorizationArtist",
      "type": "event"
    },
    {
      "anonymous": false,
      "inputs": [
        {
          "indexed": true,
          "internalType": "address",
          "name": "collector",
          "type": "address"
        },
        {
          "indexed": true,
          "internalType": "uint256",
          "name": "editionId",
          "type": "uint256"
        }
      ],
      "name": "CertificateClaimed",
      "type": "event"
    },
    {
      "anonymous": false,
      "inputs": [
        {
          "indexed": true,
          "internalType": "address",
          "name": "artist",
          "type": "address"
        },
        {
          "indexed": true,
          "internalType": "uint256",
          "name": "editionId",
          "type": "uint256"
        },
        {
          "indexed": false,
          "internalType": "string",
          "name": "newMetadata",
          "type": "string"
        }
      ],
      "name": "EditionMetadataUpdated",
      "type": "event"
    },
    {
      "anonymous": false,
      "inputs": [
        {
          "indexed": false,
          "internalType": "uint256",
          "name": "newValue",
          "type": "uint256"
        }
      ],
      "name": "MaxEditionSizeUpdated",
      "type": "event"
    },
    {
      "anonymous": false,
      "inputs": [
        {
          "indexed": false,
          "internalType": "uint256",
          "name": "newValue",
          "type": "uint256"
        }
      ],
      "name": "MaxReviewsPerUserAndEditionUpdated",
      "type": "event"
    },
    {
      "anonymous": false,
      "inputs": [
        {
          "indexed": false,
          "internalType": "uint256",
          "name": "newValue",
          "type": "uint256"
        }
      ],
      "name": "MaxReviewsQueryUpdated",
      "type": "event"
    },
    {
      "anonymous": false,
      "inputs": [
        {
          "indexed": true,
          "internalType": "address",
          "name": "newAdmin",
          "type": "address"
        }
      ],
      "name": "NewAdmin",
      "type": "event"
    },
    {
      "anonymous": false,
      "inputs": [
        {
          "indexed": true,
          "internalType": "address",
          "name": "artist",
          "type": "address"
        },
        {
          "indexed": true,
          "internalType": "uint256",
          "name": "editionId",
          "type": "uint256"
        }
      ],
      "name": "NewArtworkEdition",
      "type": "event"
    },
    {
      "anonymous": false,
      "inputs": [
        {
          "indexed": true,
          "internalType": "address",
          "name": "collector",
          "type": "address"
        },
        {
          "indexed": true,
          "internalType": "uint256",
          "name": "editionId",
          "type": "uint256"
        },
        {
          "indexed": false,
          "internalType": "uint8",
          "name": "rating",
          "type": "uint8"
        }
      ],
      "name": "NewReview",
      "type": "event"
    },
    {
      "anonymous": false,
      "inputs": [
        {
          "indexed": true,
          "internalType": "address",
          "name": "previousOwner",
          "type": "address"
        },
        {
          "indexed": true,
          "internalType": "address",
          "name": "newOwner",
          "type": "address"
        }
      ],
      "name": "OwnershipTransferred",
      "type": "event"
    },
    {
      "inputs": [
        {
          "internalType": "address",
          "name": "_newAdmin",
          "type": "address"
        }
      ],
      "name": "addAdmin",
      "outputs": [],
      "stateMutability": "nonpayable",
      "type": "function"
    },
    {
      "inputs": [
        {
          "internalType": "uint256",
          "name": "_editionId",
          "type": "uint256"
        },
        {
          "internalType": "uint8",
          "name": "_rating",
          "type": "uint8"
        },
        {
          "internalType": "string",
          "name": "_metadata",
          "type": "string"
        }
      ],
      "name": "addReview",
      "outputs": [],
      "stateMutability": "nonpayable",
      "type": "function"
    },
    {
      "inputs": [
        {
          "internalType": "address",
          "name": "",
          "type": "address"
        }
      ],
      "name": "admins",
      "outputs": [
        {
          "internalType": "bool",
          "name": "",
          "type": "bool"
        }
      ],
      "stateMutability": "view",
      "type": "function"
    },
    {
      "inputs": [],
      "name": "artworkTokenization",
      "outputs": [
        {
          "internalType": "contract IArtworkTokenization",
          "name": "",
          "type": "address"
        }
      ],
      "stateMutability": "view",
      "type": "function"
    },
    {
      "inputs": [
        {
          "internalType": "address",
          "name": "_artist",
          "type": "address"
        },
        {
          "internalType": "bool",
          "name": "_isAuthorized",
          "type": "bool"
        }
      ],
      "name": "authorizeArtist",
      "outputs": [],
      "stateMutability": "nonpayable",
      "type": "function"
    },
    {
      "inputs": [
        {
          "internalType": "uint256",
          "name": "_editionId",
          "type": "uint256"
        },
        {
          "internalType": "string",
          "name": "_secretKey",
          "type": "string"
        },
        {
          "internalType": "bytes32[]",
          "name": "_merkleProof",
          "type": "bytes32[]"
        }
      ],
      "name": "claimCertificate",
      "outputs": [],
      "stateMutability": "nonpayable",
      "type": "function"
    },
    {
      "inputs": [
        {
          "internalType": "string",
          "name": "_metadata",
          "type": "string"
        },
        {
          "internalType": "uint256",
          "name": "_amount",
          "type": "uint256"
        },
        {
          "internalType": "bytes32",
          "name": "_merkleRoot",
          "type": "bytes32"
        }
      ],
      "name": "createArtworkEdition",
      "outputs": [],
      "stateMutability": "nonpayable",
      "type": "function"
    },
    {
      "inputs": [
        {
          "internalType": "address",
          "name": "_address",
          "type": "address"
        }
      ],
      "name": "getArtist",
      "outputs": [
        {
          "components": [
            {
              "internalType": "bool",
              "name": "authorized",
              "type": "bool"
            },
            {
              "internalType": "string",
              "name": "metadata",
              "type": "string"
            }
          ],
          "internalType": "struct ArtworkRegistry.Artist",
          "name": "",
          "type": "tuple"
        }
      ],
      "stateMutability": "view",
      "type": "function"
    },
    {
      "inputs": [
        {
          "internalType": "uint256",
          "name": "_id",
          "type": "uint256"
        }
      ],
      "name": "getArtworkEdition",
      "outputs": [
        {
          "internalType": "string",
          "name": "metadata",
          "type": "string"
        },
        {
          "internalType": "bytes32",
          "name": "merkleRoot",
          "type": "bytes32"
        },
        {
          "internalType": "bool",
          "name": "hasBeenClaimed",
          "type": "bool"
        }
      ],
      "stateMutability": "view",
      "type": "function"
    },
    {
      "inputs": [
        {
          "internalType": "uint256",
          "name": "_editionId",
          "type": "uint256"
        },
        {
          "internalType": "uint256",
          "name": "startIndex",
          "type": "uint256"
        },
        {
          "internalType": "uint256",
          "name": "limit",
          "type": "uint256"
        }
      ],
      "name": "getEditionReviews",
      "outputs": [
        {
          "components": [
            {
              "internalType": "address",
              "name": "collector",
              "type": "address"
            },
            {
              "internalType": "uint8",
              "name": "rating",
              "type": "uint8"
            },
            {
              "internalType": "uint256",
              "name": "editionId",
              "type": "uint256"
            },
            {
              "internalType": "string",
              "name": "metadata",
              "type": "string"
            }
          ],
          "internalType": "struct ArtworkRegistry.Review[]",
          "name": "",
          "type": "tuple[]"
        }
      ],
      "stateMutability": "view",
      "type": "function"
    },
    {
      "inputs": [
        {
          "internalType": "uint256",
          "name": "_editionId",
          "type": "uint256"
        }
      ],
      "name": "getEditionReviewsCount",
      "outputs": [
        {
          "internalType": "uint256",
          "name": "",
          "type": "uint256"
        }
      ],
      "stateMutability": "view",
      "type": "function"
    },
    {
      "inputs": [
        {
          "internalType": "address",
          "name": "_address",
          "type": "address"
        }
      ],
      "name": "isAdmin",
      "outputs": [
        {
          "internalType": "bool",
          "name": "",
          "type": "bool"
        }
      ],
      "stateMutability": "view",
      "type": "function"
    },
    {
      "inputs": [
        {
          "internalType": "address",
          "name": "_artist",
          "type": "address"
        }
      ],
      "name": "isArtistApproved",
      "outputs": [
        {
          "internalType": "bool",
          "name": "",
          "type": "bool"
        }
      ],
      "stateMutability": "view",
      "type": "function"
    },
    {
      "inputs": [
        {
          "internalType": "uint256",
          "name": "_editionId",
          "type": "uint256"
        }
      ],
      "name": "isEditionLocked",
      "outputs": [
        {
          "internalType": "bool",
          "name": "",
          "type": "bool"
        }
      ],
      "stateMutability": "view",
      "type": "function"
    },
    {
      "inputs": [
        {
          "internalType": "uint256",
          "name": "_editionId",
          "type": "uint256"
        },
        {
          "internalType": "string",
          "name": "_secretKey",
          "type": "string"
        }
      ],
      "name": "isKeyClaimed",
      "outputs": [
        {
          "internalType": "bool",
          "name": "",
          "type": "bool"
        }
      ],
      "stateMutability": "view",
      "type": "function"
    },
    {
      "inputs": [],
      "name": "maxEditionSize",
      "outputs": [
        {
          "internalType": "uint256",
          "name": "",
          "type": "uint256"
        }
      ],
      "stateMutability": "view",
      "type": "function"
    },
    {
      "inputs": [],
      "name": "maxReviewsPerUserAndEdition",
      "outputs": [
        {
          "internalType": "uint256",
          "name": "",
          "type": "uint256"
        }
      ],
      "stateMutability": "view",
      "type": "function"
    },
    {
      "inputs": [],
      "name": "maxReviewsQuery",
      "outputs": [
        {
          "internalType": "uint256",
          "name": "",
          "type": "uint256"
        }
      ],
      "stateMutability": "view",
      "type": "function"
    },
    {
      "inputs": [],
      "name": "owner",
      "outputs": [
        {
          "internalType": "address",
          "name": "",
          "type": "address"
        }
      ],
      "stateMutability": "view",
      "type": "function"
    },
    {
      "inputs": [
        {
          "internalType": "address",
          "name": "_admin",
          "type": "address"
        }
      ],
      "name": "removeAdmin",
      "outputs": [],
      "stateMutability": "nonpayable",
      "type": "function"
    },
    {
      "inputs": [],
      "name": "renounceOwnership",
      "outputs": [],
      "stateMutability": "nonpayable",
      "type": "function"
    },
    {
      "inputs": [
        {
          "internalType": "uint256",
          "name": "",
          "type": "uint256"
        },
        {
          "internalType": "address",
          "name": "",
          "type": "address"
        }
      ],
      "name": "reviewCount",
      "outputs": [
        {
          "internalType": "uint256",
          "name": "",
          "type": "uint256"
        }
      ],
      "stateMutability": "view",
      "type": "function"
    },
    {
      "inputs": [
        {
          "internalType": "string",
          "name": "_metadata",
          "type": "string"
        }
      ],
      "name": "setArtistInfo",
      "outputs": [],
      "stateMutability": "nonpayable",
      "type": "function"
    },
    {
      "inputs": [
        {
          "internalType": "uint256",
          "name": "_newMaxEditionSize",
          "type": "uint256"
        }
      ],
      "name": "setMaxEditionSize",
      "outputs": [],
      "stateMutability": "nonpayable",
      "type": "function"
    },
    {
      "inputs": [
        {
          "internalType": "uint256",
          "name": "_newMaxReviewsPerUserAndEdition",
          "type": "uint256"
        }
      ],
      "name": "setMaxReviewsPerUserAndEdition",
      "outputs": [],
      "stateMutability": "nonpayable",
      "type": "function"
    },
    {
      "inputs": [
        {
          "internalType": "uint256",
          "name": "_newMaxReviewsQuery",
          "type": "uint256"
        }
      ],
      "name": "setMaxReviewsQuery",
      "outputs": [],
      "stateMutability": "nonpayable",
      "type": "function"
    },
    {
      "inputs": [
        {
          "internalType": "address",
          "name": "newOwner",
          "type": "address"
        }
      ],
      "name": "transferOwnership",
      "outputs": [],
      "stateMutability": "nonpayable",
      "type": "function"
    },
    {
      "inputs": [
        {
          "internalType": "uint256",
          "name": "_editionId",
          "type": "uint256"
        },
        {
          "internalType": "string",
          "name": "_newMetadata",
          "type": "string"
        }
      ],
      "name": "updateEditionMetadata",
      "outputs": [],
      "stateMutability": "nonpayable",
      "type": "function"
    }
  ],
  "bytecode": "0x60a0604052620186a060025560056003556064600455348015610020575f5ffd5b506040516121a73803806121a783398101604081905261003f91610117565b338061006457604051631e4fbdf760e01b81525f600482015260240160405180910390fd5b61006d816100c8565b5060018080556001600160a01b038216608052335f81815260086020526040808220805460ff1916909417909355915190917f71614071b88dee5e0b2ae578a9dd7b2ebbe9ae832ba419dc0242cd065a290b6c91a250610144565b5f80546001600160a01b038381166001600160a01b0319831681178455604051919092169283917f8be0079c531659141344cd1fd0a4f28419497f9722a3daafe3b4186f6b6457e09190a35050565b5f60208284031215610127575f5ffd5b81516001600160a01b038116811461013d575f5ffd5b9392505050565b6080516120056101a25f395f81816101c40152818161061a015281816109ae01528181610ae101528181610b7c01528181610d0901528181610ec301528181610ffc0152818161115401528181611238015261136801526120055ff3fe608060405234801561000f575f5ffd5b50600436106101bb575f3560e01c80638b2a6afb116100f3578063dd00f80411610093578063f2fde38b1161006e578063f2fde38b14610418578063f9fbd8a61461042b578063fc31b9941461044a578063fe3010ba1461045d575f5ffd5b8063dd00f804146103df578063e47f0e64146103f2578063e55e29ae14610405575f5ffd5b80639bf9adce116100ce5780639bf9adce14610386578063a6a7389214610399578063b949c804146103ac578063d5fac284146103cc575f5ffd5b80638b2a6afb146103435780638da5cb5b1461034c578063956b32361461035c575f5ffd5b80634df637ed1161015e578063704802751161013957806370480275146102fd578063715018a6146103105780637ae37e4e146103185780637b37ce4f1461033a575f5ffd5b80634df637ed146102c057806352b608c1146102d3578063566aac2f146102ea575f5ffd5b80633b3412f2116101995780633b3412f214610253578063429b62e51461026657806344d14a85146102885780634909f98b146102ad575f5ffd5b80630a7c395a146101bf5780631785f53c1461020357806324d7806c14610218575b5f5ffd5b6101e67f000000000000000000000000000000000000000000000000000000000000000081565b6040516001600160a01b0390911681526020015b60405180910390f35b610216610211366004611860565b61047d565b005b610243610226366004611860565b6001600160a01b03165f9081526008602052604090205460ff1690565b60405190151581526020016101fa565b610216610261366004611888565b610505565b610243610274366004611860565b60086020525f908152604090205460ff1681565b6102436102963660046118bf565b5f9081526006602052604090206001015460ff1690565b6102166102bb366004611994565b6105d2565b6102436102ce3660046119ee565b610837565b6102dc60045481565b6040519081526020016101fa565b6102166102f83660046118bf565b610882565b61021661030b366004611860565b6108e6565b610216610972565b61032b6103263660046118bf565b610985565b6040516101fa93929190611a60565b6102dc60025481565b6102dc60035481565b5f546001600160a01b03166101e6565b6102dc61036a366004611a89565b600a60209081525f928352604080842090915290825290205481565b6102166103943660046118bf565b610a38565b6102166103a7366004611aac565b610a95565b6103bf6103ba366004611860565b610d9e565b6040516101fa9190611b8d565b6102166103da366004611bbb565b610e79565b6102166103ed3660046119ee565b6110bb565b6102166104003660046118bf565b6112e4565b610243610413366004611860565b611341565b610216610426366004611860565b6113d3565b6102dc6104393660046118bf565b5f9081526007602052604090205490565b610216610458366004611c05565b611415565b61047061046b366004611c37565b6114c0565b6040516101fa9190611c60565b610485611727565b6001600160a01b0381165f9081526008602052604090205460ff166104bd576040516355098f2760e01b815260040160405180910390fd5b6001600160a01b0381165f81815260086020526040808220805460ff19169055517fa3b62bc36326052d97ea62d63c3d60308ed4c3ea8ac079dd8499f1e9c4f80c0f9190a250565b335f9081526008602052604090205460ff1661053457604051630bbee75f60e11b815260040160405180910390fd5b6001600160a01b0382165f9081526005602052604090205481151560ff90911615150361057457604051639a7d4c4b60e01b815260040160405180910390fd5b6001600160a01b0382165f81815260056020908152604091829020805460ff191685151590811790915591519182527f51d474af3af5acba8610b2ab0f151688924b2181d40898a5c49f7d3572efdee1910160405180910390a25050565b5f838152600660205260409020546105fd5760405163eb49290360e01b815260040160405180910390fd5b604051627eeac760e11b8152336004820152602481018490525f907f00000000000000000000000000000000000000000000000000000000000000006001600160a01b03169062fdd58e90604401602060405180830381865afa158015610666573d5f5f3e3d5ffd5b505050506040513d601f19601f8201168201806040525081019061068a9190611cfa565b116106a857604051635fb99c9960e01b815260040160405180910390fd5b60058260ff1611156106cd57604051630e3a750160e41b815260040160405180910390fd5b6003545f848152600a6020908152604080832033845290915290205410610707576040516370ac688560e11b815260040160405180910390fd5b602881511015801561071b57506064815111155b610738576040516321d094fb60e21b815260040160405180910390fd5b5f838152600760209081526040808320815160808101835233815260ff8088168286019081529382018981526060830188815284546001818101875595895296909720835160039097020180549551909216600160a01b026001600160a81b03199095166001600160a01b039690961695909517939093178355925190820155915190919060028201906107cc9082611d94565b5050505f838152600a6020908152604080832033845290915281208054916107f383611e63565b909155505060405160ff83168152839033907fcda0375a4942a11df7b813db200963b233e46e9ea344aed473ce3eec638ea4899060200160405180910390a3505050565b5f5f8260405160200161084a9190611e7b565b60408051601f1981840301815291815281516020928301205f87815260098452828120918152925290205460ff169150505b92915050565b61088a611727565b5f81116108aa576040516310a571d160e31b815260040160405180910390fd5b60028190556040518181527f61fdc62d00c03150f3f0c46ef1b0fa3e0bcce9967640df6ead5d39949e3c4cf8906020015b60405180910390a150565b6108ee611727565b6001600160a01b0381165f9081526008602052604090205460ff161561092757604051631c3681a560e11b815260040160405180910390fd5b6001600160a01b0381165f81815260086020526040808220805460ff19166001179055517f71614071b88dee5e0b2ae578a9dd7b2ebbe9ae832ba419dc0242cd065a290b6c9190a250565b61097a611727565b6109835f611753565b565b5f8181526006602052604080822090516303a24d0760e21b8152600481018490526060929182917f00000000000000000000000000000000000000000000000000000000000000006001600160a01b031690630e89341c906024015f60405180830381865afa1580156109fa573d5f5f3e3d5ffd5b505050506040513d5f823e601f3d908101601f19168201604052610a219190810190611e91565b8154600190920154909691955060ff169350915050565b610a40611727565b5f8111610a60576040516310a571d160e31b815260040160405180910390fd5b60048190556040518181527f1ba3cd944da03e148b1c036b963bea6f6440c5783340608d07d1a57135747f7c906020016108db565b610a9d6117a2565b5f8381526006602052604090208054610ac95760405163eb49290360e01b815260040160405180910390fd5b604051636f8f89ad60e01b8152600481018590525f907f00000000000000000000000000000000000000000000000000000000000000006001600160a01b031690636f8f89ad90602401602060405180830381865afa158015610b2e573d5f5f3e3d5ffd5b505050506040513d601f19601f82011682018060405250810190610b529190611f06565b604051627eeac760e11b81526001600160a01b038083166004830152602482018890529192505f917f0000000000000000000000000000000000000000000000000000000000000000169062fdd58e90604401602060405180830381865afa158015610bc0573d5f5f3e3d5ffd5b505050506040513d601f19601f82011682018060405250810190610be49190611cfa565b90505f8111610c0657604051633d91e3f160e01b815260040160405180910390fd5b5f85604051602001610c189190611e7b565b60408051601f1981840301815291815281516020928301205f8a81526009845282812082825290935291205490915060ff1615610c6857604051634e7f17b160e11b815260040160405180910390fd5b610c7685855f0154836117cc565b610c935760405163582f497d60e11b815260040160405180910390fd5b5f8781526009602090815260408083208484529091528082208054600160ff1991821681179092558782018054909116821790559051637921219560e11b81526001600160a01b038681166004830152336024830152604482018b9052606482019290925260a0608482015260a48101929092527f0000000000000000000000000000000000000000000000000000000000000000169063f242432a9060c4015f604051808303815f87803b158015610d4a575f5ffd5b505af1158015610d5c573d5f5f3e3d5ffd5b50506040518992503391507f6129cf1b5cb4d24f2c9bf19b374e058a938d29d81ea5ae0cb8d84c092a032cf1905f90a350505050610d9960018055565b505050565b604080518082019091525f8152606060208201526001600160a01b0382165f908152600560209081526040918290208251808401909352805460ff16151583526001810180549192840191610df290611d11565b80601f0160208091040260200160405190810160405280929190818152602001828054610e1e90611d11565b8015610e695780601f10610e4057610100808354040283529160200191610e69565b820191905f5260205f20905b815481529060010190602001808311610e4c57829003601f168201915b5050505050815250509050919050565b335f9081526005602052604090205460ff16610ea857604051632f7d4ab160e21b815260040160405180910390fd5b60405163e985e9c560e01b81523360048201523060248201527f00000000000000000000000000000000000000000000000000000000000000006001600160a01b03169063e985e9c590604401602060405180830381865afa158015610f10573d5f5f3e3d5ffd5b505050506040513d601f19601f82011682018060405250810190610f349190611f21565b610f5157604051632f0dd10360e11b815260040160405180910390fd5b6028835110158015610f6557506064835111155b610f82576040516321d094fb60e21b815260040160405180910390fd5b5f8211610fa25760405163041b8e8b60e31b815260040160405180910390fd5b600254821115610fc55760405163168ce0ef60e01b815260040160405180910390fd5b80610fe3576040516385ac2b9960e01b815260040160405180910390fd5b6040516309cd436760e11b81525f906001600160a01b037f0000000000000000000000000000000000000000000000000000000000000000169063139a86ce9061103590339087908990600401611f3c565b6020604051808303815f875af1158015611051573d5f5f3e3d5ffd5b505050506040513d601f19601f820116820180604052508101906110759190611cfa565b5f81815260066020526040808220858155905192935091839133917fcc0870ecad2de210be4179cb95e10a19ab4e68254575e8652cdaa569fe0b97779190a35050505050565b335f9081526005602052604090205460ff166110ea57604051632f7d4ab160e21b815260040160405180910390fd5b5f82815260066020526040902080546111165760405163eb49290360e01b815260040160405180910390fd5b600181015460ff161561113c576040516313ef243160e11b815260040160405180910390fd5b604051636f8f89ad60e01b8152600481018490525f907f00000000000000000000000000000000000000000000000000000000000000006001600160a01b031690636f8f89ad90602401602060405180830381865afa1580156111a1573d5f5f3e3d5ffd5b505050506040513d601f19601f820116820180604052508101906111c59190611f06565b90506001600160a01b03811633146111f057604051630207726160e61b815260040160405180910390fd5b602883511015801561120457506064835111155b611221576040516321d094fb60e21b815260040160405180910390fd5b6040516316597a9760e11b81526001600160a01b037f00000000000000000000000000000000000000000000000000000000000000001690632cb2f52e9061126f9087908790600401611f6b565b5f604051808303815f87803b158015611286575f5ffd5b505af1158015611298573d5f5f3e3d5ffd5b5050505083336001600160a01b03167fccc8015d194f311e1bda6fe884601a0f6985c027d9e981f39e8403cb801805aa856040516112d69190611f83565b60405180910390a350505050565b6112ec611727565b5f811161130c576040516310a571d160e31b815260040160405180910390fd5b60038190556040518181527faed7455b82c1a82c33e2e4ea4c43e768c22ae6227078a95020e0a5e101e2fed2906020016108db565b60405163e985e9c560e01b81526001600160a01b0382811660048301523060248301525f917f00000000000000000000000000000000000000000000000000000000000000009091169063e985e9c590604401602060405180830381865afa1580156113af573d5f5f3e3d5ffd5b505050506040513d601f19601f8201168201806040525081019061087c9190611f21565b6113db611727565b6001600160a01b03811661140957604051631e4fbdf760e01b81525f60048201526024015b60405180910390fd5b61141281611753565b50565b335f9081526005602052604090205460ff1661144457604051632f7d4ab160e21b815260040160405180910390fd5b602881511015801561145857506064815111155b611475576040516321d094fb60e21b815260040160405180910390fd5b335f908152600560205260409020600181016114918382611d94565b5060405133907fd50aeda4ce38e630c9d6059336d35c97d8bf00973f1f901f356d58f4cbeeb4ce905f90a25050565b60606004548211156114e557604051632444a20f60e11b815260040160405180910390fd5b5f8481526007602052604090205480841061154957604080515f8082526020820190925290611540565b604080516080810182525f80825260208083018290529282015260608082015282525f1990920191018161150f5790505b50915050611720565b5f816115558587611f95565b11611569576115648486611f95565b61156b565b815b90505f6115788683611fa8565b90505f8167ffffffffffffffff811115611594576115946118d6565b6040519080825280602002602001820160405280156115e357816020015b604080516080810182525f80825260208083018290529282015260608082015282525f199092019101816115b25790505b5090505f5b82811015611719575f898152600760205260409020611607828a611f95565b8154811061161757611617611fbb565b5f91825260209182902060408051608081018252600390930290910180546001600160a01b038116845260ff600160a01b909104169383019390935260018301549082015260028201805491929160608401919061167490611d11565b80601f01602080910402602001604051908101604052809291908181526020018280546116a090611d11565b80156116eb5780601f106116c2576101008083540402835291602001916116eb565b820191905f5260205f20905b8154815290600101906020018083116116ce57829003601f168201915b50505050508152505082828151811061170657611706611fbb565b60209081029190910101526001016115e8565b5093505050505b9392505050565b5f546001600160a01b031633146109835760405163118cdaa760e01b8152336004820152602401611400565b5f80546001600160a01b038381166001600160a01b0319831681178455604051919092169283917f8be0079c531659141344cd1fd0a4f28419497f9722a3daafe3b4186f6b6457e09190a35050565b6002600154036117c557604051633ee5aeb560e01b815260040160405180910390fd5b6002600155565b5f826117d885846117e1565b14949350505050565b5f81815b845181101561181b576118118286838151811061180457611804611fbb565b6020026020010151611823565b91506001016117e5565b509392505050565b5f81831061183d575f828152602084905260409020611720565b505f9182526020526040902090565b6001600160a01b0381168114611412575f5ffd5b5f60208284031215611870575f5ffd5b81356117208161184c565b8015158114611412575f5ffd5b5f5f60408385031215611899575f5ffd5b82356118a48161184c565b915060208301356118b48161187b565b809150509250929050565b5f602082840312156118cf575f5ffd5b5035919050565b634e487b7160e01b5f52604160045260245ffd5b604051601f8201601f1916810167ffffffffffffffff81118282101715611913576119136118d6565b604052919050565b5f67ffffffffffffffff821115611934576119346118d6565b50601f01601f191660200190565b5f82601f830112611951575f5ffd5b813561196461195f8261191b565b6118ea565b818152846020838601011115611978575f5ffd5b816020850160208301375f918101602001919091529392505050565b5f5f5f606084860312156119a6575f5ffd5b83359250602084013560ff811681146119bd575f5ffd5b9150604084013567ffffffffffffffff8111156119d8575f5ffd5b6119e486828701611942565b9150509250925092565b5f5f604083850312156119ff575f5ffd5b82359150602083013567ffffffffffffffff811115611a1c575f5ffd5b611a2885828601611942565b9150509250929050565b5f81518084528060208401602086015e5f602082860101526020601f19601f83011685010191505092915050565b606081525f611a726060830186611a32565b602083019490945250901515604090910152919050565b5f5f60408385031215611a9a575f5ffd5b8235915060208301356118b48161184c565b5f5f5f60608486031215611abe575f5ffd5b83359250602084013567ffffffffffffffff811115611adb575f5ffd5b611ae786828701611942565b925050604084013567ffffffffffffffff811115611b03575f5ffd5b8401601f81018613611b13575f5ffd5b803567ffffffffffffffff811115611b2d57611b2d6118d6565b8060051b611b3d602082016118ea565b91825260208184018101929081019089841115611b58575f5ffd5b6020850194505b83851015611b7e57843580835260209586019590935090910190611b5f565b80955050505050509250925092565b602081528151151560208201525f6020830151604080840152611bb36060840182611a32565b949350505050565b5f5f5f60608486031215611bcd575f5ffd5b833567ffffffffffffffff811115611be3575f5ffd5b611bef86828701611942565b9660208601359650604090950135949350505050565b5f60208284031215611c15575f5ffd5b813567ffffffffffffffff811115611c2b575f5ffd5b611bb384828501611942565b5f5f5f60608486031215611c49575f5ffd5b505081359360208301359350604090920135919050565b5f602082016020835280845180835260408501915060408160051b8601019250602086015f5b82811015611cee57868503603f19018452815180516001600160a01b0316865260208082015160ff169087015260408082015190870152606090810151608091870182905290611cd890870182611a32565b9550506020938401939190910190600101611c86565b50929695505050505050565b5f60208284031215611d0a575f5ffd5b5051919050565b600181811c90821680611d2557607f821691505b602082108103611d4357634e487b7160e01b5f52602260045260245ffd5b50919050565b601f821115610d9957805f5260205f20601f840160051c81016020851015611d6e5750805b601f840160051c820191505b81811015611d8d575f8155600101611d7a565b5050505050565b815167ffffffffffffffff811115611dae57611dae6118d6565b611dc281611dbc8454611d11565b84611d49565b6020601f821160018114611df4575f8315611ddd5750848201515b5f19600385901b1c1916600184901b178455611d8d565b5f84815260208120601f198516915b82811015611e235787850151825560209485019460019092019101611e03565b5084821015611e4057868401515f19600387901b60f8161c191681555b50505050600190811b01905550565b634e487b7160e01b5f52601160045260245ffd5b5f60018201611e7457611e74611e4f565b5060010190565b5f82518060208501845e5f920191825250919050565b5f60208284031215611ea1575f5ffd5b815167ffffffffffffffff811115611eb7575f5ffd5b8201601f81018413611ec7575f5ffd5b8051611ed561195f8261191b565b818152856020838501011115611ee9575f5ffd5b8160208401602083015e5f91810160200191909152949350505050565b5f60208284031215611f16575f5ffd5b81516117208161184c565b5f60208284031215611f31575f5ffd5b81516117208161187b565b60018060a01b0384168152826020820152606060408201525f611f626060830184611a32565b95945050505050565b828152604060208201525f611bb36040830184611a32565b602081525f6117206020830184611a32565b8082018082111561087c5761087c611e4f565b8181038181111561087c5761087c611e4f565b634e487b7160e01b5f52603260045260245ffdfea26469706673582212200f306824035057587d0c3e3776e9f761348d8bfff4613990ed93784d8214152c64736f6c634300081c0033",
  "linkReferences": {},
  "deployedLinkReferences": {},
  "immutableReferences": {
    "1496": [
      {
        "length": 32,
        "start": 452
      },
      {
        "length": 32,
        "start": 1562
      },
      {
        "length": 32,
        "start": 2478
      },
      {
        "length": 32,
        "start": 2785
      },
      {
        "length": 32,
        "start": 2940
      },
      {
        "length": 32,
        "start": 3337
      },
      {
        "length": 32,
        "start": 3779
      },
      {
        "length": 32,
        "start": 4092
      },
      {
        "length": 32,
        "start": 4436
      },
      {
        "length": 32,
        "start": 4664
      },
      {
        "length": 32,
        "start": 4968
      }
    ]
  },
  "inputSourceName": "project/contracts/ArtworkRegistry.sol",
  "buildInfoId": "solc-0_8_28-8bb136eea4dbde56f587b977dabbec0a3a5d1ac4"
}