{
  "_format": "hh3-artifact-1",
  "contractName": "ArtworkTokenization",
  "sourceName": "contracts/ArtworkTokenization.sol",
  "abi": [
    {
      "inputs": [
        {
          "internalType": "string",
          "name": "uriIpfs",
          "type": "string"
        }
      ],
      "stateMutability": "nonpayable",
      "type": "constructor"
    },
    {
      "inputs": [
        {
          "internalType": "address",
          "name": "sender",
          "type": "address"
        },
        {
          "internalType": "uint256",
          "name": "balance",
          "type": "uint256"
        },
        {
          "internalType": "uint256",
          "name": "needed",
          "type": "uint256"
        },
        {
          "internalType": "uint256",
          "name": "tokenId",
          "type": "uint256"
        }
      ],
      "name": "ERC1155InsufficientBalance",
      "type": "error"
    },
    {
      "inputs": [
        {
          "internalType": "address",
          "name": "approver",
          "type": "address"
        }
      ],
      "name": "ERC1155InvalidApprover",
      "type": "error"
    },
    {
      "inputs": [
        {
          "internalType": "uint256",
          "name": "idsLength",
          "type": "uint256"
        },
        {
          "internalType": "uint256",
          "name": "valuesLength",
          "type": "uint256"
        }
      ],
      "name": "ERC1155InvalidArrayLength",
      "type": "error"
    },
    {
      "inputs": [
        {
          "internalType": "address",
          "name": "operator",
          "type": "address"
        }
      ],
      "name": "ERC1155InvalidOperator",
      "type": "error"
    },
    {
      "inputs": [
        {
          "internalType": "address",
          "name": "receiver",
          "type": "address"
        }
      ],
      "name": "ERC1155InvalidReceiver",
      "type": "error"
    },
    {
      "inputs": [
        {
          "internalType": "address",
          "name": "sender",
          "type": "address"
        }
      ],
      "name": "ERC1155InvalidSender",
      "type": "error"
    },
    {
      "inputs": [
        {
          "internalType": "address",
          "name": "operator",
          "type": "address"
        },
        {
          "internalType": "address",
          "name": "owner",
          "type": "address"
        }
      ],
      "name": "ERC1155MissingApprovalForAll",
      "type": "error"
    },
    {
      "inputs": [],
      "name": "InvalidAmount",
      "type": "error"
    },
    {
      "inputs": [],
      "name": "InvalidArtistAddress",
      "type": "error"
    },
    {
      "inputs": [],
      "name": "InvalidIPFSCID",
      "type": "error"
    },
    {
      "inputs": [],
      "name": "InvalidStringLength",
      "type": "error"
    },
    {
      "inputs": [
        {
          "internalType": "address",
          "name": "owner",
          "type": "address"
        }
      ],
      "name": "OwnableInvalidOwner",
      "type": "error"
    },
    {
      "inputs": [
        {
          "internalType": "address",
          "name": "account",
          "type": "address"
        }
      ],
      "name": "OwnableUnauthorizedAccount",
      "type": "error"
    },
    {
      "anonymous": false,
      "inputs": [
        {
          "indexed": true,
          "internalType": "address",
          "name": "account",
          "type": "address"
        },
        {
          "indexed": true,
          "internalType": "address",
          "name": "operator",
          "type": "address"
        },
        {
          "indexed": false,
          "internalType": "bool",
          "name": "approved",
          "type": "bool"
        }
      ],
      "name": "ApprovalForAll",
      "type": "event"
    },
    {
      "anonymous": false,
      "inputs": [
        {
          "indexed": true,
          "internalType": "address",
          "name": "artist",
          "type": "address"
        },
        {
          "indexed": true,
          "internalType": "uint256",
          "name": "tokenId",
          "type": "uint256"
        },
        {
          "indexed": false,
          "internalType": "uint256",
          "name": "amount",
          "type": "uint256"
        }
      ],
      "name": "ArtworkEditionMinted",
      "type": "event"
    },
    {
      "anonymous": false,
      "inputs": [
        {
          "indexed": true,
          "internalType": "address",
          "name": "previousOwner",
          "type": "address"
        },
        {
          "indexed": true,
          "internalType": "address",
          "name": "newOwner",
          "type": "address"
        }
      ],
      "name": "OwnershipTransferred",
      "type": "event"
    },
    {
      "anonymous": false,
      "inputs": [
        {
          "indexed": true,
          "internalType": "address",
          "name": "operator",
          "type": "address"
        },
        {
          "indexed": true,
          "internalType": "address",
          "name": "from",
          "type": "address"
        },
        {
          "indexed": true,
          "internalType": "address",
          "name": "to",
          "type": "address"
        },
        {
          "indexed": false,
          "internalType": "uint256[]",
          "name": "ids",
          "type": "uint256[]"
        },
        {
          "indexed": false,
          "internalType": "uint256[]",
          "name": "values",
          "type": "uint256[]"
        }
      ],
      "name": "TransferBatch",
      "type": "event"
    },
    {
      "anonymous": false,
      "inputs": [
        {
          "indexed": true,
          "internalType": "address",
          "name": "operator",
          "type": "address"
        },
        {
          "indexed": true,
          "internalType": "address",
          "name": "from",
          "type": "address"
        },
        {
          "indexed": true,
          "internalType": "address",
          "name": "to",
          "type": "address"
        },
        {
          "indexed": false,
          "internalType": "uint256",
          "name": "id",
          "type": "uint256"
        },
        {
          "indexed": false,
          "internalType": "uint256",
          "name": "value",
          "type": "uint256"
        }
      ],
      "name": "TransferSingle",
      "type": "event"
    },
    {
      "anonymous": false,
      "inputs": [
        {
          "indexed": false,
          "internalType": "string",
          "name": "value",
          "type": "string"
        },
        {
          "indexed": true,
          "internalType": "uint256",
          "name": "id",
          "type": "uint256"
        }
      ],
      "name": "URI",
      "type": "event"
    },
    {
      "inputs": [
        {
          "internalType": "address",
          "name": "account",
          "type": "address"
        },
        {
          "internalType": "uint256",
          "name": "id",
          "type": "uint256"
        }
      ],
      "name": "balanceOf",
      "outputs": [
        {
          "internalType": "uint256",
          "name": "",
          "type": "uint256"
        }
      ],
      "stateMutability": "view",
      "type": "function"
    },
    {
      "inputs": [
        {
          "internalType": "address[]",
          "name": "accounts",
          "type": "address[]"
        },
        {
          "internalType": "uint256[]",
          "name": "ids",
          "type": "uint256[]"
        }
      ],
      "name": "balanceOfBatch",
      "outputs": [
        {
          "internalType": "uint256[]",
          "name": "",
          "type": "uint256[]"
        }
      ],
      "stateMutability": "view",
      "type": "function"
    },
    {
      "inputs": [
        {
          "internalType": "address",
          "name": "account",
          "type": "address"
        },
        {
          "internalType": "address",
          "name": "operator",
          "type": "address"
        }
      ],
      "name": "isApprovedForAll",
      "outputs": [
        {
          "internalType": "bool",
          "name": "",
          "type": "bool"
        }
      ],
      "stateMutability": "view",
      "type": "function"
    },
    {
      "inputs": [
        {
          "internalType": "address",
          "name": "_artist",
          "type": "address"
        },
        {
          "internalType": "uint256",
          "name": "_amount",
          "type": "uint256"
        },
        {
          "internalType": "string",
          "name": "_uri",
          "type": "string"
        }
      ],
      "name": "mintArtworkEdition",
      "outputs": [
        {
          "internalType": "uint256",
          "name": "",
          "type": "uint256"
        }
      ],
      "stateMutability": "nonpayable",
      "type": "function"
    },
    {
      "inputs": [],
      "name": "owner",
      "outputs": [
        {
          "internalType": "address",
          "name": "",
          "type": "address"
        }
      ],
      "stateMutability": "view",
      "type": "function"
    },
    {
      "inputs": [],
      "name": "renounceOwnership",
      "outputs": [],
      "stateMutability": "nonpayable",
      "type": "function"
    },
    {
      "inputs": [
        {
          "internalType": "address",
          "name": "from",
          "type": "address"
        },
        {
          "internalType": "address",
          "name": "to",
          "type": "address"
        },
        {
          "internalType": "uint256[]",
          "name": "ids",
          "type": "uint256[]"
        },
        {
          "internalType": "uint256[]",
          "name": "values",
          "type": "uint256[]"
        },
        {
          "internalType": "bytes",
          "name": "data",
          "type": "bytes"
        }
      ],
      "name": "safeBatchTransferFrom",
      "outputs": [],
      "stateMutability": "nonpayable",
      "type": "function"
    },
    {
      "inputs": [
        {
          "internalType": "address",
          "name": "from",
          "type": "address"
        },
        {
          "internalType": "address",
          "name": "to",
          "type": "address"
        },
        {
          "internalType": "uint256",
          "name": "id",
          "type": "uint256"
        },
        {
          "internalType": "uint256",
          "name": "value",
          "type": "uint256"
        },
        {
          "internalType": "bytes",
          "name": "data",
          "type": "bytes"
        }
      ],
      "name": "safeTransferFrom",
      "outputs": [],
      "stateMutability": "nonpayable",
      "type": "function"
    },
    {
      "inputs": [
        {
          "internalType": "address",
          "name": "operator",
          "type": "address"
        },
        {
          "internalType": "bool",
          "name": "approved",
          "type": "bool"
        }
      ],
      "name": "setApprovalForAll",
      "outputs": [],
      "stateMutability": "nonpayable",
      "type": "function"
    },
    {
      "inputs": [
        {
          "internalType": "bytes4",
          "name": "interfaceId",
          "type": "bytes4"
        }
      ],
      "name": "supportsInterface",
      "outputs": [
        {
          "internalType": "bool",
          "name": "",
          "type": "bool"
        }
      ],
      "stateMutability": "view",
      "type": "function"
    },
    {
      "inputs": [
        {
          "internalType": "uint256",
          "name": "",
          "type": "uint256"
        }
      ],
      "name": "tokenArtist",
      "outputs": [
        {
          "internalType": "address",
          "name": "",
          "type": "address"
        }
      ],
      "stateMutability": "view",
      "type": "function"
    },
    {
      "inputs": [
        {
          "internalType": "address",
          "name": "newOwner",
          "type": "address"
        }
      ],
      "name": "transferOwnership",
      "outputs": [],
      "stateMutability": "nonpayable",
      "type": "function"
    },
    {
      "inputs": [
        {
          "internalType": "uint256",
          "name": "tokenId",
          "type": "uint256"
        }
      ],
      "name": "uri",
      "outputs": [
        {
          "internalType": "string",
          "name": "",
          "type": "string"
        }
      ],
      "stateMutability": "view",
      "type": "function"
    }
  ],
  "bytecode": "0x608060405234801561000f575f5ffd5b5060405161180438038061180483398101604081905261002e916100ec565b338161003981610077565b506001600160a01b03811661006757604051631e4fbdf760e01b81525f600482015260240160405180910390fd5b61007081610087565b50506102da565b60026100838282610220565b5050565b600380546001600160a01b038381166001600160a01b0319831681179093556040519116919082907f8be0079c531659141344cd1fd0a4f28419497f9722a3daafe3b4186f6b6457e0905f90a35050565b634e487b7160e01b5f52604160045260245ffd5b5f602082840312156100fc575f5ffd5b81516001600160401b03811115610111575f5ffd5b8201601f81018413610121575f5ffd5b80516001600160401b0381111561013a5761013a6100d8565b604051601f8201601f19908116603f011681016001600160401b0381118282101715610168576101686100d8565b60405281815282820160200186101561017f575f5ffd5b8160208401602083015e5f91810160200191909152949350505050565b600181811c908216806101b057607f821691505b6020821081036101ce57634e487b7160e01b5f52602260045260245ffd5b50919050565b601f82111561021b57805f5260205f20601f840160051c810160208510156101f95750805b601f840160051c820191505b81811015610218575f8155600101610205565b50505b505050565b81516001600160401b03811115610239576102396100d8565b61024d81610247845461019c565b846101d4565b6020601f82116001811461027f575f83156102685750848201515b5f19600385901b1c1916600184901b178455610218565b5f84815260208120601f198516915b828110156102ae578785015182556020948501946001909201910161028e565b50848210156102cb57868401515f19600387901b60f8161c191681555b50505050600190811b01905550565b61151d806102e75f395ff3fe608060405234801561000f575f5ffd5b50600436106100ca575f3560e01c80636f8f89ad11610088578063a22cb46511610063578063a22cb465146101d8578063e985e9c5146101eb578063f242432a146101fe578063f2fde38b14610211575f5ffd5b80636f8f89ad1461017f578063715018a6146101bf5780638da5cb5b146101c7575f5ffd5b8062fdd58e146100ce57806301ffc9a7146100f45780630e89341c14610117578063139a86ce146101375780632eb2c2d61461014a5780634e1273f41461015f575b5f5ffd5b6100e16100dc366004610d75565b610224565b6040519081526020015b60405180910390f35b610107610102366004610db2565b61024b565b60405190151581526020016100eb565b61012a610125366004610dd4565b61029a565b6040516100eb9190610e19565b6100e1610145366004610ec9565b610339565b61015d610158366004610fda565b610470565b005b61017261016d366004611089565b6104dc565b6040516100eb9190611186565b6101a761018d366004610dd4565b60066020525f90815260409020546001600160a01b031681565b6040516001600160a01b0390911681526020016100eb565b61015d6105a7565b6003546001600160a01b03166101a7565b61015d6101e6366004611198565b6105ba565b6101076101f93660046111d1565b6105c9565b61015d61020c366004611202565b6105f6565b61015d61021f366004611256565b610655565b5f818152602081815260408083206001600160a01b03861684529091529020545b92915050565b5f6001600160e01b03198216636cdb3d1360e11b148061027b57506001600160e01b031982166303a24d0760e21b145b8061024557506301ffc9a760e01b6001600160e01b0319831614610245565b5f8181526005602052604090208054606091906102b69061126f565b80601f01602080910402602001604051908101604052809291908181526020018280546102e29061126f565b801561032d5780601f106103045761010080835404028352916020019161032d565b820191905f5260205f20905b81548152906001019060200180831161031057829003601f168201915b50505050509050919050565b5f610342610692565b6001600160a01b0384166103695760405163eabab22f60e01b815260040160405180910390fd5b825f036103895760405163162908e360e11b815260040160405180910390fd5b60288251108061039a575060648251115b156103b8576040516321d094fb60e21b815260040160405180910390fd5b60048054905f6103c7836112bb565b90915550506004545f81815260066020908152604080832080546001600160a01b0319166001600160a01b038a1617905560059091529020610409848261131c565b5061042485828660405180602001604052805f8152506106bf565b80856001600160a01b03167fddef12a5e8624ff93829d6cbe1e6af9a860279e4d9acd3ea7e75a83470a8ab158660405161046091815260200190565b60405180910390a3949350505050565b336001600160a01b0386168114801590610491575061048f86826105c9565b155b156104c75760405163711bec9160e11b81526001600160a01b038083166004830152871660248201526044015b60405180910390fd5b6104d4868686868661071a565b505050505050565b6060815183511461050d5781518351604051635b05999160e01b8152600481019290925260248201526044016104be565b5f835167ffffffffffffffff81111561052857610528610e2b565b604051908082528060200260200182016040528015610551578160200160208202803683370190505b5090505f5b845181101561059f5760208082028601015161057a90602080840287010151610224565b82828151811061058c5761058c6113d7565b6020908102919091010152600101610556565b509392505050565b6105af610692565b6105b85f61077f565b565b6105c53383836107d0565b5050565b6001600160a01b039182165f90815260016020908152604080832093909416825291909152205460ff1690565b336001600160a01b0386168114801590610617575061061586826105c9565b155b156106485760405163711bec9160e11b81526001600160a01b038083166004830152871660248201526044016104be565b6104d48686868686610864565b61065d610692565b6001600160a01b03811661068657604051631e4fbdf760e01b81525f60048201526024016104be565b61068f8161077f565b50565b6003546001600160a01b031633146105b85760405163118cdaa760e01b81523360048201526024016104be565b6001600160a01b0384166106e857604051632bfa23e760e11b81525f60048201526024016104be565b604080516001808252602082018690528183019081526060820185905260808201909252906104d45f878484876108f0565b6001600160a01b03841661074357604051632bfa23e760e11b81525f60048201526024016104be565b6001600160a01b03851661076b57604051626a0d4560e21b81525f60048201526024016104be565b61077885858585856108f0565b5050505050565b600380546001600160a01b038381166001600160a01b0319831681179093556040519116919082907f8be0079c531659141344cd1fd0a4f28419497f9722a3daafe3b4186f6b6457e0905f90a35050565b6001600160a01b0382166107f85760405162ced3e160e81b81525f60048201526024016104be565b6001600160a01b038381165f81815260016020908152604080832094871680845294825291829020805460ff191686151590811790915591519182527f17307eab39ab6107e8899845ad3d59bd9653f200f220920489ca2b5937696c31910160405180910390a3505050565b6001600160a01b03841661088d57604051632bfa23e760e11b81525f60048201526024016104be565b6001600160a01b0385166108b557604051626a0d4560e21b81525f60048201526024016104be565b604080516001808252602082018690528183019081526060820185905260808201909252906108e787878484876108f0565b50505050505050565b6108fc85858585610943565b6001600160a01b038416156107785782513390600103610935576020848101519084015161092e838989858589610b52565b50506104d4565b6104d4818787878787610c73565b80518251146109725781518151604051635b05999160e01b8152600481019290925260248201526044016104be565b335f5b8351811015610a74576020818102858101820151908501909101516001600160a01b03881615610a26575f828152602081815260408083206001600160a01b038c16845290915290205481811015610a00576040516303dee4c560e01b81526001600160a01b038a1660048201526024810182905260448101839052606481018490526084016104be565b5f838152602081815260408083206001600160a01b038d16845290915290209082900390555b6001600160a01b03871615610a6a575f828152602081815260408083206001600160a01b038b16845290915281208054839290610a649084906113eb565b90915550505b5050600101610975565b508251600103610af45760208301515f906020840151909150856001600160a01b0316876001600160a01b0316846001600160a01b03167fc3d58168c5ae7397731d063d5bbf3d657854427343f4c083240f7aacaa2d0f628585604051610ae5929190918252602082015260400190565b60405180910390a45050610778565b836001600160a01b0316856001600160a01b0316826001600160a01b03167f4a39dc06d4c0dbc64b70af90fd698a233a518aa5d07e595d983b8c0526c8f7fb8686604051610b439291906113fe565b60405180910390a45050505050565b6001600160a01b0384163b156104d45760405163f23a6e6160e01b81526001600160a01b0385169063f23a6e6190610b96908990899088908890889060040161142b565b6020604051808303815f875af1925050508015610bd0575060408051601f3d908101601f19168201909252610bcd9181019061146f565b60015b610c37573d808015610bfd576040519150601f19603f3d011682016040523d82523d5f602084013e610c02565b606091505b5080515f03610c2f57604051632bfa23e760e11b81526001600160a01b03861660048201526024016104be565b805160208201fd5b6001600160e01b0319811663f23a6e6160e01b146108e757604051632bfa23e760e11b81526001600160a01b03861660048201526024016104be565b6001600160a01b0384163b156104d45760405163bc197c8160e01b81526001600160a01b0385169063bc197c8190610cb7908990899088908890889060040161148a565b6020604051808303815f875af1925050508015610cf1575060408051601f3d908101601f19168201909252610cee9181019061146f565b60015b610d1e573d808015610bfd576040519150601f19603f3d011682016040523d82523d5f602084013e610c02565b6001600160e01b0319811663bc197c8160e01b146108e757604051632bfa23e760e11b81526001600160a01b03861660048201526024016104be565b80356001600160a01b0381168114610d70575f5ffd5b919050565b5f5f60408385031215610d86575f5ffd5b610d8f83610d5a565b946020939093013593505050565b6001600160e01b03198116811461068f575f5ffd5b5f60208284031215610dc2575f5ffd5b8135610dcd81610d9d565b9392505050565b5f60208284031215610de4575f5ffd5b5035919050565b5f81518084528060208401602086015e5f602082860101526020601f19601f83011685010191505092915050565b602081525f610dcd6020830184610deb565b634e487b7160e01b5f52604160045260245ffd5b604051601f8201601f1916810167ffffffffffffffff81118282101715610e6857610e68610e2b565b604052919050565b5f5f67ffffffffffffffff841115610e8a57610e8a610e2b565b50601f8301601f1916602001610e9f81610e3f565b915050828152838383011115610eb3575f5ffd5b828260208301375f602084830101529392505050565b5f5f5f60608486031215610edb575f5ffd5b610ee484610d5a565b925060208401359150604084013567ffffffffffffffff811115610f06575f5ffd5b8401601f81018613610f16575f5ffd5b610f2586823560208401610e70565b9150509250925092565b5f67ffffffffffffffff821115610f4857610f48610e2b565b5060051b60200190565b5f82601f830112610f61575f5ffd5b8135610f74610f6f82610f2f565b610e3f565b8082825260208201915060208360051b860101925085831115610f95575f5ffd5b602085015b83811015610fb2578035835260209283019201610f9a565b5095945050505050565b5f82601f830112610fcb575f5ffd5b610dcd83833560208501610e70565b5f5f5f5f5f60a08688031215610fee575f5ffd5b610ff786610d5a565b945061100560208701610d5a565b9350604086013567ffffffffffffffff811115611020575f5ffd5b61102c88828901610f52565b935050606086013567ffffffffffffffff811115611048575f5ffd5b61105488828901610f52565b925050608086013567ffffffffffffffff811115611070575f5ffd5b61107c88828901610fbc565b9150509295509295909350565b5f5f6040838503121561109a575f5ffd5b823567ffffffffffffffff8111156110b0575f5ffd5b8301601f810185136110c0575f5ffd5b80356110ce610f6f82610f2f565b8082825260208201915060208360051b8501019250878311156110ef575f5ffd5b6020840193505b828410156111185761110784610d5a565b8252602093840193909101906110f6565b9450505050602083013567ffffffffffffffff811115611136575f5ffd5b61114285828601610f52565b9150509250929050565b5f8151808452602084019350602083015f5b8281101561117c57815186526020958601959091019060010161115e565b5093949350505050565b602081525f610dcd602083018461114c565b5f5f604083850312156111a9575f5ffd5b6111b283610d5a565b9150602083013580151581146111c6575f5ffd5b809150509250929050565b5f5f604083850312156111e2575f5ffd5b6111eb83610d5a565b91506111f960208401610d5a565b90509250929050565b5f5f5f5f5f60a08688031215611216575f5ffd5b61121f86610d5a565b945061122d60208701610d5a565b93506040860135925060608601359150608086013567ffffffffffffffff811115611070575f5ffd5b5f60208284031215611266575f5ffd5b610dcd82610d5a565b600181811c9082168061128357607f821691505b6020821081036112a157634e487b7160e01b5f52602260045260245ffd5b50919050565b634e487b7160e01b5f52601160045260245ffd5b5f600182016112cc576112cc6112a7565b5060010190565b601f82111561131757805f5260205f20601f840160051c810160208510156112f85750805b601f840160051c820191505b81811015610778575f8155600101611304565b505050565b815167ffffffffffffffff81111561133657611336610e2b565b61134a81611344845461126f565b846112d3565b6020601f82116001811461137c575f83156113655750848201515b5f19600385901b1c1916600184901b178455610778565b5f84815260208120601f198516915b828110156113ab578785015182556020948501946001909201910161138b565b50848210156113c857868401515f19600387901b60f8161c191681555b50505050600190811b01905550565b634e487b7160e01b5f52603260045260245ffd5b80820180821115610245576102456112a7565b604081525f611410604083018561114c565b8281036020840152611422818561114c565b95945050505050565b6001600160a01b03868116825285166020820152604081018490526060810183905260a0608082018190525f9061146490830184610deb565b979650505050505050565b5f6020828403121561147f575f5ffd5b8151610dcd81610d9d565b6001600160a01b0386811682528516602082015260a0604082018190525f906114b59083018661114c565b82810360608401526114c7818661114c565b905082810360808401526114db8185610deb565b9897505050505050505056fea2646970667358221220bfd215f2b498363463594c0a57fa2cf7e36b3daf68da6d3eceae68ff65a33c4a64736f6c634300081c0033",
  "linkReferences": {},
  "deployedLinkReferences": {},
  "immutableReferences": {},
  "inputSourceName": "project/contracts/ArtworkTokenization.sol",
  "buildInfoId": "solc-0_8_28-28d318484b650ffd40f46afbfe7b5874d96d1eae"
}