{
  "_format": "hh3-artifact-1",
  "contractName": "ArtworkRegistry",
  "sourceName": "contracts/ArtworkRegistry.sol",
  "abi": [
    {
      "inputs": [
        {
          "internalType": "address",
          "name": "_artworkTokenizationAddress",
          "type": "address"
        }
      ],
      "stateMutability": "nonpayable",
      "type": "constructor"
    },
    {
      "inputs": [],
      "name": "AlreadyAdmin",
      "type": "error"
    },
    {
      "inputs": [],
      "name": "ArtistMustApproveContract",
      "type": "error"
    },
    {
      "inputs": [],
      "name": "ArtistNotAuthorized",
      "type": "error"
    },
    {
      "inputs": [],
      "name": "AuthorizationAlreadyApplied",
      "type": "error"
    },
    {
      "inputs": [],
      "name": "EditionAlreadyDisabled",
      "type": "error"
    },
    {
      "inputs": [],
      "name": "EditionDoesNotExist",
      "type": "error"
    },
    {
      "inputs": [],
      "name": "EditionIsDisabled",
      "type": "error"
    },
    {
      "inputs": [],
      "name": "EditionMustHaveCertificates",
      "type": "error"
    },
    {
      "inputs": [],
      "name": "EditionSizeTooLarge",
      "type": "error"
    },
    {
      "inputs": [],
      "name": "EmptyMerkleRoot",
      "type": "error"
    },
    {
      "inputs": [],
      "name": "InvalidConfigValue",
      "type": "error"
    },
    {
      "inputs": [],
      "name": "InvalidIPFSCID",
      "type": "error"
    },
    {
      "inputs": [],
      "name": "InvalidMerkleProof",
      "type": "error"
    },
    {
      "inputs": [],
      "name": "KeyAlreadyClaimed",
      "type": "error"
    },
    {
      "inputs": [],
      "name": "MetadataLocked",
      "type": "error"
    },
    {
      "inputs": [],
      "name": "NoCertificateLeft",
      "type": "error"
    },
    {
      "inputs": [],
      "name": "NotAllowedToReview",
      "type": "error"
    },
    {
      "inputs": [],
      "name": "NotAnAdmin",
      "type": "error"
    },
    {
      "inputs": [],
      "name": "NotYourEdition",
      "type": "error"
    },
    {
      "inputs": [],
      "name": "OnlyAdminAuthorized",
      "type": "error"
    },
    {
      "inputs": [
        {
          "internalType": "address",
          "name": "owner",
          "type": "address"
        }
      ],
      "name": "OwnableInvalidOwner",
      "type": "error"
    },
    {
      "inputs": [
        {
          "internalType": "address",
          "name": "account",
          "type": "address"
        }
      ],
      "name": "OwnableUnauthorizedAccount",
      "type": "error"
    },
    {
      "inputs": [],
      "name": "QueryLimitTooHigh",
      "type": "error"
    },
    {
      "inputs": [],
      "name": "RatingOutOfRange",
      "type": "error"
    },
    {
      "inputs": [],
      "name": "ReentrancyGuardReentrantCall",
      "type": "error"
    },
    {
      "inputs": [],
      "name": "ReviewLimitReached",
      "type": "error"
    },
    {
      "anonymous": false,
      "inputs": [
        {
          "indexed": true,
          "internalType": "address",
          "name": "admin",
          "type": "address"
        }
      ],
      "name": "AdminRemoved",
      "type": "event"
    },
    {
      "anonymous": false,
      "inputs": [
        {
          "indexed": true,
          "internalType": "address",
          "name": "artist",
          "type": "address"
        }
      ],
      "name": "ArtistInfoUpdated",
      "type": "event"
    },
    {
      "anonymous": false,
      "inputs": [
        {
          "indexed": true,
          "internalType": "address",
          "name": "artist",
          "type": "address"
        },
        {
          "indexed": false,
          "internalType": "bool",
          "name": "isAuthorized",
          "type": "bool"
        }
      ],
      "name": "AuthorizationArtist",
      "type": "event"
    },
    {
      "anonymous": false,
      "inputs": [
        {
          "indexed": true,
          "internalType": "address",
          "name": "collector",
          "type": "address"
        },
        {
          "indexed": true,
          "internalType": "uint256",
          "name": "editionId",
          "type": "uint256"
        }
      ],
      "name": "CertificateClaimed",
      "type": "event"
    },
    {
      "anonymous": false,
      "inputs": [
        {
          "indexed": true,
          "internalType": "uint256",
          "name": "editionId",
          "type": "uint256"
        },
        {
          "indexed": true,
          "internalType": "address",
          "name": "by",
          "type": "address"
        }
      ],
      "name": "EditionDisabled",
      "type": "event"
    },
    {
      "anonymous": false,
      "inputs": [
        {
          "indexed": true,
          "internalType": "uint256",
          "name": "editionId",
          "type": "uint256"
        },
        {
          "indexed": false,
          "internalType": "bytes32",
          "name": "newMerkleRoot",
          "type": "bytes32"
        }
      ],
      "name": "EditionMerkleRootReplaced",
      "type": "event"
    },
    {
      "anonymous": false,
      "inputs": [
        {
          "indexed": true,
          "internalType": "address",
          "name": "artist",
          "type": "address"
        },
        {
          "indexed": true,
          "internalType": "uint256",
          "name": "editionId",
          "type": "uint256"
        },
        {
          "indexed": false,
          "internalType": "string",
          "name": "newMetadata",
          "type": "string"
        }
      ],
      "name": "EditionMetadataUpdated",
      "type": "event"
    },
    {
      "anonymous": false,
      "inputs": [
        {
          "indexed": false,
          "internalType": "uint256",
          "name": "newValue",
          "type": "uint256"
        }
      ],
      "name": "MaxEditionSizeUpdated",
      "type": "event"
    },
    {
      "anonymous": false,
      "inputs": [
        {
          "indexed": false,
          "internalType": "uint256",
          "name": "newValue",
          "type": "uint256"
        }
      ],
      "name": "MaxReviewsPerUserAndEditionUpdated",
      "type": "event"
    },
    {
      "anonymous": false,
      "inputs": [
        {
          "indexed": false,
          "internalType": "uint256",
          "name": "newValue",
          "type": "uint256"
        }
      ],
      "name": "MaxReviewsQueryUpdated",
      "type": "event"
    },
    {
      "anonymous": false,
      "inputs": [
        {
          "indexed": true,
          "internalType": "address",
          "name": "newAdmin",
          "type": "address"
        }
      ],
      "name": "NewAdmin",
      "type": "event"
    },
    {
      "anonymous": false,
      "inputs": [
        {
          "indexed": true,
          "internalType": "address",
          "name": "artist",
          "type": "address"
        },
        {
          "indexed": true,
          "internalType": "uint256",
          "name": "editionId",
          "type": "uint256"
        }
      ],
      "name": "NewArtworkEdition",
      "type": "event"
    },
    {
      "anonymous": false,
      "inputs": [
        {
          "indexed": true,
          "internalType": "address",
          "name": "collector",
          "type": "address"
        },
        {
          "indexed": true,
          "internalType": "uint256",
          "name": "editionId",
          "type": "uint256"
        },
        {
          "indexed": false,
          "internalType": "uint8",
          "name": "rating",
          "type": "uint8"
        }
      ],
      "name": "NewReview",
      "type": "event"
    },
    {
      "anonymous": false,
      "inputs": [
        {
          "indexed": true,
          "internalType": "address",
          "name": "previousOwner",
          "type": "address"
        },
        {
          "indexed": true,
          "internalType": "address",
          "name": "newOwner",
          "type": "address"
        }
      ],
      "name": "OwnershipTransferred",
      "type": "event"
    },
    {
      "inputs": [
        {
          "internalType": "address",
          "name": "_newAdmin",
          "type": "address"
        }
      ],
      "name": "addAdmin",
      "outputs": [],
      "stateMutability": "nonpayable",
      "type": "function"
    },
    {
      "inputs": [
        {
          "internalType": "uint256",
          "name": "_editionId",
          "type": "uint256"
        },
        {
          "internalType": "uint8",
          "name": "_rating",
          "type": "uint8"
        },
        {
          "internalType": "string",
          "name": "_metadata",
          "type": "string"
        }
      ],
      "name": "addReview",
      "outputs": [],
      "stateMutability": "nonpayable",
      "type": "function"
    },
    {
      "inputs": [
        {
          "internalType": "address",
          "name": "",
          "type": "address"
        }
      ],
      "name": "admins",
      "outputs": [
        {
          "internalType": "bool",
          "name": "",
          "type": "bool"
        }
      ],
      "stateMutability": "view",
      "type": "function"
    },
    {
      "inputs": [],
      "name": "artworkTokenization",
      "outputs": [
        {
          "internalType": "contract IArtworkTokenization",
          "name": "",
          "type": "address"
        }
      ],
      "stateMutability": "view",
      "type": "function"
    },
    {
      "inputs": [
        {
          "internalType": "address",
          "name": "_artist",
          "type": "address"
        },
        {
          "internalType": "bool",
          "name": "_isAuthorized",
          "type": "bool"
        }
      ],
      "name": "authorizeArtist",
      "outputs": [],
      "stateMutability": "nonpayable",
      "type": "function"
    },
    {
      "inputs": [
        {
          "internalType": "uint256",
          "name": "_editionId",
          "type": "uint256"
        },
        {
          "internalType": "string",
          "name": "_secretKey",
          "type": "string"
        },
        {
          "internalType": "bytes32[]",
          "name": "_merkleProof",
          "type": "bytes32[]"
        }
      ],
      "name": "claimCertificate",
      "outputs": [],
      "stateMutability": "nonpayable",
      "type": "function"
    },
    {
      "inputs": [
        {
          "internalType": "string",
          "name": "_metadata",
          "type": "string"
        },
        {
          "internalType": "uint256",
          "name": "_amount",
          "type": "uint256"
        },
        {
          "internalType": "bytes32",
          "name": "_merkleRoot",
          "type": "bytes32"
        }
      ],
      "name": "createArtworkEdition",
      "outputs": [],
      "stateMutability": "nonpayable",
      "type": "function"
    },
    {
      "inputs": [
        {
          "internalType": "uint256",
          "name": "_editionId",
          "type": "uint256"
        }
      ],
      "name": "disableEdition",
      "outputs": [],
      "stateMutability": "nonpayable",
      "type": "function"
    },
    {
      "inputs": [
        {
          "internalType": "address",
          "name": "_address",
          "type": "address"
        }
      ],
      "name": "getArtist",
      "outputs": [
        {
          "components": [
            {
              "internalType": "bool",
              "name": "authorized",
              "type": "bool"
            },
            {
              "internalType": "string",
              "name": "metadata",
              "type": "string"
            }
          ],
          "internalType": "struct ArtworkRegistry.Artist",
          "name": "",
          "type": "tuple"
        }
      ],
      "stateMutability": "view",
      "type": "function"
    },
    {
      "inputs": [
        {
          "internalType": "uint256",
          "name": "_id",
          "type": "uint256"
        }
      ],
      "name": "getArtworkEdition",
      "outputs": [
        {
          "internalType": "string",
          "name": "metadata",
          "type": "string"
        },
        {
          "internalType": "bytes32",
          "name": "merkleRoot",
          "type": "bytes32"
        },
        {
          "internalType": "bool",
          "name": "hasBeenClaimed",
          "type": "bool"
        },
        {
          "internalType": "bool",
          "name": "disabled",
          "type": "bool"
        }
      ],
      "stateMutability": "view",
      "type": "function"
    },
    {
      "inputs": [
        {
          "internalType": "uint256",
          "name": "_editionId",
          "type": "uint256"
        },
        {
          "internalType": "uint256",
          "name": "startIndex",
          "type": "uint256"
        },
        {
          "internalType": "uint256",
          "name": "limit",
          "type": "uint256"
        }
      ],
      "name": "getEditionReviews",
      "outputs": [
        {
          "components": [
            {
              "internalType": "address",
              "name": "collector",
              "type": "address"
            },
            {
              "internalType": "uint8",
              "name": "rating",
              "type": "uint8"
            },
            {
              "internalType": "uint256",
              "name": "editionId",
              "type": "uint256"
            },
            {
              "internalType": "string",
              "name": "metadata",
              "type": "string"
            }
          ],
          "internalType": "struct ArtworkRegistry.Review[]",
          "name": "",
          "type": "tuple[]"
        }
      ],
      "stateMutability": "view",
      "type": "function"
    },
    {
      "inputs": [
        {
          "internalType": "uint256",
          "name": "_editionId",
          "type": "uint256"
        }
      ],
      "name": "getEditionReviewsCount",
      "outputs": [
        {
          "internalType": "uint256",
          "name": "",
          "type": "uint256"
        }
      ],
      "stateMutability": "view",
      "type": "function"
    },
    {
      "inputs": [
        {
          "internalType": "address",
          "name": "_address",
          "type": "address"
        }
      ],
      "name": "isAdmin",
      "outputs": [
        {
          "internalType": "bool",
          "name": "",
          "type": "bool"
        }
      ],
      "stateMutability": "view",
      "type": "function"
    },
    {
      "inputs": [
        {
          "internalType": "address",
          "name": "_artist",
          "type": "address"
        }
      ],
      "name": "isArtistApproved",
      "outputs": [
        {
          "internalType": "bool",
          "name": "",
          "type": "bool"
        }
      ],
      "stateMutability": "view",
      "type": "function"
    },
    {
      "inputs": [
        {
          "internalType": "uint256",
          "name": "_editionId",
          "type": "uint256"
        }
      ],
      "name": "isEditionLocked",
      "outputs": [
        {
          "internalType": "bool",
          "name": "",
          "type": "bool"
        }
      ],
      "stateMutability": "view",
      "type": "function"
    },
    {
      "inputs": [
        {
          "internalType": "uint256",
          "name": "_editionId",
          "type": "uint256"
        },
        {
          "internalType": "string",
          "name": "_secretKey",
          "type": "string"
        }
      ],
      "name": "isKeyClaimed",
      "outputs": [
        {
          "internalType": "bool",
          "name": "",
          "type": "bool"
        }
      ],
      "stateMutability": "view",
      "type": "function"
    },
    {
      "inputs": [],
      "name": "maxEditionSize",
      "outputs": [
        {
          "internalType": "uint256",
          "name": "",
          "type": "uint256"
        }
      ],
      "stateMutability": "view",
      "type": "function"
    },
    {
      "inputs": [],
      "name": "maxReviewsPerUserAndEdition",
      "outputs": [
        {
          "internalType": "uint256",
          "name": "",
          "type": "uint256"
        }
      ],
      "stateMutability": "view",
      "type": "function"
    },
    {
      "inputs": [],
      "name": "maxReviewsQuery",
      "outputs": [
        {
          "internalType": "uint256",
          "name": "",
          "type": "uint256"
        }
      ],
      "stateMutability": "view",
      "type": "function"
    },
    {
      "inputs": [],
      "name": "owner",
      "outputs": [
        {
          "internalType": "address",
          "name": "",
          "type": "address"
        }
      ],
      "stateMutability": "view",
      "type": "function"
    },
    {
      "inputs": [
        {
          "internalType": "address",
          "name": "_admin",
          "type": "address"
        }
      ],
      "name": "removeAdmin",
      "outputs": [],
      "stateMutability": "nonpayable",
      "type": "function"
    },
    {
      "inputs": [],
      "name": "renounceOwnership",
      "outputs": [],
      "stateMutability": "nonpayable",
      "type": "function"
    },
    {
      "inputs": [
        {
          "internalType": "uint256",
          "name": "_editionId",
          "type": "uint256"
        },
        {
          "internalType": "bytes32",
          "name": "_newMerkleRoot",
          "type": "bytes32"
        }
      ],
      "name": "replaceEditionMerkleRoot",
      "outputs": [],
      "stateMutability": "nonpayable",
      "type": "function"
    },
    {
      "inputs": [
        {
          "internalType": "uint256",
          "name": "",
          "type": "uint256"
        },
        {
          "internalType": "address",
          "name": "",
          "type": "address"
        }
      ],
      "name": "reviewCount",
      "outputs": [
        {
          "internalType": "uint256",
          "name": "",
          "type": "uint256"
        }
      ],
      "stateMutability": "view",
      "type": "function"
    },
    {
      "inputs": [
        {
          "internalType": "string",
          "name": "_metadata",
          "type": "string"
        }
      ],
      "name": "setArtistInfo",
      "outputs": [],
      "stateMutability": "nonpayable",
      "type": "function"
    },
    {
      "inputs": [
        {
          "internalType": "uint256",
          "name": "_newMaxEditionSize",
          "type": "uint256"
        }
      ],
      "name": "setMaxEditionSize",
      "outputs": [],
      "stateMutability": "nonpayable",
      "type": "function"
    },
    {
      "inputs": [
        {
          "internalType": "uint256",
          "name": "_newMaxReviewsPerUserAndEdition",
          "type": "uint256"
        }
      ],
      "name": "setMaxReviewsPerUserAndEdition",
      "outputs": [],
      "stateMutability": "nonpayable",
      "type": "function"
    },
    {
      "inputs": [
        {
          "internalType": "uint256",
          "name": "_newMaxReviewsQuery",
          "type": "uint256"
        }
      ],
      "name": "setMaxReviewsQuery",
      "outputs": [],
      "stateMutability": "nonpayable",
      "type": "function"
    },
    {
      "inputs": [
        {
          "internalType": "address",
          "name": "newOwner",
          "type": "address"
        }
      ],
      "name": "transferOwnership",
      "outputs": [],
      "stateMutability": "nonpayable",
      "type": "function"
    },
    {
      "inputs": [
        {
          "internalType": "uint256",
          "name": "_editionId",
          "type": "uint256"
        },
        {
          "internalType": "string",
          "name": "_newMetadata",
          "type": "string"
        }
      ],
      "name": "updateEditionMetadata",
      "outputs": [],
      "stateMutability": "nonpayable",
      "type": "function"
    }
  ],
  "bytecode": "0x60a0604052620186a060025560056003556064600455348015610020575f5ffd5b506040516123cd3803806123cd83398101604081905261003f91610117565b338061006457604051631e4fbdf760e01b81525f600482015260240160405180910390fd5b61006d816100c8565b5060018080556001600160a01b038216608052335f81815260086020526040808220805460ff1916909417909355915190917f71614071b88dee5e0b2ae578a9dd7b2ebbe9ae832ba419dc0242cd065a290b6c91a250610144565b5f80546001600160a01b038381166001600160a01b0319831681178455604051919092169283917f8be0079c531659141344cd1fd0a4f28419497f9722a3daafe3b4186f6b6457e09190a35050565b5f60208284031215610127575f5ffd5b81516001600160a01b038116811461013d575f5ffd5b9392505050565b60805161222b6101a25f395f81816101da0152818161065701528181610ab401528181610ce001528181610d7b01528181610f08015281816110c2015281816111fb01528181611353015281816114370152611567015261222b5ff3fe608060405234801561000f575f5ffd5b50600436106101d1575f3560e01c80638294fc63116100fe578063d5fac2841161009e578063f2fde38b1161006e578063f2fde38b14610455578063f9fbd8a614610468578063fc31b99414610487578063fe3010ba1461049a575f5ffd5b8063d5fac28414610409578063dd00f8041461041c578063e47f0e641461042f578063e55e29ae14610442575f5ffd5b8063956b3236116100d9578063956b3236146103995780639bf9adce146103c3578063a6a73892146103d6578063b949c804146103e9575f5ffd5b80638294fc631461036d5780638b2a6afb146103805780638da5cb5b14610389575f5ffd5b80634df637ed11610174578063715018a611610144578063715018a61461032657806374b799af1461032e5780637ae37e4e146103415780637b37ce4f14610364575f5ffd5b80634df637ed146102d657806352b608c1146102e9578063566aac2f146103005780637048027514610313575f5ffd5b80633b3412f2116101af5780633b3412f214610269578063429b62e51461027c57806344d14a851461029e5780634909f98b146102c3575f5ffd5b80630a7c395a146101d55780631785f53c1461021957806324d7806c1461022e575b5f5ffd5b6101fc7f000000000000000000000000000000000000000000000000000000000000000081565b6040516001600160a01b0390911681526020015b60405180910390f35b61022c610227366004611a5f565b6104ba565b005b61025961023c366004611a5f565b6001600160a01b03165f9081526008602052604090205460ff1690565b6040519015158152602001610210565b61022c610277366004611a87565b610542565b61025961028a366004611a5f565b60086020525f908152604090205460ff1681565b6102596102ac366004611abe565b5f9081526006602052604090206001015460ff1690565b61022c6102d1366004611b93565b61060f565b6102596102e4366004611bed565b610874565b6102f260045481565b604051908152602001610210565b61022c61030e366004611abe565b6108bf565b61022c610321366004611a5f565b610923565b61022c6109af565b61022c61033c366004611abe565b6109c2565b61035461034f366004611abe565b610a88565b6040516102109493929190611c5f565b6102f260025481565b61022c61037b366004611c8f565b610b49565b6102f260035481565b5f546001600160a01b03166101fc565b6102f26103a7366004611caf565b600a60209081525f928352604080842090915290825290205481565b61022c6103d1366004611abe565b610c0c565b61022c6103e4366004611cd2565b610c69565b6103fc6103f7366004611a5f565b610f9d565b6040516102109190611db3565b61022c610417366004611de1565b611078565b61022c61042a366004611bed565b6112ba565b61022c61043d366004611abe565b6114e3565b610259610450366004611a5f565b611540565b61022c610463366004611a5f565b6115d2565b6102f2610476366004611abe565b5f9081526007602052604090205490565b61022c610495366004611e2b565b611614565b6104ad6104a8366004611e5d565b6116bf565b6040516102109190611e86565b6104c2611926565b6001600160a01b0381165f9081526008602052604090205460ff166104fa576040516355098f2760e01b815260040160405180910390fd5b6001600160a01b0381165f81815260086020526040808220805460ff19169055517fa3b62bc36326052d97ea62d63c3d60308ed4c3ea8ac079dd8499f1e9c4f80c0f9190a250565b335f9081526008602052604090205460ff1661057157604051630bbee75f60e11b815260040160405180910390fd5b6001600160a01b0382165f9081526005602052604090205481151560ff9091161515036105b157604051639a7d4c4b60e01b815260040160405180910390fd5b6001600160a01b0382165f81815260056020908152604091829020805460ff191685151590811790915591519182527f51d474af3af5acba8610b2ab0f151688924b2181d40898a5c49f7d3572efdee1910160405180910390a25050565b5f8381526006602052604090205461063a5760405163eb49290360e01b815260040160405180910390fd5b604051627eeac760e11b8152336004820152602481018490525f907f00000000000000000000000000000000000000000000000000000000000000006001600160a01b03169062fdd58e90604401602060405180830381865afa1580156106a3573d5f5f3e3d5ffd5b505050506040513d601f19601f820116820180604052508101906106c79190611f20565b116106e557604051635fb99c9960e01b815260040160405180910390fd5b60058260ff16111561070a57604051630e3a750160e41b815260040160405180910390fd5b6003545f848152600a6020908152604080832033845290915290205410610744576040516370ac688560e11b815260040160405180910390fd5b602881511015801561075857506064815111155b610775576040516321d094fb60e21b815260040160405180910390fd5b5f838152600760209081526040808320815160808101835233815260ff8088168286019081529382018981526060830188815284546001818101875595895296909720835160039097020180549551909216600160a01b026001600160a81b03199095166001600160a01b039690961695909517939093178355925190820155915190919060028201906108099082611fba565b5050505f838152600a60209081526040808320338452909152812080549161083083612089565b909155505060405160ff83168152839033907fcda0375a4942a11df7b813db200963b233e46e9ea344aed473ce3eec638ea4899060200160405180910390a3505050565b5f5f8260405160200161088791906120a1565b60408051601f1981840301815291815281516020928301205f87815260098452828120918152925290205460ff169150505b92915050565b6108c7611926565b5f81116108e7576040516310a571d160e31b815260040160405180910390fd5b60028190556040518181527f61fdc62d00c03150f3f0c46ef1b0fa3e0bcce9967640df6ead5d39949e3c4cf8906020015b60405180910390a150565b61092b611926565b6001600160a01b0381165f9081526008602052604090205460ff161561096457604051631c3681a560e11b815260040160405180910390fd5b6001600160a01b0381165f81815260086020526040808220805460ff19166001179055517f71614071b88dee5e0b2ae578a9dd7b2ebbe9ae832ba419dc0242cd065a290b6c9190a250565b6109b7611926565b6109c05f611952565b565b335f9081526008602052604090205460ff166109f157604051630bbee75f60e11b815260040160405180910390fd5b5f8181526006602052604090208054610a1d5760405163eb49290360e01b815260040160405180910390fd5b6001810154610100900460ff1615610a475760405162955a6560e81b815260040160405180910390fd5b60018101805461ff001916610100179055604051339083907f287bea8c09b47c723bdd81674d1e8bee051b2bd925ce4dc854f98f39e8e76efa905f90a35050565b5f8181526006602052604080822090516303a24d0760e21b8152600481018490526060929182918291907f00000000000000000000000000000000000000000000000000000000000000006001600160a01b031690630e89341c906024015f60405180830381865afa158015610b00573d5f5f3e3d5ffd5b505050506040513d5f823e601f3d908101601f19168201604052610b2791908101906120b7565b8154600190920154909791965060ff8082169650610100909104169350915050565b335f9081526008602052604090205460ff16610b7857604051630bbee75f60e11b815260040160405180910390fd5b5f8281526006602052604090208054610ba45760405163eb49290360e01b815260040160405180910390fd5b81610bc2576040516385ac2b9960e01b815260040160405180910390fd5b81815560018101805461ff001916905560405182815283907f57cd09291dc77744c6544fe86b823504e8820df07ba43c291b9ecc7cd41146a59060200160405180910390a2505050565b610c14611926565b5f8111610c34576040516310a571d160e31b815260040160405180910390fd5b60048190556040518181527f1ba3cd944da03e148b1c036b963bea6f6440c5783340608d07d1a57135747f7c90602001610918565b610c716119a1565b5f8381526006602052604090208054610c9d5760405163eb49290360e01b815260040160405180910390fd5b6001810154610100900460ff1615610cc857604051630551275d60e31b815260040160405180910390fd5b604051636f8f89ad60e01b8152600481018590525f907f00000000000000000000000000000000000000000000000000000000000000006001600160a01b031690636f8f89ad90602401602060405180830381865afa158015610d2d573d5f5f3e3d5ffd5b505050506040513d601f19601f82011682018060405250810190610d51919061212c565b604051627eeac760e11b81526001600160a01b038083166004830152602482018890529192505f917f0000000000000000000000000000000000000000000000000000000000000000169062fdd58e90604401602060405180830381865afa158015610dbf573d5f5f3e3d5ffd5b505050506040513d601f19601f82011682018060405250810190610de39190611f20565b90505f8111610e0557604051633d91e3f160e01b815260040160405180910390fd5b5f85604051602001610e1791906120a1565b60408051601f1981840301815291815281516020928301205f8a81526009845282812082825290935291205490915060ff1615610e6757604051634e7f17b160e11b815260040160405180910390fd5b610e7585855f0154836119cb565b610e925760405163582f497d60e11b815260040160405180910390fd5b5f8781526009602090815260408083208484529091528082208054600160ff1991821681179092558782018054909116821790559051637921219560e11b81526001600160a01b038681166004830152336024830152604482018b9052606482019290925260a0608482015260a48101929092527f0000000000000000000000000000000000000000000000000000000000000000169063f242432a9060c4015f604051808303815f87803b158015610f49575f5ffd5b505af1158015610f5b573d5f5f3e3d5ffd5b50506040518992503391507f6129cf1b5cb4d24f2c9bf19b374e058a938d29d81ea5ae0cb8d84c092a032cf1905f90a350505050610f9860018055565b505050565b604080518082019091525f8152606060208201526001600160a01b0382165f908152600560209081526040918290208251808401909352805460ff16151583526001810180549192840191610ff190611f37565b80601f016020809104026020016040519081016040528092919081815260200182805461101d90611f37565b80156110685780601f1061103f57610100808354040283529160200191611068565b820191905f5260205f20905b81548152906001019060200180831161104b57829003601f168201915b5050505050815250509050919050565b335f9081526005602052604090205460ff166110a757604051632f7d4ab160e21b815260040160405180910390fd5b60405163e985e9c560e01b81523360048201523060248201527f00000000000000000000000000000000000000000000000000000000000000006001600160a01b03169063e985e9c590604401602060405180830381865afa15801561110f573d5f5f3e3d5ffd5b505050506040513d601f19601f820116820180604052508101906111339190612147565b61115057604051632f0dd10360e11b815260040160405180910390fd5b602883511015801561116457506064835111155b611181576040516321d094fb60e21b815260040160405180910390fd5b5f82116111a15760405163041b8e8b60e31b815260040160405180910390fd5b6002548211156111c45760405163168ce0ef60e01b815260040160405180910390fd5b806111e2576040516385ac2b9960e01b815260040160405180910390fd5b6040516309cd436760e11b81525f906001600160a01b037f0000000000000000000000000000000000000000000000000000000000000000169063139a86ce9061123490339087908990600401612162565b6020604051808303815f875af1158015611250573d5f5f3e3d5ffd5b505050506040513d601f19601f820116820180604052508101906112749190611f20565b5f81815260066020526040808220858155905192935091839133917fcc0870ecad2de210be4179cb95e10a19ab4e68254575e8652cdaa569fe0b97779190a35050505050565b335f9081526005602052604090205460ff166112e957604051632f7d4ab160e21b815260040160405180910390fd5b5f82815260066020526040902080546113155760405163eb49290360e01b815260040160405180910390fd5b600181015460ff161561133b576040516313ef243160e11b815260040160405180910390fd5b604051636f8f89ad60e01b8152600481018490525f907f00000000000000000000000000000000000000000000000000000000000000006001600160a01b031690636f8f89ad90602401602060405180830381865afa1580156113a0573d5f5f3e3d5ffd5b505050506040513d601f19601f820116820180604052508101906113c4919061212c565b90506001600160a01b03811633146113ef57604051630207726160e61b815260040160405180910390fd5b602883511015801561140357506064835111155b611420576040516321d094fb60e21b815260040160405180910390fd5b6040516316597a9760e11b81526001600160a01b037f00000000000000000000000000000000000000000000000000000000000000001690632cb2f52e9061146e9087908790600401612191565b5f604051808303815f87803b158015611485575f5ffd5b505af1158015611497573d5f5f3e3d5ffd5b5050505083336001600160a01b03167fccc8015d194f311e1bda6fe884601a0f6985c027d9e981f39e8403cb801805aa856040516114d591906121a9565b60405180910390a350505050565b6114eb611926565b5f811161150b576040516310a571d160e31b815260040160405180910390fd5b60038190556040518181527faed7455b82c1a82c33e2e4ea4c43e768c22ae6227078a95020e0a5e101e2fed290602001610918565b60405163e985e9c560e01b81526001600160a01b0382811660048301523060248301525f917f00000000000000000000000000000000000000000000000000000000000000009091169063e985e9c590604401602060405180830381865afa1580156115ae573d5f5f3e3d5ffd5b505050506040513d601f19601f820116820180604052508101906108b99190612147565b6115da611926565b6001600160a01b03811661160857604051631e4fbdf760e01b81525f60048201526024015b60405180910390fd5b61161181611952565b50565b335f9081526005602052604090205460ff1661164357604051632f7d4ab160e21b815260040160405180910390fd5b602881511015801561165757506064815111155b611674576040516321d094fb60e21b815260040160405180910390fd5b335f908152600560205260409020600181016116908382611fba565b5060405133907fd50aeda4ce38e630c9d6059336d35c97d8bf00973f1f901f356d58f4cbeeb4ce905f90a25050565b60606004548211156116e457604051632444a20f60e11b815260040160405180910390fd5b5f8481526007602052604090205480841061174857604080515f808252602082019092529061173f565b604080516080810182525f80825260208083018290529282015260608082015282525f1990920191018161170e5790505b5091505061191f565b5f8161175485876121bb565b116117685761176384866121bb565b61176a565b815b90505f61177786836121ce565b90505f8167ffffffffffffffff81111561179357611793611ad5565b6040519080825280602002602001820160405280156117e257816020015b604080516080810182525f80825260208083018290529282015260608082015282525f199092019101816117b15790505b5090505f5b82811015611918575f898152600760205260409020611806828a6121bb565b81548110611816576118166121e1565b5f91825260209182902060408051608081018252600390930290910180546001600160a01b038116845260ff600160a01b909104169383019390935260018301549082015260028201805491929160608401919061187390611f37565b80601f016020809104026020016040519081016040528092919081815260200182805461189f90611f37565b80156118ea5780601f106118c1576101008083540402835291602001916118ea565b820191905f5260205f20905b8154815290600101906020018083116118cd57829003601f168201915b505050505081525050828281518110611905576119056121e1565b60209081029190910101526001016117e7565b5093505050505b9392505050565b5f546001600160a01b031633146109c05760405163118cdaa760e01b81523360048201526024016115ff565b5f80546001600160a01b038381166001600160a01b0319831681178455604051919092169283917f8be0079c531659141344cd1fd0a4f28419497f9722a3daafe3b4186f6b6457e09190a35050565b6002600154036119c457604051633ee5aeb560e01b815260040160405180910390fd5b6002600155565b5f826119d785846119e0565b14949350505050565b5f81815b8451811015611a1a57611a1082868381518110611a0357611a036121e1565b6020026020010151611a22565b91506001016119e4565b509392505050565b5f818310611a3c575f82815260208490526040902061191f565b505f9182526020526040902090565b6001600160a01b0381168114611611575f5ffd5b5f60208284031215611a6f575f5ffd5b813561191f81611a4b565b8015158114611611575f5ffd5b5f5f60408385031215611a98575f5ffd5b8235611aa381611a4b565b91506020830135611ab381611a7a565b809150509250929050565b5f60208284031215611ace575f5ffd5b5035919050565b634e487b7160e01b5f52604160045260245ffd5b604051601f8201601f1916810167ffffffffffffffff81118282101715611b1257611b12611ad5565b604052919050565b5f67ffffffffffffffff821115611b3357611b33611ad5565b50601f01601f191660200190565b5f82601f830112611b50575f5ffd5b8135611b63611b5e82611b1a565b611ae9565b818152846020838601011115611b77575f5ffd5b816020850160208301375f918101602001919091529392505050565b5f5f5f60608486031215611ba5575f5ffd5b83359250602084013560ff81168114611bbc575f5ffd5b9150604084013567ffffffffffffffff811115611bd7575f5ffd5b611be386828701611b41565b9150509250925092565b5f5f60408385031215611bfe575f5ffd5b82359150602083013567ffffffffffffffff811115611c1b575f5ffd5b611c2785828601611b41565b9150509250929050565b5f81518084528060208401602086015e5f602082860101526020601f19601f83011685010191505092915050565b608081525f611c716080830187611c31565b60208301959095525091151560408301521515606090910152919050565b5f5f60408385031215611ca0575f5ffd5b50508035926020909101359150565b5f5f60408385031215611cc0575f5ffd5b823591506020830135611ab381611a4b565b5f5f5f60608486031215611ce4575f5ffd5b83359250602084013567ffffffffffffffff811115611d01575f5ffd5b611d0d86828701611b41565b925050604084013567ffffffffffffffff811115611d29575f5ffd5b8401601f81018613611d39575f5ffd5b803567ffffffffffffffff811115611d5357611d53611ad5565b8060051b611d6360208201611ae9565b91825260208184018101929081019089841115611d7e575f5ffd5b6020850194505b83851015611da457843580835260209586019590935090910190611d85565b80955050505050509250925092565b602081528151151560208201525f6020830151604080840152611dd96060840182611c31565b949350505050565b5f5f5f60608486031215611df3575f5ffd5b833567ffffffffffffffff811115611e09575f5ffd5b611e1586828701611b41565b9660208601359650604090950135949350505050565b5f60208284031215611e3b575f5ffd5b813567ffffffffffffffff811115611e51575f5ffd5b611dd984828501611b41565b5f5f5f60608486031215611e6f575f5ffd5b505081359360208301359350604090920135919050565b5f602082016020835280845180835260408501915060408160051b8601019250602086015f5b82811015611f1457868503603f19018452815180516001600160a01b0316865260208082015160ff169087015260408082015190870152606090810151608091870182905290611efe90870182611c31565b9550506020938401939190910190600101611eac565b50929695505050505050565b5f60208284031215611f30575f5ffd5b5051919050565b600181811c90821680611f4b57607f821691505b602082108103611f6957634e487b7160e01b5f52602260045260245ffd5b50919050565b601f821115610f9857805f5260205f20601f840160051c81016020851015611f945750805b601f840160051c820191505b81811015611fb3575f8155600101611fa0565b5050505050565b815167ffffffffffffffff811115611fd457611fd4611ad5565b611fe881611fe28454611f37565b84611f6f565b6020601f82116001811461201a575f83156120035750848201515b5f19600385901b1c1916600184901b178455611fb3565b5f84815260208120601f198516915b828110156120495787850151825560209485019460019092019101612029565b508482101561206657868401515f19600387901b60f8161c191681555b50505050600190811b01905550565b634e487b7160e01b5f52601160045260245ffd5b5f6001820161209a5761209a612075565b5060010190565b5f82518060208501845e5f920191825250919050565b5f602082840312156120c7575f5ffd5b815167ffffffffffffffff8111156120dd575f5ffd5b8201601f810184136120ed575f5ffd5b80516120fb611b5e82611b1a565b81815285602083850101111561210f575f5ffd5b8160208401602083015e5f91810160200191909152949350505050565b5f6020828403121561213c575f5ffd5b815161191f81611a4b565b5f60208284031215612157575f5ffd5b815161191f81611a7a565b60018060a01b0384168152826020820152606060408201525f6121886060830184611c31565b95945050505050565b828152604060208201525f611dd96040830184611c31565b602081525f61191f6020830184611c31565b808201808211156108b9576108b9612075565b818103818111156108b9576108b9612075565b634e487b7160e01b5f52603260045260245ffdfea2646970667358221220dea68c43e2b5294428db076c87e1987ff7777452fc2b76926502a6e61dc1115d64736f6c634300081c0033",
  "linkReferences": {},
  "deployedLinkReferences": {},
  "immutableReferences": {
    "1498": [
      {
        "length": 32,
        "start": 474
      },
      {
        "length": 32,
        "start": 1623
      },
      {
        "length": 32,
        "start": 2740
      },
      {
        "length": 32,
        "start": 3296
      },
      {
        "length": 32,
        "start": 3451
      },
      {
        "length": 32,
        "start": 3848
      },
      {
        "length": 32,
        "start": 4290
      },
      {
        "length": 32,
        "start": 4603
      },
      {
        "length": 32,
        "start": 4947
      },
      {
        "length": 32,
        "start": 5175
      },
      {
        "length": 32,
        "start": 5479
      }
    ]
  },
  "inputSourceName": "project/contracts/ArtworkRegistry.sol",
  "buildInfoId": "solc-0_8_28-94d60a8558558c5dfcd993601ac5bfdc9c7e9d33"
}