{
  "_format": "hh3-artifact-1",
  "contractName": "ArtworkRegistry",
  "sourceName": "contracts/ArtworkRegistry.sol",
  "abi": [
    {
      "inputs": [
        {
          "internalType": "address",
          "name": "_artworkTokenizationAddress",
          "type": "address"
        }
      ],
      "stateMutability": "nonpayable",
      "type": "constructor"
    },
    {
      "inputs": [],
      "name": "AlreadyAdmin",
      "type": "error"
    },
    {
      "inputs": [],
      "name": "ArtistMustApproveContract",
      "type": "error"
    },
    {
      "inputs": [],
      "name": "ArtistNotAuthorized",
      "type": "error"
    },
    {
      "inputs": [],
      "name": "AuthorizationAlreadyApplied",
      "type": "error"
    },
    {
      "inputs": [],
      "name": "EditionDoesNotExist",
      "type": "error"
    },
    {
      "inputs": [],
      "name": "EditionMustHaveCertificates",
      "type": "error"
    },
    {
      "inputs": [],
      "name": "EditionSizeTooLarge",
      "type": "error"
    },
    {
      "inputs": [],
      "name": "EmptyMerkleRoot",
      "type": "error"
    },
    {
      "inputs": [],
      "name": "InvalidIPFSCID",
      "type": "error"
    },
    {
      "inputs": [],
      "name": "InvalidMerkleProof",
      "type": "error"
    },
    {
      "inputs": [],
      "name": "KeyAlreadyClaimed",
      "type": "error"
    },
    {
      "inputs": [],
      "name": "MetadataLocked",
      "type": "error"
    },
    {
      "inputs": [],
      "name": "NoCertificateLeft",
      "type": "error"
    },
    {
      "inputs": [],
      "name": "NotAllowedToReview",
      "type": "error"
    },
    {
      "inputs": [],
      "name": "NotAnAdmin",
      "type": "error"
    },
    {
      "inputs": [],
      "name": "NotYourEdition",
      "type": "error"
    },
    {
      "inputs": [],
      "name": "OnlyAdminAuthorized",
      "type": "error"
    },
    {
      "inputs": [
        {
          "internalType": "address",
          "name": "owner",
          "type": "address"
        }
      ],
      "name": "OwnableInvalidOwner",
      "type": "error"
    },
    {
      "inputs": [
        {
          "internalType": "address",
          "name": "account",
          "type": "address"
        }
      ],
      "name": "OwnableUnauthorizedAccount",
      "type": "error"
    },
    {
      "inputs": [],
      "name": "QueryLimitTooHigh",
      "type": "error"
    },
    {
      "inputs": [],
      "name": "RatingOutOfRange",
      "type": "error"
    },
    {
      "inputs": [],
      "name": "ReentrancyGuardReentrantCall",
      "type": "error"
    },
    {
      "inputs": [],
      "name": "ReviewLimitReached",
      "type": "error"
    },
    {
      "anonymous": false,
      "inputs": [
        {
          "indexed": true,
          "internalType": "address",
          "name": "admin",
          "type": "address"
        }
      ],
      "name": "AdminRemoved",
      "type": "event"
    },
    {
      "anonymous": false,
      "inputs": [
        {
          "indexed": true,
          "internalType": "address",
          "name": "artist",
          "type": "address"
        }
      ],
      "name": "ArtistInfoUpdated",
      "type": "event"
    },
    {
      "anonymous": false,
      "inputs": [
        {
          "indexed": true,
          "internalType": "address",
          "name": "artist",
          "type": "address"
        },
        {
          "indexed": false,
          "internalType": "bool",
          "name": "isAuthorized",
          "type": "bool"
        }
      ],
      "name": "AuthorizationArtist",
      "type": "event"
    },
    {
      "anonymous": false,
      "inputs": [
        {
          "indexed": true,
          "internalType": "address",
          "name": "collector",
          "type": "address"
        },
        {
          "indexed": true,
          "internalType": "uint256",
          "name": "editionId",
          "type": "uint256"
        }
      ],
      "name": "CertificateClaimed",
      "type": "event"
    },
    {
      "anonymous": false,
      "inputs": [
        {
          "indexed": true,
          "internalType": "address",
          "name": "artist",
          "type": "address"
        },
        {
          "indexed": true,
          "internalType": "uint256",
          "name": "editionId",
          "type": "uint256"
        },
        {
          "indexed": false,
          "internalType": "string",
          "name": "newMetadata",
          "type": "string"
        }
      ],
      "name": "EditionMetadataUpdated",
      "type": "event"
    },
    {
      "anonymous": false,
      "inputs": [
        {
          "indexed": true,
          "internalType": "address",
          "name": "newAdmin",
          "type": "address"
        }
      ],
      "name": "NewAdmin",
      "type": "event"
    },
    {
      "anonymous": false,
      "inputs": [
        {
          "indexed": true,
          "internalType": "address",
          "name": "artist",
          "type": "address"
        },
        {
          "indexed": true,
          "internalType": "uint256",
          "name": "editionId",
          "type": "uint256"
        }
      ],
      "name": "NewArtworkEdition",
      "type": "event"
    },
    {
      "anonymous": false,
      "inputs": [
        {
          "indexed": true,
          "internalType": "address",
          "name": "collector",
          "type": "address"
        },
        {
          "indexed": true,
          "internalType": "uint256",
          "name": "editionId",
          "type": "uint256"
        },
        {
          "indexed": false,
          "internalType": "uint8",
          "name": "rating",
          "type": "uint8"
        }
      ],
      "name": "NewReview",
      "type": "event"
    },
    {
      "anonymous": false,
      "inputs": [
        {
          "indexed": true,
          "internalType": "address",
          "name": "previousOwner",
          "type": "address"
        },
        {
          "indexed": true,
          "internalType": "address",
          "name": "newOwner",
          "type": "address"
        }
      ],
      "name": "OwnershipTransferred",
      "type": "event"
    },
    {
      "inputs": [],
      "name": "MAX_EDITION_SIZE",
      "outputs": [
        {
          "internalType": "uint256",
          "name": "",
          "type": "uint256"
        }
      ],
      "stateMutability": "view",
      "type": "function"
    },
    {
      "inputs": [],
      "name": "MAX_REVIEWS_PER_USER",
      "outputs": [
        {
          "internalType": "uint256",
          "name": "",
          "type": "uint256"
        }
      ],
      "stateMutability": "view",
      "type": "function"
    },
    {
      "inputs": [],
      "name": "MAX_REVIEWS_QUERY",
      "outputs": [
        {
          "internalType": "uint256",
          "name": "",
          "type": "uint256"
        }
      ],
      "stateMutability": "view",
      "type": "function"
    },
    {
      "inputs": [
        {
          "internalType": "address",
          "name": "_newAdmin",
          "type": "address"
        }
      ],
      "name": "addAdmin",
      "outputs": [],
      "stateMutability": "nonpayable",
      "type": "function"
    },
    {
      "inputs": [
        {
          "internalType": "uint256",
          "name": "_editionId",
          "type": "uint256"
        },
        {
          "internalType": "uint8",
          "name": "_rating",
          "type": "uint8"
        },
        {
          "internalType": "string",
          "name": "_metadata",
          "type": "string"
        }
      ],
      "name": "addReview",
      "outputs": [],
      "stateMutability": "nonpayable",
      "type": "function"
    },
    {
      "inputs": [
        {
          "internalType": "address",
          "name": "",
          "type": "address"
        }
      ],
      "name": "admins",
      "outputs": [
        {
          "internalType": "bool",
          "name": "",
          "type": "bool"
        }
      ],
      "stateMutability": "view",
      "type": "function"
    },
    {
      "inputs": [],
      "name": "artworkTokenization",
      "outputs": [
        {
          "internalType": "contract IArtworkTokenization",
          "name": "",
          "type": "address"
        }
      ],
      "stateMutability": "view",
      "type": "function"
    },
    {
      "inputs": [
        {
          "internalType": "address",
          "name": "_artist",
          "type": "address"
        },
        {
          "internalType": "bool",
          "name": "_isAuthorized",
          "type": "bool"
        }
      ],
      "name": "authorizeArtist",
      "outputs": [],
      "stateMutability": "nonpayable",
      "type": "function"
    },
    {
      "inputs": [
        {
          "internalType": "uint256",
          "name": "_editionId",
          "type": "uint256"
        },
        {
          "internalType": "string",
          "name": "_secretKey",
          "type": "string"
        },
        {
          "internalType": "bytes32[]",
          "name": "_merkleProof",
          "type": "bytes32[]"
        }
      ],
      "name": "claimCertificate",
      "outputs": [],
      "stateMutability": "nonpayable",
      "type": "function"
    },
    {
      "inputs": [
        {
          "internalType": "string",
          "name": "_metadata",
          "type": "string"
        },
        {
          "internalType": "uint256",
          "name": "_amount",
          "type": "uint256"
        },
        {
          "internalType": "bytes32",
          "name": "_merkleRoot",
          "type": "bytes32"
        }
      ],
      "name": "createArtworkEdition",
      "outputs": [],
      "stateMutability": "nonpayable",
      "type": "function"
    },
    {
      "inputs": [
        {
          "internalType": "address",
          "name": "_address",
          "type": "address"
        }
      ],
      "name": "getArtist",
      "outputs": [
        {
          "components": [
            {
              "internalType": "bool",
              "name": "authorized",
              "type": "bool"
            },
            {
              "internalType": "string",
              "name": "metadata",
              "type": "string"
            }
          ],
          "internalType": "struct ArtworkRegistry.Artist",
          "name": "",
          "type": "tuple"
        }
      ],
      "stateMutability": "view",
      "type": "function"
    },
    {
      "inputs": [
        {
          "internalType": "uint256",
          "name": "_id",
          "type": "uint256"
        }
      ],
      "name": "getArtworkEdition",
      "outputs": [
        {
          "components": [
            {
              "internalType": "string",
              "name": "metadata",
              "type": "string"
            },
            {
              "internalType": "bytes32",
              "name": "merkleRoot",
              "type": "bytes32"
            },
            {
              "internalType": "bool",
              "name": "hasBeenClaimed",
              "type": "bool"
            }
          ],
          "internalType": "struct ArtworkRegistry.ArtworkEdition",
          "name": "",
          "type": "tuple"
        }
      ],
      "stateMutability": "view",
      "type": "function"
    },
    {
      "inputs": [
        {
          "internalType": "uint256",
          "name": "_editionId",
          "type": "uint256"
        },
        {
          "internalType": "uint256",
          "name": "startIndex",
          "type": "uint256"
        },
        {
          "internalType": "uint256",
          "name": "limit",
          "type": "uint256"
        }
      ],
      "name": "getEditionReviews",
      "outputs": [
        {
          "components": [
            {
              "internalType": "address",
              "name": "collector",
              "type": "address"
            },
            {
              "internalType": "uint256",
              "name": "editionId",
              "type": "uint256"
            },
            {
              "internalType": "uint8",
              "name": "rating",
              "type": "uint8"
            },
            {
              "internalType": "string",
              "name": "metadata",
              "type": "string"
            }
          ],
          "internalType": "struct ArtworkRegistry.Review[]",
          "name": "",
          "type": "tuple[]"
        }
      ],
      "stateMutability": "view",
      "type": "function"
    },
    {
      "inputs": [
        {
          "internalType": "uint256",
          "name": "_editionId",
          "type": "uint256"
        }
      ],
      "name": "getEditionReviewsCount",
      "outputs": [
        {
          "internalType": "uint256",
          "name": "",
          "type": "uint256"
        }
      ],
      "stateMutability": "view",
      "type": "function"
    },
    {
      "inputs": [
        {
          "internalType": "address",
          "name": "_address",
          "type": "address"
        }
      ],
      "name": "isAdmin",
      "outputs": [
        {
          "internalType": "bool",
          "name": "",
          "type": "bool"
        }
      ],
      "stateMutability": "view",
      "type": "function"
    },
    {
      "inputs": [
        {
          "internalType": "address",
          "name": "_artist",
          "type": "address"
        }
      ],
      "name": "isArtistApproved",
      "outputs": [
        {
          "internalType": "bool",
          "name": "",
          "type": "bool"
        }
      ],
      "stateMutability": "view",
      "type": "function"
    },
    {
      "inputs": [
        {
          "internalType": "uint256",
          "name": "_editionId",
          "type": "uint256"
        }
      ],
      "name": "isEditionLocked",
      "outputs": [
        {
          "internalType": "bool",
          "name": "",
          "type": "bool"
        }
      ],
      "stateMutability": "view",
      "type": "function"
    },
    {
      "inputs": [
        {
          "internalType": "uint256",
          "name": "_editionId",
          "type": "uint256"
        },
        {
          "internalType": "string",
          "name": "_secretKey",
          "type": "string"
        }
      ],
      "name": "isKeyClaimed",
      "outputs": [
        {
          "internalType": "bool",
          "name": "",
          "type": "bool"
        }
      ],
      "stateMutability": "view",
      "type": "function"
    },
    {
      "inputs": [],
      "name": "owner",
      "outputs": [
        {
          "internalType": "address",
          "name": "",
          "type": "address"
        }
      ],
      "stateMutability": "view",
      "type": "function"
    },
    {
      "inputs": [
        {
          "internalType": "address",
          "name": "_admin",
          "type": "address"
        }
      ],
      "name": "removeAdmin",
      "outputs": [],
      "stateMutability": "nonpayable",
      "type": "function"
    },
    {
      "inputs": [],
      "name": "renounceOwnership",
      "outputs": [],
      "stateMutability": "nonpayable",
      "type": "function"
    },
    {
      "inputs": [
        {
          "internalType": "uint256",
          "name": "",
          "type": "uint256"
        },
        {
          "internalType": "address",
          "name": "",
          "type": "address"
        }
      ],
      "name": "reviewCount",
      "outputs": [
        {
          "internalType": "uint256",
          "name": "",
          "type": "uint256"
        }
      ],
      "stateMutability": "view",
      "type": "function"
    },
    {
      "inputs": [
        {
          "internalType": "string",
          "name": "_metadata",
          "type": "string"
        }
      ],
      "name": "setArtistInfo",
      "outputs": [],
      "stateMutability": "nonpayable",
      "type": "function"
    },
    {
      "inputs": [
        {
          "internalType": "address",
          "name": "newOwner",
          "type": "address"
        }
      ],
      "name": "transferOwnership",
      "outputs": [],
      "stateMutability": "nonpayable",
      "type": "function"
    },
    {
      "inputs": [
        {
          "internalType": "uint256",
          "name": "_editionId",
          "type": "uint256"
        },
        {
          "internalType": "string",
          "name": "_newMetadata",
          "type": "string"
        }
      ],
      "name": "updateEditionMetadata",
      "outputs": [],
      "stateMutability": "nonpayable",
      "type": "function"
    }
  ],
  "bytecode": "0x60a060405234801561000f575f5ffd5b50604051611f10380380611f1083398101604081905261002e91610106565b338061005357604051631e4fbdf760e01b81525f600482015260240160405180910390fd5b61005c816100b7565b5060018080556001600160a01b038216608052335f81815260056020526040808220805460ff1916909417909355915190917f71614071b88dee5e0b2ae578a9dd7b2ebbe9ae832ba419dc0242cd065a290b6c91a250610133565b5f80546001600160a01b038381166001600160a01b0319831681178455604051919092169283917f8be0079c531659141344cd1fd0a4f28419497f9722a3daafe3b4186f6b6457e09190a35050565b5f60208284031215610116575f5ffd5b81516001600160a01b038116811461012c575f5ffd5b9392505050565b608051611d8d6101835f395f818161017601528181610565015281816109aa01528181610a4501528181610bd401528181610d8e01528181610ec801528181611033015261117b0152611d8d5ff3fe608060405234801561000f575f5ffd5b506004361061016d575f3560e01c80637ae37e4e116100d9578063dd00f80411610093578063f9fbd8a61161006e578063f9fbd8a614610399578063fc31b994146103b8578063fe3010ba146103cb578063fec05e01146103eb575f5ffd5b8063dd00f80414610360578063e55e29ae14610373578063f2fde38b14610386575f5ffd5b80637ae37e4e146102c05780638da5cb5b146102e0578063956b3236146102f0578063a6a738921461031a578063b949c8041461032d578063d5fac2841461034d575f5ffd5b80634909f98b1161012a5780634909f98b1461025f5780634df637ed1461027257806350027063146102855780636c5e845a1461029b57806370480275146102a5578063715018a6146102b8575f5ffd5b80630a7c395a146101715780631785f53c146101b557806324d7806c146101ca5780633b3412f214610205578063429b62e51461021857806344d14a851461023a575b5f5ffd5b6101987f000000000000000000000000000000000000000000000000000000000000000081565b6040516001600160a01b0390911681526020015b60405180910390f35b6101c86101c336600461166e565b6103f3565b005b6101f56101d836600461166e565b6001600160a01b03165f9081526005602052604090205460ff1690565b60405190151581526020016101ac565b6101c8610213366004611696565b61047b565b6101f561022636600461166e565b60056020525f908152604090205460ff1681565b6101f56102483660046116cd565b5f9081526003602052604090206002015460ff1690565b6101c861026d366004611795565b610548565b6101f56102803660046117ef565b610786565b61028d606481565b6040519081526020016101ac565b61028d620186a081565b6101c86102b336600461166e565b6107d1565b6101c861085d565b6102d36102ce3660046116cd565b610870565b6040516101ac9190611861565b5f546001600160a01b0316610198565b61028d6102fe36600461189e565b600760209081525f928352604080842090915290825290205481565b6101c86103283660046118c1565b61095b565b61034061033b36600461166e565b610c69565b6040516101ac91906119a2565b6101c861035b3660046119d0565b610d44565b6101c861036e3660046117ef565b610f97565b6101f561038136600461166e565b611154565b6101c861039436600461166e565b6111e6565b61028d6103a73660046116cd565b5f9081526004602052604090205490565b6101c86103c6366004611a1a565b611228565b6103de6103d9366004611a4c565b6112d3565b6040516101ac9190611a75565b61028d600281565b6103fb611535565b6001600160a01b0381165f9081526005602052604090205460ff16610433576040516355098f2760e01b815260040160405180910390fd5b6001600160a01b0381165f81815260056020526040808220805460ff19169055517fa3b62bc36326052d97ea62d63c3d60308ed4c3ea8ac079dd8499f1e9c4f80c0f9190a250565b335f9081526005602052604090205460ff166104aa57604051630bbee75f60e11b815260040160405180910390fd5b6001600160a01b0382165f9081526002602052604090205481151560ff9091161515036104ea57604051639a7d4c4b60e01b815260040160405180910390fd5b6001600160a01b0382165f81815260026020908152604091829020805460ff191685151590811790915591519182527f51d474af3af5acba8610b2ab0f151688924b2181d40898a5c49f7d3572efdee1910160405180910390a25050565b604051627eeac760e11b8152336004820152602481018490525f907f00000000000000000000000000000000000000000000000000000000000000006001600160a01b03169062fdd58e90604401602060405180830381865afa1580156105b1573d5f5f3e3d5ffd5b505050506040513d601f19601f820116820180604052508101906105d59190611b0f565b116105f357604051635fb99c9960e01b815260040160405180910390fd5b60058260ff16111561061857604051630e3a750160e41b815260040160405180910390fd5b5f838152600760209081526040808320338452909152902054600211610651576040516370ac688560e11b815260040160405180910390fd5b602881511015801561066557506064815111155b610682576040516321d094fb60e21b815260040160405180910390fd5b5f838152600460208181526040808420815160808101835233815280840189815260ff89811694830194855260608301898152845460018082018755958a529690982083519690970290960180546001600160a01b0319166001600160a01b039096169590951785555191840191909155905160028301805460ff191691909416179092559151909190600382019061071b9082611ba9565b5050505f838152600760209081526040808320338452909152812080549161074283611c78565b909155505060405160ff83168152839033907fcda0375a4942a11df7b813db200963b233e46e9ea344aed473ce3eec638ea4899060200160405180910390a3505050565b5f5f826040516020016107999190611c90565b60408051601f1981840301815291815281516020928301205f87815260068452828120918152925290205460ff169150505b92915050565b6107d9611535565b6001600160a01b0381165f9081526005602052604090205460ff161561081257604051631c3681a560e11b815260040160405180910390fd5b6001600160a01b0381165f81815260056020526040808220805460ff19166001179055517f71614071b88dee5e0b2ae578a9dd7b2ebbe9ae832ba419dc0242cd065a290b6c9190a250565b610865611535565b61086e5f611561565b565b6108946040518060600160405280606081526020015f81526020015f151581525090565b5f82815260036020526040908190208151606081019092528054829082906108bb90611b26565b80601f01602080910402602001604051908101604052809291908181526020018280546108e790611b26565b80156109325780601f1061090957610100808354040283529160200191610932565b820191905f5260205f20905b81548152906001019060200180831161091557829003601f168201915b50505091835250506001820154602082015260029091015460ff16151560409091015292915050565b6109636115b0565b5f83815260036020526040902060018101546109925760405163eb49290360e01b815260040160405180910390fd5b604051636f8f89ad60e01b8152600481018590525f907f00000000000000000000000000000000000000000000000000000000000000006001600160a01b031690636f8f89ad90602401602060405180830381865afa1580156109f7573d5f5f3e3d5ffd5b505050506040513d601f19601f82011682018060405250810190610a1b9190611ca6565b604051627eeac760e11b81526001600160a01b038083166004830152602482018890529192505f917f0000000000000000000000000000000000000000000000000000000000000000169062fdd58e90604401602060405180830381865afa158015610a89573d5f5f3e3d5ffd5b505050506040513d601f19601f82011682018060405250810190610aad9190611b0f565b90505f8111610acf57604051633d91e3f160e01b815260040160405180910390fd5b5f85604051602001610ae19190611c90565b60408051601f1981840301815291815281516020928301205f8a81526006845282812082825290935291205490915060ff1615610b3157604051634e7f17b160e11b815260040160405180910390fd5b610b40858560010154836115da565b610b5d5760405163582f497d60e11b815260040160405180910390fd5b5f8781526006602090815260408083208484529091528082208054600160ff199182168117909255600288018054909116821790559051637921219560e11b81526001600160a01b038681166004830152336024830152604482018b9052606482019290925260a0608482015260a48101929092527f0000000000000000000000000000000000000000000000000000000000000000169063f242432a9060c4015f604051808303815f87803b158015610c15575f5ffd5b505af1158015610c27573d5f5f3e3d5ffd5b50506040518992503391507f6129cf1b5cb4d24f2c9bf19b374e058a938d29d81ea5ae0cb8d84c092a032cf1905f90a350505050610c6460018055565b505050565b604080518082019091525f8152606060208201526001600160a01b0382165f908152600260209081526040918290208251808401909352805460ff16151583526001810180549192840191610cbd90611b26565b80601f0160208091040260200160405190810160405280929190818152602001828054610ce990611b26565b8015610d345780601f10610d0b57610100808354040283529160200191610d34565b820191905f5260205f20905b815481529060010190602001808311610d1757829003601f168201915b5050505050815250509050919050565b335f9081526002602052604090205460ff16610d7357604051632f7d4ab160e21b815260040160405180910390fd5b60405163e985e9c560e01b81523360048201523060248201527f00000000000000000000000000000000000000000000000000000000000000006001600160a01b03169063e985e9c590604401602060405180830381865afa158015610ddb573d5f5f3e3d5ffd5b505050506040513d601f19601f82011682018060405250810190610dff9190611cc1565b610e1c57604051632f0dd10360e11b815260040160405180910390fd5b6028835110158015610e3057506064835111155b610e4d576040516321d094fb60e21b815260040160405180910390fd5b5f8211610e6d5760405163041b8e8b60e31b815260040160405180910390fd5b620186a0821115610e915760405163168ce0ef60e01b815260040160405180910390fd5b80610eaf576040516385ac2b9960e01b815260040160405180910390fd5b6040516309cd436760e11b81525f906001600160a01b037f0000000000000000000000000000000000000000000000000000000000000000169063139a86ce90610f0190339087908990600401611cdc565b6020604051808303815f875af1158015610f1d573d5f5f3e3d5ffd5b505050506040513d601f19601f82011682018060405250810190610f419190611b0f565b5f81815260036020526040902090915080610f5c8682611ba9565b5060018101839055604051829033907fcc0870ecad2de210be4179cb95e10a19ab4e68254575e8652cdaa569fe0b9777905f90a35050505050565b335f9081526002602052604090205460ff16610fc657604051632f7d4ab160e21b815260040160405180910390fd5b5f8281526003602052604090206001810154610ff55760405163eb49290360e01b815260040160405180910390fd5b600281015460ff161561101b576040516313ef243160e11b815260040160405180910390fd5b604051636f8f89ad60e01b8152600481018490525f907f00000000000000000000000000000000000000000000000000000000000000006001600160a01b031690636f8f89ad90602401602060405180830381865afa158015611080573d5f5f3e3d5ffd5b505050506040513d601f19601f820116820180604052508101906110a49190611ca6565b90506001600160a01b03811633146110cf57604051630207726160e61b815260040160405180910390fd5b60288351101580156110e357506064835111155b611100576040516321d094fb60e21b815260040160405180910390fd5b8161110b8482611ba9565b5083336001600160a01b03167fccc8015d194f311e1bda6fe884601a0f6985c027d9e981f39e8403cb801805aa856040516111469190611d0b565b60405180910390a350505050565b60405163e985e9c560e01b81526001600160a01b0382811660048301523060248301525f917f00000000000000000000000000000000000000000000000000000000000000009091169063e985e9c590604401602060405180830381865afa1580156111c2573d5f5f3e3d5ffd5b505050506040513d601f19601f820116820180604052508101906107cb9190611cc1565b6111ee611535565b6001600160a01b03811661121c57604051631e4fbdf760e01b81525f60048201526024015b60405180910390fd5b61122581611561565b50565b335f9081526002602052604090205460ff1661125757604051632f7d4ab160e21b815260040160405180910390fd5b602881511015801561126b57506064815111155b611288576040516321d094fb60e21b815260040160405180910390fd5b335f908152600260205260409020600181016112a48382611ba9565b5060405133907fd50aeda4ce38e630c9d6059336d35c97d8bf00973f1f901f356d58f4cbeeb4ce905f90a25050565b606060648211156112f757604051632444a20f60e11b815260040160405180910390fd5b5f8481526004602052604090205480841061135b57604080515f8082526020820190925290611352565b604080516080810182525f80825260208083018290529282015260608082015282525f199092019101816113215790505b5091505061152e565b5f816113678587611d1d565b1161137b576113768486611d1d565b61137d565b815b90505f61138a8683611d30565b90505f8167ffffffffffffffff8111156113a6576113a66116e4565b6040519080825280602002602001820160405280156113f557816020015b604080516080810182525f80825260208083018290529282015260608082015282525f199092019101816113c45790505b5090505f5b82811015611527575f898152600460205260409020611419828a611d1d565b8154811061142957611429611d43565b5f91825260209182902060408051608081018252600490930290910180546001600160a01b03168352600181015493830193909352600283015460ff169082015260038201805491929160608401919061148290611b26565b80601f01602080910402602001604051908101604052809291908181526020018280546114ae90611b26565b80156114f95780601f106114d0576101008083540402835291602001916114f9565b820191905f5260205f20905b8154815290600101906020018083116114dc57829003601f168201915b50505050508152505082828151811061151457611514611d43565b60209081029190910101526001016113fa565b5093505050505b9392505050565b5f546001600160a01b0316331461086e5760405163118cdaa760e01b8152336004820152602401611213565b5f80546001600160a01b038381166001600160a01b0319831681178455604051919092169283917f8be0079c531659141344cd1fd0a4f28419497f9722a3daafe3b4186f6b6457e09190a35050565b6002600154036115d357604051633ee5aeb560e01b815260040160405180910390fd5b6002600155565b5f826115e685846115ef565b14949350505050565b5f81815b84518110156116295761161f8286838151811061161257611612611d43565b6020026020010151611631565b91506001016115f3565b509392505050565b5f81831061164b575f82815260208490526040902061152e565b505f9182526020526040902090565b6001600160a01b0381168114611225575f5ffd5b5f6020828403121561167e575f5ffd5b813561152e8161165a565b8015158114611225575f5ffd5b5f5f604083850312156116a7575f5ffd5b82356116b28161165a565b915060208301356116c281611689565b809150509250929050565b5f602082840312156116dd575f5ffd5b5035919050565b634e487b7160e01b5f52604160045260245ffd5b604051601f8201601f1916810167ffffffffffffffff81118282101715611721576117216116e4565b604052919050565b5f82601f830112611738575f5ffd5b813567ffffffffffffffff811115611752576117526116e4565b611765601f8201601f19166020016116f8565b818152846020838601011115611779575f5ffd5b816020850160208301375f918101602001919091529392505050565b5f5f5f606084860312156117a7575f5ffd5b83359250602084013560ff811681146117be575f5ffd5b9150604084013567ffffffffffffffff8111156117d9575f5ffd5b6117e586828701611729565b9150509250925092565b5f5f60408385031215611800575f5ffd5b82359150602083013567ffffffffffffffff81111561181d575f5ffd5b61182985828601611729565b9150509250929050565b5f81518084528060208401602086015e5f602082860101526020601f19601f83011685010191505092915050565b602081525f82516060602084015261187c6080840182611833565b9050602084015160408401526040840151151560608401528091505092915050565b5f5f604083850312156118af575f5ffd5b8235915060208301356116c28161165a565b5f5f5f606084860312156118d3575f5ffd5b83359250602084013567ffffffffffffffff8111156118f0575f5ffd5b6118fc86828701611729565b925050604084013567ffffffffffffffff811115611918575f5ffd5b8401601f81018613611928575f5ffd5b803567ffffffffffffffff811115611942576119426116e4565b8060051b611952602082016116f8565b9182526020818401810192908101908984111561196d575f5ffd5b6020850194505b8385101561199357843580835260209586019590935090910190611974565b80955050505050509250925092565b602081528151151560208201525f60208301516040808401526119c86060840182611833565b949350505050565b5f5f5f606084860312156119e2575f5ffd5b833567ffffffffffffffff8111156119f8575f5ffd5b611a0486828701611729565b9660208601359650604090950135949350505050565b5f60208284031215611a2a575f5ffd5b813567ffffffffffffffff811115611a40575f5ffd5b6119c884828501611729565b5f5f5f60608486031215611a5e575f5ffd5b505081359360208301359350604090920135919050565b5f602082016020835280845180835260408501915060408160051b8601019250602086015f5b82811015611b0357868503603f19018452815180516001600160a01b031686526020808201519087015260408082015160ff1690870152606090810151608091870182905290611aed90870182611833565b9550506020938401939190910190600101611a9b565b50929695505050505050565b5f60208284031215611b1f575f5ffd5b5051919050565b600181811c90821680611b3a57607f821691505b602082108103611b5857634e487b7160e01b5f52602260045260245ffd5b50919050565b601f821115610c6457805f5260205f20601f840160051c81016020851015611b835750805b601f840160051c820191505b81811015611ba2575f8155600101611b8f565b5050505050565b815167ffffffffffffffff811115611bc357611bc36116e4565b611bd781611bd18454611b26565b84611b5e565b6020601f821160018114611c09575f8315611bf25750848201515b5f19600385901b1c1916600184901b178455611ba2565b5f84815260208120601f198516915b82811015611c385787850151825560209485019460019092019101611c18565b5084821015611c5557868401515f19600387901b60f8161c191681555b50505050600190811b01905550565b634e487b7160e01b5f52601160045260245ffd5b5f60018201611c8957611c89611c64565b5060010190565b5f82518060208501845e5f920191825250919050565b5f60208284031215611cb6575f5ffd5b815161152e8161165a565b5f60208284031215611cd1575f5ffd5b815161152e81611689565b60018060a01b0384168152826020820152606060408201525f611d026060830184611833565b95945050505050565b602081525f61152e6020830184611833565b808201808211156107cb576107cb611c64565b818103818111156107cb576107cb611c64565b634e487b7160e01b5f52603260045260245ffdfea26469706673582212200b36d3d542deb553f95571e38dc6819f2ce4167d2c33a8c0e9f8e344d2e0a45a64736f6c634300081c0033",
  "linkReferences": {},
  "deployedLinkReferences": {},
  "immutableReferences": {
    "1484": [
      {
        "length": 32,
        "start": 374
      },
      {
        "length": 32,
        "start": 1381
      },
      {
        "length": 32,
        "start": 2474
      },
      {
        "length": 32,
        "start": 2629
      },
      {
        "length": 32,
        "start": 3028
      },
      {
        "length": 32,
        "start": 3470
      },
      {
        "length": 32,
        "start": 3784
      },
      {
        "length": 32,
        "start": 4147
      },
      {
        "length": 32,
        "start": 4475
      }
    ]
  },
  "inputSourceName": "project/contracts/ArtworkRegistry.sol",
  "buildInfoId": "solc-0_8_28-db7400ebb2cc24ad8e9efae903b0f66ecc6233ec"
}