{
  "_format": "hh3-artifact-1",
  "contractName": "ArtworkTokenization",
  "sourceName": "contracts/ArtworkTokenization.sol",
  "abi": [
    {
      "inputs": [
        {
          "internalType": "string",
          "name": "uriIpfs",
          "type": "string"
        }
      ],
      "stateMutability": "nonpayable",
      "type": "constructor"
    },
    {
      "inputs": [
        {
          "internalType": "address",
          "name": "sender",
          "type": "address"
        },
        {
          "internalType": "uint256",
          "name": "balance",
          "type": "uint256"
        },
        {
          "internalType": "uint256",
          "name": "needed",
          "type": "uint256"
        },
        {
          "internalType": "uint256",
          "name": "tokenId",
          "type": "uint256"
        }
      ],
      "name": "ERC1155InsufficientBalance",
      "type": "error"
    },
    {
      "inputs": [
        {
          "internalType": "address",
          "name": "approver",
          "type": "address"
        }
      ],
      "name": "ERC1155InvalidApprover",
      "type": "error"
    },
    {
      "inputs": [
        {
          "internalType": "uint256",
          "name": "idsLength",
          "type": "uint256"
        },
        {
          "internalType": "uint256",
          "name": "valuesLength",
          "type": "uint256"
        }
      ],
      "name": "ERC1155InvalidArrayLength",
      "type": "error"
    },
    {
      "inputs": [
        {
          "internalType": "address",
          "name": "operator",
          "type": "address"
        }
      ],
      "name": "ERC1155InvalidOperator",
      "type": "error"
    },
    {
      "inputs": [
        {
          "internalType": "address",
          "name": "receiver",
          "type": "address"
        }
      ],
      "name": "ERC1155InvalidReceiver",
      "type": "error"
    },
    {
      "inputs": [
        {
          "internalType": "address",
          "name": "sender",
          "type": "address"
        }
      ],
      "name": "ERC1155InvalidSender",
      "type": "error"
    },
    {
      "inputs": [
        {
          "internalType": "address",
          "name": "operator",
          "type": "address"
        },
        {
          "internalType": "address",
          "name": "owner",
          "type": "address"
        }
      ],
      "name": "ERC1155MissingApprovalForAll",
      "type": "error"
    },
    {
      "inputs": [],
      "name": "InvalidAmount",
      "type": "error"
    },
    {
      "inputs": [],
      "name": "InvalidArtistAddress",
      "type": "error"
    },
    {
      "inputs": [],
      "name": "InvalidIPFSCID",
      "type": "error"
    },
    {
      "inputs": [],
      "name": "InvalidStringLength",
      "type": "error"
    },
    {
      "inputs": [
        {
          "internalType": "address",
          "name": "owner",
          "type": "address"
        }
      ],
      "name": "OwnableInvalidOwner",
      "type": "error"
    },
    {
      "inputs": [
        {
          "internalType": "address",
          "name": "account",
          "type": "address"
        }
      ],
      "name": "OwnableUnauthorizedAccount",
      "type": "error"
    },
    {
      "anonymous": false,
      "inputs": [
        {
          "indexed": true,
          "internalType": "address",
          "name": "account",
          "type": "address"
        },
        {
          "indexed": true,
          "internalType": "address",
          "name": "operator",
          "type": "address"
        },
        {
          "indexed": false,
          "internalType": "bool",
          "name": "approved",
          "type": "bool"
        }
      ],
      "name": "ApprovalForAll",
      "type": "event"
    },
    {
      "anonymous": false,
      "inputs": [
        {
          "indexed": true,
          "internalType": "address",
          "name": "artist",
          "type": "address"
        },
        {
          "indexed": true,
          "internalType": "uint256",
          "name": "tokenId",
          "type": "uint256"
        },
        {
          "indexed": false,
          "internalType": "uint256",
          "name": "amount",
          "type": "uint256"
        }
      ],
      "name": "ArtworkEditionMinted",
      "type": "event"
    },
    {
      "anonymous": false,
      "inputs": [
        {
          "indexed": true,
          "internalType": "address",
          "name": "previousOwner",
          "type": "address"
        },
        {
          "indexed": true,
          "internalType": "address",
          "name": "newOwner",
          "type": "address"
        }
      ],
      "name": "OwnershipTransferred",
      "type": "event"
    },
    {
      "anonymous": false,
      "inputs": [
        {
          "indexed": true,
          "internalType": "uint256",
          "name": "tokenId",
          "type": "uint256"
        },
        {
          "indexed": false,
          "internalType": "string",
          "name": "newMetadata",
          "type": "string"
        }
      ],
      "name": "TokenMetadataUpdated",
      "type": "event"
    },
    {
      "anonymous": false,
      "inputs": [
        {
          "indexed": true,
          "internalType": "address",
          "name": "operator",
          "type": "address"
        },
        {
          "indexed": true,
          "internalType": "address",
          "name": "from",
          "type": "address"
        },
        {
          "indexed": true,
          "internalType": "address",
          "name": "to",
          "type": "address"
        },
        {
          "indexed": false,
          "internalType": "uint256[]",
          "name": "ids",
          "type": "uint256[]"
        },
        {
          "indexed": false,
          "internalType": "uint256[]",
          "name": "values",
          "type": "uint256[]"
        }
      ],
      "name": "TransferBatch",
      "type": "event"
    },
    {
      "anonymous": false,
      "inputs": [
        {
          "indexed": true,
          "internalType": "address",
          "name": "operator",
          "type": "address"
        },
        {
          "indexed": true,
          "internalType": "address",
          "name": "from",
          "type": "address"
        },
        {
          "indexed": true,
          "internalType": "address",
          "name": "to",
          "type": "address"
        },
        {
          "indexed": false,
          "internalType": "uint256",
          "name": "id",
          "type": "uint256"
        },
        {
          "indexed": false,
          "internalType": "uint256",
          "name": "value",
          "type": "uint256"
        }
      ],
      "name": "TransferSingle",
      "type": "event"
    },
    {
      "anonymous": false,
      "inputs": [
        {
          "indexed": false,
          "internalType": "string",
          "name": "value",
          "type": "string"
        },
        {
          "indexed": true,
          "internalType": "uint256",
          "name": "id",
          "type": "uint256"
        }
      ],
      "name": "URI",
      "type": "event"
    },
    {
      "inputs": [
        {
          "internalType": "address",
          "name": "account",
          "type": "address"
        },
        {
          "internalType": "uint256",
          "name": "id",
          "type": "uint256"
        }
      ],
      "name": "balanceOf",
      "outputs": [
        {
          "internalType": "uint256",
          "name": "",
          "type": "uint256"
        }
      ],
      "stateMutability": "view",
      "type": "function"
    },
    {
      "inputs": [
        {
          "internalType": "address[]",
          "name": "accounts",
          "type": "address[]"
        },
        {
          "internalType": "uint256[]",
          "name": "ids",
          "type": "uint256[]"
        }
      ],
      "name": "balanceOfBatch",
      "outputs": [
        {
          "internalType": "uint256[]",
          "name": "",
          "type": "uint256[]"
        }
      ],
      "stateMutability": "view",
      "type": "function"
    },
    {
      "inputs": [
        {
          "internalType": "address",
          "name": "account",
          "type": "address"
        },
        {
          "internalType": "address",
          "name": "operator",
          "type": "address"
        }
      ],
      "name": "isApprovedForAll",
      "outputs": [
        {
          "internalType": "bool",
          "name": "",
          "type": "bool"
        }
      ],
      "stateMutability": "view",
      "type": "function"
    },
    {
      "inputs": [
        {
          "internalType": "address",
          "name": "_artist",
          "type": "address"
        },
        {
          "internalType": "uint256",
          "name": "_amount",
          "type": "uint256"
        },
        {
          "internalType": "string",
          "name": "_uri",
          "type": "string"
        }
      ],
      "name": "mintArtworkEdition",
      "outputs": [
        {
          "internalType": "uint256",
          "name": "",
          "type": "uint256"
        }
      ],
      "stateMutability": "nonpayable",
      "type": "function"
    },
    {
      "inputs": [],
      "name": "owner",
      "outputs": [
        {
          "internalType": "address",
          "name": "",
          "type": "address"
        }
      ],
      "stateMutability": "view",
      "type": "function"
    },
    {
      "inputs": [],
      "name": "renounceOwnership",
      "outputs": [],
      "stateMutability": "nonpayable",
      "type": "function"
    },
    {
      "inputs": [
        {
          "internalType": "address",
          "name": "from",
          "type": "address"
        },
        {
          "internalType": "address",
          "name": "to",
          "type": "address"
        },
        {
          "internalType": "uint256[]",
          "name": "ids",
          "type": "uint256[]"
        },
        {
          "internalType": "uint256[]",
          "name": "values",
          "type": "uint256[]"
        },
        {
          "internalType": "bytes",
          "name": "data",
          "type": "bytes"
        }
      ],
      "name": "safeBatchTransferFrom",
      "outputs": [],
      "stateMutability": "nonpayable",
      "type": "function"
    },
    {
      "inputs": [
        {
          "internalType": "address",
          "name": "from",
          "type": "address"
        },
        {
          "internalType": "address",
          "name": "to",
          "type": "address"
        },
        {
          "internalType": "uint256",
          "name": "id",
          "type": "uint256"
        },
        {
          "internalType": "uint256",
          "name": "value",
          "type": "uint256"
        },
        {
          "internalType": "bytes",
          "name": "data",
          "type": "bytes"
        }
      ],
      "name": "safeTransferFrom",
      "outputs": [],
      "stateMutability": "nonpayable",
      "type": "function"
    },
    {
      "inputs": [
        {
          "internalType": "address",
          "name": "operator",
          "type": "address"
        },
        {
          "internalType": "bool",
          "name": "approved",
          "type": "bool"
        }
      ],
      "name": "setApprovalForAll",
      "outputs": [],
      "stateMutability": "nonpayable",
      "type": "function"
    },
    {
      "inputs": [
        {
          "internalType": "bytes4",
          "name": "interfaceId",
          "type": "bytes4"
        }
      ],
      "name": "supportsInterface",
      "outputs": [
        {
          "internalType": "bool",
          "name": "",
          "type": "bool"
        }
      ],
      "stateMutability": "view",
      "type": "function"
    },
    {
      "inputs": [
        {
          "internalType": "uint256",
          "name": "",
          "type": "uint256"
        }
      ],
      "name": "tokenArtist",
      "outputs": [
        {
          "internalType": "address",
          "name": "",
          "type": "address"
        }
      ],
      "stateMutability": "view",
      "type": "function"
    },
    {
      "inputs": [
        {
          "internalType": "address",
          "name": "newOwner",
          "type": "address"
        }
      ],
      "name": "transferOwnership",
      "outputs": [],
      "stateMutability": "nonpayable",
      "type": "function"
    },
    {
      "inputs": [
        {
          "internalType": "uint256",
          "name": "_tokenId",
          "type": "uint256"
        },
        {
          "internalType": "string",
          "name": "_newMetadata",
          "type": "string"
        }
      ],
      "name": "updateTokenMetadata",
      "outputs": [],
      "stateMutability": "nonpayable",
      "type": "function"
    },
    {
      "inputs": [
        {
          "internalType": "uint256",
          "name": "tokenId",
          "type": "uint256"
        }
      ],
      "name": "uri",
      "outputs": [
        {
          "internalType": "string",
          "name": "",
          "type": "string"
        }
      ],
      "stateMutability": "view",
      "type": "function"
    }
  ],
  "bytecode": "0x608060405234801561000f575f5ffd5b506040516118d13803806118d183398101604081905261002e916100ec565b338161003981610077565b506001600160a01b03811661006757604051631e4fbdf760e01b81525f600482015260240160405180910390fd5b61007081610087565b50506102da565b60026100838282610220565b5050565b600380546001600160a01b038381166001600160a01b0319831681179093556040519116919082907f8be0079c531659141344cd1fd0a4f28419497f9722a3daafe3b4186f6b6457e0905f90a35050565b634e487b7160e01b5f52604160045260245ffd5b5f602082840312156100fc575f5ffd5b81516001600160401b03811115610111575f5ffd5b8201601f81018413610121575f5ffd5b80516001600160401b0381111561013a5761013a6100d8565b604051601f8201601f19908116603f011681016001600160401b0381118282101715610168576101686100d8565b60405281815282820160200186101561017f575f5ffd5b8160208401602083015e5f91810160200191909152949350505050565b600181811c908216806101b057607f821691505b6020821081036101ce57634e487b7160e01b5f52602260045260245ffd5b50919050565b601f82111561021b57805f5260205f20601f840160051c810160208510156101f95750805b601f840160051c820191505b81811015610218575f8155600101610205565b50505b505050565b81516001600160401b03811115610239576102396100d8565b61024d81610247845461019c565b846101d4565b6020601f82116001811461027f575f83156102685750848201515b5f19600385901b1c1916600184901b178455610218565b5f84815260208120601f198516915b828110156102ae578785015182556020948501946001909201910161028e565b50848210156102cb57868401515f19600387901b60f8161c191681555b50505050600190811b01905550565b6115ea806102e75f395ff3fe608060405234801561000f575f5ffd5b50600436106100e4575f3560e01c80636f8f89ad11610088578063a22cb46511610063578063a22cb46514610205578063e985e9c514610218578063f242432a1461022b578063f2fde38b1461023e575f5ffd5b80636f8f89ad146101ac578063715018a6146101ec5780638da5cb5b146101f4575f5ffd5b8063139a86ce116100c3578063139a86ce146101515780632cb2f52e146101645780632eb2c2d6146101795780634e1273f41461018c575f5ffd5b8062fdd58e146100e857806301ffc9a71461010e5780630e89341c14610131575b5f5ffd5b6100fb6100f6366004610e2c565b610251565b6040519081526020015b60405180910390f35b61012161011c366004610e69565b610278565b6040519015158152602001610105565b61014461013f366004610e8b565b6102c7565b6040516101059190610ed0565b6100fb61015f366004610f97565b610366565b610177610172366004610fe9565b61049d565b005b6101776101873660046110b8565b610528565b61019f61019a366004611164565b610594565b6040516101059190611255565b6101d46101ba366004610e8b565b60066020525f90815260409020546001600160a01b031681565b6040516001600160a01b039091168152602001610105565b61017761065e565b6003546001600160a01b03166101d4565b610177610213366004611267565b610671565b6101216102263660046112a0565b610680565b6101776102393660046112d1565b6106ad565b61017761024c366004611324565b61070c565b5f818152602081815260408083206001600160a01b03861684529091529020545b92915050565b5f6001600160e01b03198216636cdb3d1360e11b14806102a857506001600160e01b031982166303a24d0760e21b145b8061027257506301ffc9a760e01b6001600160e01b0319831614610272565b5f8181526005602052604090208054606091906102e39061133d565b80601f016020809104026020016040519081016040528092919081815260200182805461030f9061133d565b801561035a5780601f106103315761010080835404028352916020019161035a565b820191905f5260205f20905b81548152906001019060200180831161033d57829003601f168201915b50505050509050919050565b5f61036f610749565b6001600160a01b0384166103965760405163eabab22f60e01b815260040160405180910390fd5b825f036103b65760405163162908e360e11b815260040160405180910390fd5b6028825110806103c7575060648251115b156103e5576040516321d094fb60e21b815260040160405180910390fd5b60048054905f6103f483611389565b90915550506004545f81815260066020908152604080832080546001600160a01b0319166001600160a01b038a161790556005909152902061043684826113ea565b5061045185828660405180602001604052805f815250610776565b80856001600160a01b03167fddef12a5e8624ff93829d6cbe1e6af9a860279e4d9acd3ea7e75a83470a8ab158660405161048d91815260200190565b60405180910390a3949350505050565b6104a5610749565b6028815110806104b6575060648151115b156104d4576040516321d094fb60e21b815260040160405180910390fd5b5f8281526005602052604090206104eb82826113ea565b50817f496b10ce76f6fec5b06f5b35ff1292ff082ed36b04586ca00785bc2e444a83a68260405161051c9190610ed0565b60405180910390a25050565b336001600160a01b038616811480159061054957506105478682610680565b155b1561057f5760405163711bec9160e11b81526001600160a01b038083166004830152871660248201526044015b60405180910390fd5b61058c86868686866107d1565b505050505050565b606081518351146105c55781518351604051635b05999160e01b815260048101929092526024820152604401610576565b5f83516001600160401b038111156105df576105df610ee2565b604051908082528060200260200182016040528015610608578160200160208202803683370190505b5090505f5b84518110156106565760208082028601015161063190602080840287010151610251565b828281518110610643576106436114a4565b602090810291909101015260010161060d565b509392505050565b610666610749565b61066f5f610836565b565b61067c338383610887565b5050565b6001600160a01b039182165f90815260016020908152604080832093909416825291909152205460ff1690565b336001600160a01b03861681148015906106ce57506106cc8682610680565b155b156106ff5760405163711bec9160e11b81526001600160a01b03808316600483015287166024820152604401610576565b61058c868686868661091b565b610714610749565b6001600160a01b03811661073d57604051631e4fbdf760e01b81525f6004820152602401610576565b61074681610836565b50565b6003546001600160a01b0316331461066f5760405163118cdaa760e01b8152336004820152602401610576565b6001600160a01b03841661079f57604051632bfa23e760e11b81525f6004820152602401610576565b6040805160018082526020820186905281830190815260608201859052608082019092529061058c5f878484876109a7565b6001600160a01b0384166107fa57604051632bfa23e760e11b81525f6004820152602401610576565b6001600160a01b03851661082257604051626a0d4560e21b81525f6004820152602401610576565b61082f85858585856109a7565b5050505050565b600380546001600160a01b038381166001600160a01b0319831681179093556040519116919082907f8be0079c531659141344cd1fd0a4f28419497f9722a3daafe3b4186f6b6457e0905f90a35050565b6001600160a01b0382166108af5760405162ced3e160e81b81525f6004820152602401610576565b6001600160a01b038381165f81815260016020908152604080832094871680845294825291829020805460ff191686151590811790915591519182527f17307eab39ab6107e8899845ad3d59bd9653f200f220920489ca2b5937696c31910160405180910390a3505050565b6001600160a01b03841661094457604051632bfa23e760e11b81525f6004820152602401610576565b6001600160a01b03851661096c57604051626a0d4560e21b81525f6004820152602401610576565b6040805160018082526020820186905281830190815260608201859052608082019092529061099e87878484876109a7565b50505050505050565b6109b3858585856109fa565b6001600160a01b0384161561082f57825133906001036109ec57602084810151908401516109e5838989858589610c09565b505061058c565b61058c818787878787610d2a565b8051825114610a295781518151604051635b05999160e01b815260048101929092526024820152604401610576565b335f5b8351811015610b2b576020818102858101820151908501909101516001600160a01b03881615610add575f828152602081815260408083206001600160a01b038c16845290915290205481811015610ab7576040516303dee4c560e01b81526001600160a01b038a166004820152602481018290526044810183905260648101849052608401610576565b5f838152602081815260408083206001600160a01b038d16845290915290209082900390555b6001600160a01b03871615610b21575f828152602081815260408083206001600160a01b038b16845290915281208054839290610b1b9084906114b8565b90915550505b5050600101610a2c565b508251600103610bab5760208301515f906020840151909150856001600160a01b0316876001600160a01b0316846001600160a01b03167fc3d58168c5ae7397731d063d5bbf3d657854427343f4c083240f7aacaa2d0f628585604051610b9c929190918252602082015260400190565b60405180910390a4505061082f565b836001600160a01b0316856001600160a01b0316826001600160a01b03167f4a39dc06d4c0dbc64b70af90fd698a233a518aa5d07e595d983b8c0526c8f7fb8686604051610bfa9291906114cb565b60405180910390a45050505050565b6001600160a01b0384163b1561058c5760405163f23a6e6160e01b81526001600160a01b0385169063f23a6e6190610c4d90899089908890889088906004016114f8565b6020604051808303815f875af1925050508015610c87575060408051601f3d908101601f19168201909252610c849181019061153c565b60015b610cee573d808015610cb4576040519150601f19603f3d011682016040523d82523d5f602084013e610cb9565b606091505b5080515f03610ce657604051632bfa23e760e11b81526001600160a01b0386166004820152602401610576565b805160208201fd5b6001600160e01b0319811663f23a6e6160e01b1461099e57604051632bfa23e760e11b81526001600160a01b0386166004820152602401610576565b6001600160a01b0384163b1561058c5760405163bc197c8160e01b81526001600160a01b0385169063bc197c8190610d6e9089908990889088908890600401611557565b6020604051808303815f875af1925050508015610da8575060408051601f3d908101601f19168201909252610da59181019061153c565b60015b610dd5573d808015610cb4576040519150601f19603f3d011682016040523d82523d5f602084013e610cb9565b6001600160e01b0319811663bc197c8160e01b1461099e57604051632bfa23e760e11b81526001600160a01b0386166004820152602401610576565b80356001600160a01b0381168114610e27575f5ffd5b919050565b5f5f60408385031215610e3d575f5ffd5b610e4683610e11565b946020939093013593505050565b6001600160e01b031981168114610746575f5ffd5b5f60208284031215610e79575f5ffd5b8135610e8481610e54565b9392505050565b5f60208284031215610e9b575f5ffd5b5035919050565b5f81518084528060208401602086015e5f602082860101526020601f19601f83011685010191505092915050565b602081525f610e846020830184610ea2565b634e487b7160e01b5f52604160045260245ffd5b604051601f8201601f191681016001600160401b0381118282101715610f1e57610f1e610ee2565b604052919050565b5f82601f830112610f35575f5ffd5b8135602083015f5f6001600160401b03841115610f5457610f54610ee2565b50601f8301601f1916602001610f6981610ef6565b915050828152858383011115610f7d575f5ffd5b828260208301375f92810160200192909252509392505050565b5f5f5f60608486031215610fa9575f5ffd5b610fb284610e11565b92506020840135915060408401356001600160401b03811115610fd3575f5ffd5b610fdf86828701610f26565b9150509250925092565b5f5f60408385031215610ffa575f5ffd5b8235915060208301356001600160401b03811115611016575f5ffd5b61102285828601610f26565b9150509250929050565b5f6001600160401b0382111561104457611044610ee2565b5060051b60200190565b5f82601f83011261105d575f5ffd5b813561107061106b8261102c565b610ef6565b8082825260208201915060208360051b860101925085831115611091575f5ffd5b602085015b838110156110ae578035835260209283019201611096565b5095945050505050565b5f5f5f5f5f60a086880312156110cc575f5ffd5b6110d586610e11565b94506110e360208701610e11565b935060408601356001600160401b038111156110fd575f5ffd5b6111098882890161104e565b93505060608601356001600160401b03811115611124575f5ffd5b6111308882890161104e565b92505060808601356001600160401b0381111561114b575f5ffd5b61115788828901610f26565b9150509295509295909350565b5f5f60408385031215611175575f5ffd5b82356001600160401b0381111561118a575f5ffd5b8301601f8101851361119a575f5ffd5b80356111a861106b8261102c565b8082825260208201915060208360051b8501019250878311156111c9575f5ffd5b6020840193505b828410156111f2576111e184610e11565b8252602093840193909101906111d0565b945050505060208301356001600160401b0381111561120f575f5ffd5b6110228582860161104e565b5f8151808452602084019350602083015f5b8281101561124b57815186526020958601959091019060010161122d565b5093949350505050565b602081525f610e84602083018461121b565b5f5f60408385031215611278575f5ffd5b61128183610e11565b915060208301358015158114611295575f5ffd5b809150509250929050565b5f5f604083850312156112b1575f5ffd5b6112ba83610e11565b91506112c860208401610e11565b90509250929050565b5f5f5f5f5f60a086880312156112e5575f5ffd5b6112ee86610e11565b94506112fc60208701610e11565b9350604086013592506060860135915060808601356001600160401b0381111561114b575f5ffd5b5f60208284031215611334575f5ffd5b610e8482610e11565b600181811c9082168061135157607f821691505b60208210810361136f57634e487b7160e01b5f52602260045260245ffd5b50919050565b634e487b7160e01b5f52601160045260245ffd5b5f6001820161139a5761139a611375565b5060010190565b601f8211156113e557805f5260205f20601f840160051c810160208510156113c65750805b601f840160051c820191505b8181101561082f575f81556001016113d2565b505050565b81516001600160401b0381111561140357611403610ee2565b61141781611411845461133d565b846113a1565b6020601f821160018114611449575f83156114325750848201515b5f19600385901b1c1916600184901b17845561082f565b5f84815260208120601f198516915b828110156114785787850151825560209485019460019092019101611458565b508482101561149557868401515f19600387901b60f8161c191681555b50505050600190811b01905550565b634e487b7160e01b5f52603260045260245ffd5b8082018082111561027257610272611375565b604081525f6114dd604083018561121b565b82810360208401526114ef818561121b565b95945050505050565b6001600160a01b03868116825285166020820152604081018490526060810183905260a0608082018190525f9061153190830184610ea2565b979650505050505050565b5f6020828403121561154c575f5ffd5b8151610e8481610e54565b6001600160a01b0386811682528516602082015260a0604082018190525f906115829083018661121b565b8281036060840152611594818661121b565b905082810360808401526115a88185610ea2565b9897505050505050505056fea264697066735822122020d098d3556358cd135dc1e2a701f051a3e213166610cb75fa184a7babf0b4b264736f6c634300081c0033",
  "linkReferences": {},
  "deployedLinkReferences": {},
  "immutableReferences": {},
  "inputSourceName": "project/contracts/ArtworkTokenization.sol",
  "buildInfoId": "solc-0_8_28-9ba97255c918ba6c570991ab64a47b06a4fd710b"
}