{
  "_format": "hh3-artifact-1",
  "contractName": "ProductTraceStorage",
  "sourceName": "contracts/ProductTraceStorage.sol",
  "abi": [
    {
      "inputs": [
        {
          "internalType": "address",
          "name": "_productTokenizationAddress",
          "type": "address"
        }
      ],
      "stateMutability": "nonpayable",
      "type": "constructor"
    },
    {
      "inputs": [],
      "name": "AlreadyAdmin",
      "type": "error"
    },
    {
      "inputs": [],
      "name": "AuthorizationAlreadyApplied",
      "type": "error"
    },
    {
      "inputs": [],
      "name": "BatchDoesNotExist",
      "type": "error"
    },
    {
      "inputs": [],
      "name": "BatchMustHaveTokens",
      "type": "error"
    },
    {
      "inputs": [],
      "name": "BatchSizeTooLarge",
      "type": "error"
    },
    {
      "inputs": [],
      "name": "CommentLimitReached",
      "type": "error"
    },
    {
      "inputs": [],
      "name": "EmptyMerkleRoot",
      "type": "error"
    },
    {
      "inputs": [],
      "name": "InvalidIPFSCID",
      "type": "error"
    },
    {
      "inputs": [],
      "name": "InvalidMerkleProof",
      "type": "error"
    },
    {
      "inputs": [],
      "name": "InvalidStringLength",
      "type": "error"
    },
    {
      "inputs": [],
      "name": "KeyAlreadyClaimed",
      "type": "error"
    },
    {
      "inputs": [],
      "name": "MetadataLocked",
      "type": "error"
    },
    {
      "inputs": [],
      "name": "NoTokenLeft",
      "type": "error"
    },
    {
      "inputs": [],
      "name": "NotAllowedToComment",
      "type": "error"
    },
    {
      "inputs": [],
      "name": "NotAnAdmin",
      "type": "error"
    },
    {
      "inputs": [],
      "name": "NotYourBatch",
      "type": "error"
    },
    {
      "inputs": [],
      "name": "OnlyAdminAuthorized",
      "type": "error"
    },
    {
      "inputs": [
        {
          "internalType": "address",
          "name": "owner",
          "type": "address"
        }
      ],
      "name": "OwnableInvalidOwner",
      "type": "error"
    },
    {
      "inputs": [
        {
          "internalType": "address",
          "name": "account",
          "type": "address"
        }
      ],
      "name": "OwnableUnauthorizedAccount",
      "type": "error"
    },
    {
      "inputs": [],
      "name": "ProducerMustApproveContract",
      "type": "error"
    },
    {
      "inputs": [],
      "name": "ProducerNotAuthorized",
      "type": "error"
    },
    {
      "inputs": [],
      "name": "QueryLimitTooHigh",
      "type": "error"
    },
    {
      "inputs": [],
      "name": "RatingOutOfRange",
      "type": "error"
    },
    {
      "inputs": [],
      "name": "ReentrancyGuardReentrantCall",
      "type": "error"
    },
    {
      "anonymous": false,
      "inputs": [
        {
          "indexed": true,
          "internalType": "address",
          "name": "admin",
          "type": "address"
        }
      ],
      "name": "AdminRemoved",
      "type": "event"
    },
    {
      "anonymous": false,
      "inputs": [
        {
          "indexed": true,
          "internalType": "address",
          "name": "producer",
          "type": "address"
        },
        {
          "indexed": false,
          "internalType": "bool",
          "name": "isAuthorized",
          "type": "bool"
        }
      ],
      "name": "AuthorizationProducer",
      "type": "event"
    },
    {
      "anonymous": false,
      "inputs": [
        {
          "indexed": true,
          "internalType": "address",
          "name": "producer",
          "type": "address"
        },
        {
          "indexed": true,
          "internalType": "uint256",
          "name": "batchId",
          "type": "uint256"
        },
        {
          "indexed": false,
          "internalType": "string",
          "name": "newMetadata",
          "type": "string"
        }
      ],
      "name": "BatchMetadataUpdated",
      "type": "event"
    },
    {
      "anonymous": false,
      "inputs": [
        {
          "indexed": true,
          "internalType": "address",
          "name": "newAdmin",
          "type": "address"
        }
      ],
      "name": "NewAdmin",
      "type": "event"
    },
    {
      "anonymous": false,
      "inputs": [
        {
          "indexed": true,
          "internalType": "address",
          "name": "consumer",
          "type": "address"
        },
        {
          "indexed": true,
          "internalType": "uint256",
          "name": "productBatchId",
          "type": "uint256"
        },
        {
          "indexed": false,
          "internalType": "uint8",
          "name": "rating",
          "type": "uint8"
        }
      ],
      "name": "NewComment",
      "type": "event"
    },
    {
      "anonymous": false,
      "inputs": [
        {
          "indexed": true,
          "internalType": "address",
          "name": "producer",
          "type": "address"
        },
        {
          "indexed": true,
          "internalType": "uint256",
          "name": "productBatchId",
          "type": "uint256"
        }
      ],
      "name": "NewProductBatch",
      "type": "event"
    },
    {
      "anonymous": false,
      "inputs": [
        {
          "indexed": true,
          "internalType": "address",
          "name": "previousOwner",
          "type": "address"
        },
        {
          "indexed": true,
          "internalType": "address",
          "name": "newOwner",
          "type": "address"
        }
      ],
      "name": "OwnershipTransferred",
      "type": "event"
    },
    {
      "anonymous": false,
      "inputs": [
        {
          "indexed": true,
          "internalType": "address",
          "name": "producer",
          "type": "address"
        }
      ],
      "name": "ProducerInfoUpdated",
      "type": "event"
    },
    {
      "anonymous": false,
      "inputs": [
        {
          "indexed": true,
          "internalType": "address",
          "name": "consumer",
          "type": "address"
        },
        {
          "indexed": true,
          "internalType": "uint256",
          "name": "productBatchId",
          "type": "uint256"
        }
      ],
      "name": "ProductTokenClaimed",
      "type": "event"
    },
    {
      "inputs": [],
      "name": "MAX_BATCH_SIZE",
      "outputs": [
        {
          "internalType": "uint256",
          "name": "",
          "type": "uint256"
        }
      ],
      "stateMutability": "view",
      "type": "function"
    },
    {
      "inputs": [],
      "name": "MAX_COMMENTS_PER_USER",
      "outputs": [
        {
          "internalType": "uint256",
          "name": "",
          "type": "uint256"
        }
      ],
      "stateMutability": "view",
      "type": "function"
    },
    {
      "inputs": [],
      "name": "MAX_COMMENTS_QUERY",
      "outputs": [
        {
          "internalType": "uint256",
          "name": "",
          "type": "uint256"
        }
      ],
      "stateMutability": "view",
      "type": "function"
    },
    {
      "inputs": [
        {
          "internalType": "address",
          "name": "_newAdmin",
          "type": "address"
        }
      ],
      "name": "addAdmin",
      "outputs": [],
      "stateMutability": "nonpayable",
      "type": "function"
    },
    {
      "inputs": [
        {
          "internalType": "uint256",
          "name": "_productBatchId",
          "type": "uint256"
        },
        {
          "internalType": "uint8",
          "name": "_rating",
          "type": "uint8"
        },
        {
          "internalType": "string",
          "name": "_metadata",
          "type": "string"
        }
      ],
      "name": "addComment",
      "outputs": [],
      "stateMutability": "nonpayable",
      "type": "function"
    },
    {
      "inputs": [
        {
          "internalType": "string",
          "name": "_productType",
          "type": "string"
        },
        {
          "internalType": "string",
          "name": "_metadata",
          "type": "string"
        },
        {
          "internalType": "uint256",
          "name": "_amount",
          "type": "uint256"
        },
        {
          "internalType": "bytes32",
          "name": "_merkleRoot",
          "type": "bytes32"
        }
      ],
      "name": "addProductBatch",
      "outputs": [],
      "stateMutability": "nonpayable",
      "type": "function"
    },
    {
      "inputs": [
        {
          "internalType": "address",
          "name": "",
          "type": "address"
        }
      ],
      "name": "admins",
      "outputs": [
        {
          "internalType": "bool",
          "name": "",
          "type": "bool"
        }
      ],
      "stateMutability": "view",
      "type": "function"
    },
    {
      "inputs": [
        {
          "internalType": "address",
          "name": "_producer",
          "type": "address"
        },
        {
          "internalType": "bool",
          "name": "_isAuthorized",
          "type": "bool"
        }
      ],
      "name": "authorizeProducer",
      "outputs": [],
      "stateMutability": "nonpayable",
      "type": "function"
    },
    {
      "inputs": [
        {
          "internalType": "uint256",
          "name": "_productBatchId",
          "type": "uint256"
        },
        {
          "internalType": "string",
          "name": "_secretKey",
          "type": "string"
        },
        {
          "internalType": "bytes32[]",
          "name": "_merkleProof",
          "type": "bytes32[]"
        }
      ],
      "name": "claimProductToken",
      "outputs": [],
      "stateMutability": "nonpayable",
      "type": "function"
    },
    {
      "inputs": [
        {
          "internalType": "uint256",
          "name": "",
          "type": "uint256"
        },
        {
          "internalType": "address",
          "name": "",
          "type": "address"
        }
      ],
      "name": "commentCount",
      "outputs": [
        {
          "internalType": "uint256",
          "name": "",
          "type": "uint256"
        }
      ],
      "stateMutability": "view",
      "type": "function"
    },
    {
      "inputs": [
        {
          "internalType": "address",
          "name": "_address",
          "type": "address"
        }
      ],
      "name": "getProducer",
      "outputs": [
        {
          "components": [
            {
              "internalType": "bool",
              "name": "authorized",
              "type": "bool"
            },
            {
              "internalType": "string",
              "name": "name",
              "type": "string"
            },
            {
              "internalType": "string",
              "name": "location",
              "type": "string"
            },
            {
              "internalType": "string",
              "name": "companyRegisterNumber",
              "type": "string"
            },
            {
              "internalType": "string",
              "name": "metadata",
              "type": "string"
            }
          ],
          "internalType": "struct ProductTraceStorage.Producer",
          "name": "",
          "type": "tuple"
        }
      ],
      "stateMutability": "view",
      "type": "function"
    },
    {
      "inputs": [
        {
          "internalType": "uint256",
          "name": "_id",
          "type": "uint256"
        }
      ],
      "name": "getProductBatch",
      "outputs": [
        {
          "components": [
            {
              "internalType": "string",
              "name": "productType",
              "type": "string"
            },
            {
              "internalType": "string",
              "name": "metadata",
              "type": "string"
            },
            {
              "internalType": "bytes32",
              "name": "merkleRoot",
              "type": "bytes32"
            },
            {
              "internalType": "bool",
              "name": "hasBeenClaimed",
              "type": "bool"
            }
          ],
          "internalType": "struct ProductTraceStorage.ProductBatch",
          "name": "",
          "type": "tuple"
        }
      ],
      "stateMutability": "view",
      "type": "function"
    },
    {
      "inputs": [
        {
          "internalType": "uint256",
          "name": "_productBatchId",
          "type": "uint256"
        },
        {
          "internalType": "uint256",
          "name": "offset",
          "type": "uint256"
        },
        {
          "internalType": "uint256",
          "name": "limit",
          "type": "uint256"
        }
      ],
      "name": "getProductBatchComments",
      "outputs": [
        {
          "components": [
            {
              "internalType": "address",
              "name": "consumer",
              "type": "address"
            },
            {
              "internalType": "uint256",
              "name": "productBatchId",
              "type": "uint256"
            },
            {
              "internalType": "uint8",
              "name": "rating",
              "type": "uint8"
            },
            {
              "internalType": "string",
              "name": "metadata",
              "type": "string"
            }
          ],
          "internalType": "struct ProductTraceStorage.Comment[]",
          "name": "",
          "type": "tuple[]"
        }
      ],
      "stateMutability": "view",
      "type": "function"
    },
    {
      "inputs": [
        {
          "internalType": "uint256",
          "name": "_productBatchId",
          "type": "uint256"
        }
      ],
      "name": "getProductBatchCommentsCount",
      "outputs": [
        {
          "internalType": "uint256",
          "name": "",
          "type": "uint256"
        }
      ],
      "stateMutability": "view",
      "type": "function"
    },
    {
      "inputs": [
        {
          "internalType": "address",
          "name": "_address",
          "type": "address"
        }
      ],
      "name": "isAdmin",
      "outputs": [
        {
          "internalType": "bool",
          "name": "",
          "type": "bool"
        }
      ],
      "stateMutability": "view",
      "type": "function"
    },
    {
      "inputs": [
        {
          "internalType": "uint256",
          "name": "_batchId",
          "type": "uint256"
        }
      ],
      "name": "isBatchLocked",
      "outputs": [
        {
          "internalType": "bool",
          "name": "",
          "type": "bool"
        }
      ],
      "stateMutability": "view",
      "type": "function"
    },
    {
      "inputs": [
        {
          "internalType": "uint256",
          "name": "_productBatchId",
          "type": "uint256"
        },
        {
          "internalType": "string",
          "name": "_secretKey",
          "type": "string"
        }
      ],
      "name": "isKeyClaimed",
      "outputs": [
        {
          "internalType": "bool",
          "name": "",
          "type": "bool"
        }
      ],
      "stateMutability": "view",
      "type": "function"
    },
    {
      "inputs": [
        {
          "internalType": "address",
          "name": "_producer",
          "type": "address"
        }
      ],
      "name": "isProducerApproved",
      "outputs": [
        {
          "internalType": "bool",
          "name": "",
          "type": "bool"
        }
      ],
      "stateMutability": "view",
      "type": "function"
    },
    {
      "inputs": [],
      "name": "owner",
      "outputs": [
        {
          "internalType": "address",
          "name": "",
          "type": "address"
        }
      ],
      "stateMutability": "view",
      "type": "function"
    },
    {
      "inputs": [],
      "name": "productTokenization",
      "outputs": [
        {
          "internalType": "contract IProductTokenization",
          "name": "",
          "type": "address"
        }
      ],
      "stateMutability": "view",
      "type": "function"
    },
    {
      "inputs": [
        {
          "internalType": "address",
          "name": "_admin",
          "type": "address"
        }
      ],
      "name": "removeAdmin",
      "outputs": [],
      "stateMutability": "nonpayable",
      "type": "function"
    },
    {
      "inputs": [],
      "name": "renounceOwnership",
      "outputs": [],
      "stateMutability": "nonpayable",
      "type": "function"
    },
    {
      "inputs": [
        {
          "internalType": "string",
          "name": "_name",
          "type": "string"
        },
        {
          "internalType": "string",
          "name": "_location",
          "type": "string"
        },
        {
          "internalType": "string",
          "name": "_companyRegisterNumber",
          "type": "string"
        },
        {
          "internalType": "string",
          "name": "_metadata",
          "type": "string"
        }
      ],
      "name": "setProducerInfo",
      "outputs": [],
      "stateMutability": "nonpayable",
      "type": "function"
    },
    {
      "inputs": [
        {
          "internalType": "address",
          "name": "newOwner",
          "type": "address"
        }
      ],
      "name": "transferOwnership",
      "outputs": [],
      "stateMutability": "nonpayable",
      "type": "function"
    },
    {
      "inputs": [
        {
          "internalType": "uint256",
          "name": "_batchId",
          "type": "uint256"
        },
        {
          "internalType": "string",
          "name": "_newMetadata",
          "type": "string"
        }
      ],
      "name": "updateBatchMetadata",
      "outputs": [],
      "stateMutability": "nonpayable",
      "type": "function"
    }
  ],
  "bytecode": "0x60a060405234801561000f575f5ffd5b5060405161239338038061239383398101604081905261002e91610106565b338061005357604051631e4fbdf760e01b81525f600482015260240160405180910390fd5b61005c816100b7565b5060018080556001600160a01b038216608052335f81815260056020526040808220805460ff1916909417909355915190917f71614071b88dee5e0b2ae578a9dd7b2ebbe9ae832ba419dc0242cd065a290b6c91a250610133565b5f80546001600160a01b038381166001600160a01b0319831681178455604051919092169283917f8be0079c531659141344cd1fd0a4f28419497f9722a3daafe3b4186f6b6457e09190a35050565b5f60208284031215610116575f5ffd5b81516001600160a01b038116811461012c575f5ffd5b9392505050565b6080516122106101835f395f818161038f0152818161071a015281816107b50152818161093601528181610b0e01528181610c77015281816110530152818161143f015261168701526122105ff3fe608060405234801561000f575f5ffd5b506004361061016d575f3560e01c80638aa2a9bd116100d9578063b98f8b6411610093578063cfdbf2541161006e578063cfdbf254146103b1578063d2e9ab3c146103bb578063dc6fb6ec146103ce578063f2fde38b146103e1575f5ffd5b8063b98f8b641461036f578063c32ab58d14610377578063c9b59bc11461038a575f5ffd5b80638aa2a9bd146102af5780638da5cb5b146102cf57806396f28009146102f35780639db63d7314610312578063a71af06814610325578063aab147b21461034f575f5ffd5b8063429b62e51161012a578063429b62e51461023657806342a281bf146102585780634df637ed1461026e5780637048027514610281578063715018a614610294578063824c27701461029c575f5ffd5b80630989042f146101715780631040eddb1461019a5780631785f53c146101af57806320d978dd146101c257806324d7806c146101d55780633874b5e414610210575b5f5ffd5b61018461017f3660046119ca565b6103f4565b6040516101919190611a0f565b60405180910390f35b6101ad6101a8366004611a8b565b610576565b005b6101ad6101bd366004611ac2565b610643565b6101ad6101d0366004611b8c565b6106cb565b6102006101e3366004611ac2565b6001600160a01b03165f9081526005602052604090205460ff1690565b6040519015158152602001610191565b61020061021e3660046119ca565b5f908152600360208190526040909120015460ff1690565b610200610244366004611ac2565b60056020525f908152604090205460ff1681565b610260600281565b604051908152602001610191565b61020061027c366004611c6a565b6109da565b6101ad61028f366004611ac2565b610a25565b6101ad610ab1565b6101ad6102aa366004611cad565b610ac4565b6102c26102bd366004611d1f565b610d56565b6040516101919190611d48565b5f546001600160a01b03165b6040516001600160a01b039091168152602001610191565b6102606103013660046119ca565b5f9081526004602052604090205490565b6101ad610320366004611c6a565b610fb7565b610260610333366004611de2565b600760209081525f928352604080842090915290825290205481565b61036261035d366004611ac2565b611177565b6040516101919190611e05565b610260606481565b6101ad610385366004611e8e565b611422565b6102db7f000000000000000000000000000000000000000000000000000000000000000081565b610260620186a081565b6102006103c9366004611ac2565b611660565b6101ad6103dc366004611ee7565b6116f2565b6101ad6103ef366004611ac2565b611863565b61041f604051806080016040528060608152602001606081526020015f81526020015f151581525090565b5f828152600360205260409081902081516080810190925280548290829061044690611f9c565b80601f016020809104026020016040519081016040528092919081815260200182805461047290611f9c565b80156104bd5780601f10610494576101008083540402835291602001916104bd565b820191905f5260205f20905b8154815290600101906020018083116104a057829003601f168201915b505050505081526020016001820180546104d690611f9c565b80601f016020809104026020016040519081016040528092919081815260200182805461050290611f9c565b801561054d5780601f106105245761010080835404028352916020019161054d565b820191905f5260205f20905b81548152906001019060200180831161053057829003601f168201915b50505091835250506002820154602082015260039091015460ff16151560409091015292915050565b335f9081526005602052604090205460ff166105a557604051630bbee75f60e11b815260040160405180910390fd5b6001600160a01b0382165f9081526002602052604090205481151560ff9091161515036105e557604051639a7d4c4b60e01b815260040160405180910390fd5b6001600160a01b0382165f81815260026020908152604091829020805460ff191685151590811790915591519182527f4275679677d2d9de02ec363d44169b2620d44e53597b5457f777bae4be99e0db910160405180910390a25050565b61064b6118a5565b6001600160a01b0381165f9081526005602052604090205460ff16610683576040516355098f2760e01b815260040160405180910390fd5b6001600160a01b0381165f81815260056020526040808220805460ff19169055517fa3b62bc36326052d97ea62d63c3d60308ed4c3ea8ac079dd8499f1e9c4f80c0f9190a250565b6106d36118d1565b5f838152600360205260409020600281015461070257604051634ee9bc0f60e01b815260040160405180910390fd5b604051634ef22f7760e11b8152600481018590525f907f00000000000000000000000000000000000000000000000000000000000000006001600160a01b031690639de45eee90602401602060405180830381865afa158015610767573d5f5f3e3d5ffd5b505050506040513d601f19601f8201168201806040525081019061078b9190611fd4565b604051627eeac760e11b81526001600160a01b038083166004830152602482018890529192505f917f0000000000000000000000000000000000000000000000000000000000000000169062fdd58e90604401602060405180830381865afa1580156107f9573d5f5f3e3d5ffd5b505050506040513d601f19601f8201168201806040525081019061081d9190611fef565b90505f811161083f57604051631738718360e31b815260040160405180910390fd5b5f856040516020016108519190612006565b60408051601f1981840301815291815281516020928301205f8a81526006845282812082825290935291205490915060ff16156108a157604051634e7f17b160e11b815260040160405180910390fd5b6108b0858560020154836118fb565b6108cd5760405163582f497d60e11b815260040160405180910390fd5b5f878152600660209081526040808320848452909152808220805460ff191660019081179091559051637921219560e11b81526001600160a01b038681166004830152336024830152604482018b9052606482019290925260a0608482015260a48101929092527f0000000000000000000000000000000000000000000000000000000000000000169063f242432a9060c4015f604051808303815f87803b158015610977575f5ffd5b505af1158015610989573d5f5f3e3d5ffd5b50505060038501805460ff1916600117905550604051879033907f2a8917fe871f4104208ad406a979c0530e88edad2f84e6e73ec776d68183e51f905f90a3505050506109d560018055565b505050565b5f5f826040516020016109ed9190612006565b60408051601f1981840301815291815281516020928301205f87815260068452828120918152925290205460ff169150505b92915050565b610a2d6118a5565b6001600160a01b0381165f9081526005602052604090205460ff1615610a6657604051631c3681a560e11b815260040160405180910390fd5b6001600160a01b0381165f81815260056020526040808220805460ff19166001179055517f71614071b88dee5e0b2ae578a9dd7b2ebbe9ae832ba419dc0242cd065a290b6c9190a250565b610ab96118a5565b610ac25f611910565b565b335f9081526002602052604090205460ff16610af35760405163057bc35b60e51b815260040160405180910390fd5b60405163e985e9c560e01b81523360048201523060248201527f00000000000000000000000000000000000000000000000000000000000000006001600160a01b03169063e985e9c590604401602060405180830381865afa158015610b5b573d5f5f3e3d5ffd5b505050506040513d601f19601f82011682018060405250810190610b7f919061201c565b610b9c576040516329c51bed60e21b815260040160405180910390fd5b5f8451118015610bae57506040845111155b610bcb57604051638dc6ac0160e01b815260040160405180910390fd5b6028835110158015610bdf57506064835111155b610bfc576040516321d094fb60e21b815260040160405180910390fd5b5f8211610c1c57604051633b95c67f60e21b815260040160405180910390fd5b620186a0821115610c4057604051631e80759560e21b815260040160405180910390fd5b80610c5e576040516385ac2b9960e01b815260040160405180910390fd5b604051630635c15f60e31b81525f906001600160a01b037f000000000000000000000000000000000000000000000000000000000000000016906331ae0af890610cb090339087908990600401612037565b6020604051808303815f875af1158015610ccc573d5f5f3e3d5ffd5b505050506040513d601f19601f82011682018060405250810190610cf09190611fef565b5f81815260036020526040902090915080610d0b87826120a8565b5060018101610d1a86826120a8565b5060028101839055604051829033907f5d09f8396d84ad9f2e29ec6609933fa1d62611809166cf01d417179cba7fd9d2905f90a3505050505050565b60606064821115610d7a57604051632444a20f60e11b815260040160405180910390fd5b5f84815260046020526040902054808410610dde57604080515f8082526020820190925290610dd5565b604080516080810182525f80825260208083018290529282015260608082015282525f19909201910181610da45790505b50915050610fb0565b5f81610dea8587612176565b11610dfe57610df98486612176565b610e00565b815b90505f610e0d8683612189565b90505f816001600160401b03811115610e2857610e28611add565b604051908082528060200260200182016040528015610e7757816020015b604080516080810182525f80825260208083018290529282015260608082015282525f19909201910181610e465790505b5090505f5b82811015610fa9575f898152600460205260409020610e9b828a612176565b81548110610eab57610eab61219c565b5f91825260209182902060408051608081018252600490930290910180546001600160a01b03168352600181015493830193909352600283015460ff1690820152600382018054919291606084019190610f0490611f9c565b80601f0160208091040260200160405190810160405280929190818152602001828054610f3090611f9c565b8015610f7b5780601f10610f5257610100808354040283529160200191610f7b565b820191905f5260205f20905b815481529060010190602001808311610f5e57829003601f168201915b505050505081525050828281518110610f9657610f9661219c565b6020908102919091010152600101610e7c565b5093505050505b9392505050565b335f9081526002602052604090205460ff16610fe65760405163057bc35b60e51b815260040160405180910390fd5b5f828152600360205260409020600281015461101557604051634ee9bc0f60e01b815260040160405180910390fd5b600381015460ff161561103b576040516313ef243160e11b815260040160405180910390fd5b604051634ef22f7760e11b8152600481018490525f907f00000000000000000000000000000000000000000000000000000000000000006001600160a01b031690639de45eee90602401602060405180830381865afa1580156110a0573d5f5f3e3d5ffd5b505050506040513d601f19601f820116820180604052508101906110c49190611fd4565b90506001600160a01b03811633146110ef576040516326ab980960e21b815260040160405180910390fd5b602883511015801561110357506064835111155b611120576040516321d094fb60e21b815260040160405180910390fd5b6001820161112e84826120a8565b5083336001600160a01b03167f666ebfed5ffc59fa308c3db9a8ac98d672166ac9f2dc2dc5f48f79bedc9663838560405161116991906121b0565b60405180910390a350505050565b6111aa6040518060a001604052805f15158152602001606081526020016060815260200160608152602001606081525090565b6001600160a01b0382165f90815260026020908152604091829020825160a08101909352805460ff161515835260018101805491928401916111eb90611f9c565b80601f016020809104026020016040519081016040528092919081815260200182805461121790611f9c565b80156112625780601f1061123957610100808354040283529160200191611262565b820191905f5260205f20905b81548152906001019060200180831161124557829003601f168201915b5050505050815260200160028201805461127b90611f9c565b80601f01602080910402602001604051908101604052809291908181526020018280546112a790611f9c565b80156112f25780601f106112c9576101008083540402835291602001916112f2565b820191905f5260205f20905b8154815290600101906020018083116112d557829003601f168201915b5050505050815260200160038201805461130b90611f9c565b80601f016020809104026020016040519081016040528092919081815260200182805461133790611f9c565b80156113825780601f1061135957610100808354040283529160200191611382565b820191905f5260205f20905b81548152906001019060200180831161136557829003601f168201915b5050505050815260200160048201805461139b90611f9c565b80601f01602080910402602001604051908101604052809291908181526020018280546113c790611f9c565b80156114125780601f106113e957610100808354040283529160200191611412565b820191905f5260205f20905b8154815290600101906020018083116113f557829003601f168201915b5050505050815250509050919050565b604051627eeac760e11b8152336004820152602481018490525f907f00000000000000000000000000000000000000000000000000000000000000006001600160a01b03169062fdd58e90604401602060405180830381865afa15801561148b573d5f5f3e3d5ffd5b505050506040513d601f19601f820116820180604052508101906114af9190611fef565b116114cd5760405163c3b6d79160e01b815260040160405180910390fd5b60058260ff1611156114f257604051630e3a750160e41b815260040160405180910390fd5b5f83815260076020908152604080832033845290915290205460021161152b576040516316fccaf360e11b815260040160405180910390fd5b602881511015801561153f57506064815111155b61155c576040516321d094fb60e21b815260040160405180910390fd5b5f838152600460208181526040808420815160808101835233815280840189815260ff89811694830194855260608301898152845460018082018755958a529690982083519690970290960180546001600160a01b0319166001600160a01b039096169590951785555191840191909155905160028301805460ff19169190941617909255915190919060038201906115f590826120a8565b5050505f838152600760209081526040808320338452909152812080549161161c836121c2565b909155505060405160ff83168152839033907f3cced9413e252a4eebba16b372679a395c5134d9c44a63746f99faa76d2fc6709060200160405180910390a3505050565b60405163e985e9c560e01b81526001600160a01b0382811660048301523060248301525f917f00000000000000000000000000000000000000000000000000000000000000009091169063e985e9c590604401602060405180830381865afa1580156116ce573d5f5f3e3d5ffd5b505050506040513d601f19601f82011682018060405250810190610a1f919061201c565b335f9081526002602052604090205460ff166117215760405163057bc35b60e51b815260040160405180910390fd5b5f84511180156117345750610100845111155b61175157604051638dc6ac0160e01b815260040160405180910390fd5b5f83511180156117645750610100835111155b61178157604051638dc6ac0160e01b815260040160405180910390fd5b5f825111801561179357506040825111155b6117b057604051638dc6ac0160e01b815260040160405180910390fd5b8051156117e85760288151101580156117cb57506064815111155b6117e8576040516321d094fb60e21b815260040160405180910390fd5b335f9081526002602052604090206001810161180486826120a8565b506002810161181385826120a8565b506003810161182284826120a8565b506004810161183183826120a8565b5060405133907f3694fde5fd477e36110820a82928185326c68fb62d1d1bde27575dc891e2bb02905f90a25050505050565b61186b6118a5565b6001600160a01b03811661189957604051631e4fbdf760e01b81525f60048201526024015b60405180910390fd5b6118a281611910565b50565b5f546001600160a01b03163314610ac25760405163118cdaa760e01b8152336004820152602401611890565b6002600154036118f457604051633ee5aeb560e01b815260040160405180910390fd5b6002600155565b5f82611907858461195f565b14949350505050565b5f80546001600160a01b038381166001600160a01b0319831681178455604051919092169283917f8be0079c531659141344cd1fd0a4f28419497f9722a3daafe3b4186f6b6457e09190a35050565b5f81815b84518110156119995761198f828683815181106119825761198261219c565b60200260200101516119a1565b9150600101611963565b509392505050565b5f8183106119bb575f828152602084905260409020610fb0565b505f9182526020526040902090565b5f602082840312156119da575f5ffd5b5035919050565b5f81518084528060208401602086015e5f602082860101526020601f19601f83011685010191505092915050565b602081525f825160806020840152611a2a60a08401826119e1565b90506020840151601f19848303016040850152611a4782826119e1565b915050604084015160608401526060840151151560808401528091505092915050565b6001600160a01b03811681146118a2575f5ffd5b80151581146118a2575f5ffd5b5f5f60408385031215611a9c575f5ffd5b8235611aa781611a6a565b91506020830135611ab781611a7e565b809150509250929050565b5f60208284031215611ad2575f5ffd5b8135610fb081611a6a565b634e487b7160e01b5f52604160045260245ffd5b604051601f8201601f191681016001600160401b0381118282101715611b1957611b19611add565b604052919050565b5f82601f830112611b30575f5ffd5b81356001600160401b03811115611b4957611b49611add565b611b5c601f8201601f1916602001611af1565b818152846020838601011115611b70575f5ffd5b816020850160208301375f918101602001919091529392505050565b5f5f5f60608486031215611b9e575f5ffd5b8335925060208401356001600160401b03811115611bba575f5ffd5b611bc686828701611b21565b92505060408401356001600160401b03811115611be1575f5ffd5b8401601f81018613611bf1575f5ffd5b80356001600160401b03811115611c0a57611c0a611add565b8060051b611c1a60208201611af1565b91825260208184018101929081019089841115611c35575f5ffd5b6020850194505b83851015611c5b57843580835260209586019590935090910190611c3c565b80955050505050509250925092565b5f5f60408385031215611c7b575f5ffd5b8235915060208301356001600160401b03811115611c97575f5ffd5b611ca385828601611b21565b9150509250929050565b5f5f5f5f60808587031215611cc0575f5ffd5b84356001600160401b03811115611cd5575f5ffd5b611ce187828801611b21565b94505060208501356001600160401b03811115611cfc575f5ffd5b611d0887828801611b21565b949794965050505060408301359260600135919050565b5f5f5f60608486031215611d31575f5ffd5b505081359360208301359350604090920135919050565b5f602082016020835280845180835260408501915060408160051b8601019250602086015f5b82811015611dd657868503603f19018452815180516001600160a01b031686526020808201519087015260408082015160ff1690870152606090810151608091870182905290611dc0908701826119e1565b9550506020938401939190910190600101611d6e565b50929695505050505050565b5f5f60408385031215611df3575f5ffd5b823591506020830135611ab781611a6a565b602081528151151560208201525f602083015160a06040840152611e2c60c08401826119e1565b90506040840151601f19848303016060850152611e4982826119e1565b9150506060840151601f19848303016080850152611e6782826119e1565b9150506080840151601f198483030160a0850152611e8582826119e1565b95945050505050565b5f5f5f60608486031215611ea0575f5ffd5b83359250602084013560ff81168114611eb7575f5ffd5b915060408401356001600160401b03811115611ed1575f5ffd5b611edd86828701611b21565b9150509250925092565b5f5f5f5f60808587031215611efa575f5ffd5b84356001600160401b03811115611f0f575f5ffd5b611f1b87828801611b21565b94505060208501356001600160401b03811115611f36575f5ffd5b611f4287828801611b21565b93505060408501356001600160401b03811115611f5d575f5ffd5b611f6987828801611b21565b92505060608501356001600160401b03811115611f84575f5ffd5b611f9087828801611b21565b91505092959194509250565b600181811c90821680611fb057607f821691505b602082108103611fce57634e487b7160e01b5f52602260045260245ffd5b50919050565b5f60208284031215611fe4575f5ffd5b8151610fb081611a6a565b5f60208284031215611fff575f5ffd5b5051919050565b5f82518060208501845e5f920191825250919050565b5f6020828403121561202c575f5ffd5b8151610fb081611a7e565b60018060a01b0384168152826020820152606060408201525f611e8560608301846119e1565b601f8211156109d557805f5260205f20601f840160051c810160208510156120825750805b601f840160051c820191505b818110156120a1575f815560010161208e565b5050505050565b81516001600160401b038111156120c1576120c1611add565b6120d5816120cf8454611f9c565b8461205d565b6020601f821160018114612107575f83156120f05750848201515b5f19600385901b1c1916600184901b1784556120a1565b5f84815260208120601f198516915b828110156121365787850151825560209485019460019092019101612116565b508482101561215357868401515f19600387901b60f8161c191681555b50505050600190811b01905550565b634e487b7160e01b5f52601160045260245ffd5b80820180821115610a1f57610a1f612162565b81810381811115610a1f57610a1f612162565b634e487b7160e01b5f52603260045260245ffd5b602081525f610fb060208301846119e1565b5f600182016121d3576121d3612162565b506001019056fea2646970667358221220f916018838bb90a52cf6568a6179b4aedb94c3d7c8d4c99e63888e53ba64eafd64736f6c634300081c0033",
  "linkReferences": {},
  "deployedLinkReferences": {},
  "immutableReferences": {
    "1492": [
      {
        "length": 32,
        "start": 911
      },
      {
        "length": 32,
        "start": 1818
      },
      {
        "length": 32,
        "start": 1973
      },
      {
        "length": 32,
        "start": 2358
      },
      {
        "length": 32,
        "start": 2830
      },
      {
        "length": 32,
        "start": 3191
      },
      {
        "length": 32,
        "start": 4179
      },
      {
        "length": 32,
        "start": 5183
      },
      {
        "length": 32,
        "start": 5767
      }
    ]
  },
  "inputSourceName": "project/contracts/ProductTraceStorage.sol",
  "buildInfoId": "solc-0_8_28-645bdea80f1e20c6f50878acc4088518a45573fb"
}