{
  "_format": "hh3-artifact-1",
  "contractName": "ProductTokenization",
  "sourceName": "contracts/ProductTokenization.sol",
  "abi": [
    {
      "inputs": [
        {
          "internalType": "string",
          "name": "uriIpfs",
          "type": "string"
        }
      ],
      "stateMutability": "nonpayable",
      "type": "constructor"
    },
    {
      "inputs": [
        {
          "internalType": "address",
          "name": "sender",
          "type": "address"
        },
        {
          "internalType": "uint256",
          "name": "balance",
          "type": "uint256"
        },
        {
          "internalType": "uint256",
          "name": "needed",
          "type": "uint256"
        },
        {
          "internalType": "uint256",
          "name": "tokenId",
          "type": "uint256"
        }
      ],
      "name": "ERC1155InsufficientBalance",
      "type": "error"
    },
    {
      "inputs": [
        {
          "internalType": "address",
          "name": "approver",
          "type": "address"
        }
      ],
      "name": "ERC1155InvalidApprover",
      "type": "error"
    },
    {
      "inputs": [
        {
          "internalType": "uint256",
          "name": "idsLength",
          "type": "uint256"
        },
        {
          "internalType": "uint256",
          "name": "valuesLength",
          "type": "uint256"
        }
      ],
      "name": "ERC1155InvalidArrayLength",
      "type": "error"
    },
    {
      "inputs": [
        {
          "internalType": "address",
          "name": "operator",
          "type": "address"
        }
      ],
      "name": "ERC1155InvalidOperator",
      "type": "error"
    },
    {
      "inputs": [
        {
          "internalType": "address",
          "name": "receiver",
          "type": "address"
        }
      ],
      "name": "ERC1155InvalidReceiver",
      "type": "error"
    },
    {
      "inputs": [
        {
          "internalType": "address",
          "name": "sender",
          "type": "address"
        }
      ],
      "name": "ERC1155InvalidSender",
      "type": "error"
    },
    {
      "inputs": [
        {
          "internalType": "address",
          "name": "operator",
          "type": "address"
        },
        {
          "internalType": "address",
          "name": "owner",
          "type": "address"
        }
      ],
      "name": "ERC1155MissingApprovalForAll",
      "type": "error"
    },
    {
      "inputs": [],
      "name": "InvalidAmount",
      "type": "error"
    },
    {
      "inputs": [],
      "name": "InvalidIPFSCID",
      "type": "error"
    },
    {
      "inputs": [],
      "name": "InvalidProducerAddress",
      "type": "error"
    },
    {
      "inputs": [],
      "name": "InvalidStringLength",
      "type": "error"
    },
    {
      "inputs": [
        {
          "internalType": "address",
          "name": "owner",
          "type": "address"
        }
      ],
      "name": "OwnableInvalidOwner",
      "type": "error"
    },
    {
      "inputs": [
        {
          "internalType": "address",
          "name": "account",
          "type": "address"
        }
      ],
      "name": "OwnableUnauthorizedAccount",
      "type": "error"
    },
    {
      "anonymous": false,
      "inputs": [
        {
          "indexed": true,
          "internalType": "address",
          "name": "account",
          "type": "address"
        },
        {
          "indexed": true,
          "internalType": "address",
          "name": "operator",
          "type": "address"
        },
        {
          "indexed": false,
          "internalType": "bool",
          "name": "approved",
          "type": "bool"
        }
      ],
      "name": "ApprovalForAll",
      "type": "event"
    },
    {
      "anonymous": false,
      "inputs": [
        {
          "indexed": true,
          "internalType": "address",
          "name": "previousOwner",
          "type": "address"
        },
        {
          "indexed": true,
          "internalType": "address",
          "name": "newOwner",
          "type": "address"
        }
      ],
      "name": "OwnershipTransferred",
      "type": "event"
    },
    {
      "anonymous": false,
      "inputs": [
        {
          "indexed": true,
          "internalType": "address",
          "name": "producer",
          "type": "address"
        },
        {
          "indexed": true,
          "internalType": "uint256",
          "name": "tokenId",
          "type": "uint256"
        },
        {
          "indexed": false,
          "internalType": "uint256",
          "name": "amount",
          "type": "uint256"
        }
      ],
      "name": "ProductBatchMinted",
      "type": "event"
    },
    {
      "anonymous": false,
      "inputs": [
        {
          "indexed": true,
          "internalType": "address",
          "name": "operator",
          "type": "address"
        },
        {
          "indexed": true,
          "internalType": "address",
          "name": "from",
          "type": "address"
        },
        {
          "indexed": true,
          "internalType": "address",
          "name": "to",
          "type": "address"
        },
        {
          "indexed": false,
          "internalType": "uint256[]",
          "name": "ids",
          "type": "uint256[]"
        },
        {
          "indexed": false,
          "internalType": "uint256[]",
          "name": "values",
          "type": "uint256[]"
        }
      ],
      "name": "TransferBatch",
      "type": "event"
    },
    {
      "anonymous": false,
      "inputs": [
        {
          "indexed": true,
          "internalType": "address",
          "name": "operator",
          "type": "address"
        },
        {
          "indexed": true,
          "internalType": "address",
          "name": "from",
          "type": "address"
        },
        {
          "indexed": true,
          "internalType": "address",
          "name": "to",
          "type": "address"
        },
        {
          "indexed": false,
          "internalType": "uint256",
          "name": "id",
          "type": "uint256"
        },
        {
          "indexed": false,
          "internalType": "uint256",
          "name": "value",
          "type": "uint256"
        }
      ],
      "name": "TransferSingle",
      "type": "event"
    },
    {
      "anonymous": false,
      "inputs": [
        {
          "indexed": false,
          "internalType": "string",
          "name": "value",
          "type": "string"
        },
        {
          "indexed": true,
          "internalType": "uint256",
          "name": "id",
          "type": "uint256"
        }
      ],
      "name": "URI",
      "type": "event"
    },
    {
      "inputs": [
        {
          "internalType": "address",
          "name": "account",
          "type": "address"
        },
        {
          "internalType": "uint256",
          "name": "id",
          "type": "uint256"
        }
      ],
      "name": "balanceOf",
      "outputs": [
        {
          "internalType": "uint256",
          "name": "",
          "type": "uint256"
        }
      ],
      "stateMutability": "view",
      "type": "function"
    },
    {
      "inputs": [
        {
          "internalType": "address[]",
          "name": "accounts",
          "type": "address[]"
        },
        {
          "internalType": "uint256[]",
          "name": "ids",
          "type": "uint256[]"
        }
      ],
      "name": "balanceOfBatch",
      "outputs": [
        {
          "internalType": "uint256[]",
          "name": "",
          "type": "uint256[]"
        }
      ],
      "stateMutability": "view",
      "type": "function"
    },
    {
      "inputs": [
        {
          "internalType": "address",
          "name": "account",
          "type": "address"
        },
        {
          "internalType": "address",
          "name": "operator",
          "type": "address"
        }
      ],
      "name": "isApprovedForAll",
      "outputs": [
        {
          "internalType": "bool",
          "name": "",
          "type": "bool"
        }
      ],
      "stateMutability": "view",
      "type": "function"
    },
    {
      "inputs": [
        {
          "internalType": "address",
          "name": "_producer",
          "type": "address"
        },
        {
          "internalType": "uint256",
          "name": "_amount",
          "type": "uint256"
        },
        {
          "internalType": "string",
          "name": "_uri",
          "type": "string"
        }
      ],
      "name": "mintProductBatch",
      "outputs": [
        {
          "internalType": "uint256",
          "name": "",
          "type": "uint256"
        }
      ],
      "stateMutability": "nonpayable",
      "type": "function"
    },
    {
      "inputs": [],
      "name": "owner",
      "outputs": [
        {
          "internalType": "address",
          "name": "",
          "type": "address"
        }
      ],
      "stateMutability": "view",
      "type": "function"
    },
    {
      "inputs": [],
      "name": "renounceOwnership",
      "outputs": [],
      "stateMutability": "nonpayable",
      "type": "function"
    },
    {
      "inputs": [
        {
          "internalType": "address",
          "name": "from",
          "type": "address"
        },
        {
          "internalType": "address",
          "name": "to",
          "type": "address"
        },
        {
          "internalType": "uint256[]",
          "name": "ids",
          "type": "uint256[]"
        },
        {
          "internalType": "uint256[]",
          "name": "values",
          "type": "uint256[]"
        },
        {
          "internalType": "bytes",
          "name": "data",
          "type": "bytes"
        }
      ],
      "name": "safeBatchTransferFrom",
      "outputs": [],
      "stateMutability": "nonpayable",
      "type": "function"
    },
    {
      "inputs": [
        {
          "internalType": "address",
          "name": "from",
          "type": "address"
        },
        {
          "internalType": "address",
          "name": "to",
          "type": "address"
        },
        {
          "internalType": "uint256",
          "name": "id",
          "type": "uint256"
        },
        {
          "internalType": "uint256",
          "name": "value",
          "type": "uint256"
        },
        {
          "internalType": "bytes",
          "name": "data",
          "type": "bytes"
        }
      ],
      "name": "safeTransferFrom",
      "outputs": [],
      "stateMutability": "nonpayable",
      "type": "function"
    },
    {
      "inputs": [
        {
          "internalType": "address",
          "name": "operator",
          "type": "address"
        },
        {
          "internalType": "bool",
          "name": "approved",
          "type": "bool"
        }
      ],
      "name": "setApprovalForAll",
      "outputs": [],
      "stateMutability": "nonpayable",
      "type": "function"
    },
    {
      "inputs": [
        {
          "internalType": "bytes4",
          "name": "interfaceId",
          "type": "bytes4"
        }
      ],
      "name": "supportsInterface",
      "outputs": [
        {
          "internalType": "bool",
          "name": "",
          "type": "bool"
        }
      ],
      "stateMutability": "view",
      "type": "function"
    },
    {
      "inputs": [
        {
          "internalType": "uint256",
          "name": "",
          "type": "uint256"
        }
      ],
      "name": "tokenProducer",
      "outputs": [
        {
          "internalType": "address",
          "name": "",
          "type": "address"
        }
      ],
      "stateMutability": "view",
      "type": "function"
    },
    {
      "inputs": [
        {
          "internalType": "address",
          "name": "newOwner",
          "type": "address"
        }
      ],
      "name": "transferOwnership",
      "outputs": [],
      "stateMutability": "nonpayable",
      "type": "function"
    },
    {
      "inputs": [
        {
          "internalType": "uint256",
          "name": "tokenId",
          "type": "uint256"
        }
      ],
      "name": "uri",
      "outputs": [
        {
          "internalType": "string",
          "name": "",
          "type": "string"
        }
      ],
      "stateMutability": "view",
      "type": "function"
    }
  ],
  "bytecode": "0x608060405234801561000f575f5ffd5b5060405161180038038061180083398101604081905261002e916100ec565b338161003981610077565b506001600160a01b03811661006757604051631e4fbdf760e01b81525f600482015260240160405180910390fd5b61007081610087565b50506102da565b60026100838282610220565b5050565b600380546001600160a01b038381166001600160a01b0319831681179093556040519116919082907f8be0079c531659141344cd1fd0a4f28419497f9722a3daafe3b4186f6b6457e0905f90a35050565b634e487b7160e01b5f52604160045260245ffd5b5f602082840312156100fc575f5ffd5b81516001600160401b03811115610111575f5ffd5b8201601f81018413610121575f5ffd5b80516001600160401b0381111561013a5761013a6100d8565b604051601f8201601f19908116603f011681016001600160401b0381118282101715610168576101686100d8565b60405281815282820160200186101561017f575f5ffd5b8160208401602083015e5f91810160200191909152949350505050565b600181811c908216806101b057607f821691505b6020821081036101ce57634e487b7160e01b5f52602260045260245ffd5b50919050565b601f82111561021b57805f5260205f20601f840160051c810160208510156101f95750805b601f840160051c820191505b81811015610218575f8155600101610205565b50505b505050565b81516001600160401b03811115610239576102396100d8565b61024d81610247845461019c565b846101d4565b6020601f82116001811461027f575f83156102685750848201515b5f19600385901b1c1916600184901b178455610218565b5f84815260208120601f198516915b828110156102ae578785015182556020948501946001909201910161028e565b50848210156102cb57868401515f19600387901b60f8161c191681555b50505050600190811b01905550565b611519806102e75f395ff3fe608060405234801561000f575f5ffd5b50600436106100ca575f3560e01c8063715018a611610088578063a22cb46511610063578063a22cb465146101d4578063e985e9c5146101e7578063f242432a146101fa578063f2fde38b1461020d575f5ffd5b8063715018a61461017f5780638da5cb5b146101875780639de45eee146101ac575f5ffd5b8062fdd58e146100ce57806301ffc9a7146100f45780630e89341c146101175780632eb2c2d61461013757806331ae0af81461014c5780634e1273f41461015f575b5f5ffd5b6100e16100dc366004610d71565b610220565b6040519081526020015b60405180910390f35b610107610102366004610dae565b610247565b60405190151581526020016100eb565b61012a610125366004610dd0565b610296565b6040516100eb9190610e15565b61014a610145366004610f70565b610335565b005b6100e161015a36600461101f565b6103a1565b61017261016d366004611085565b6104d8565b6040516100eb9190611182565b61014a6105a3565b6003546001600160a01b03165b6040516001600160a01b0390911681526020016100eb565b6101946101ba366004610dd0565b60066020525f90815260409020546001600160a01b031681565b61014a6101e2366004611194565b6105b6565b6101076101f53660046111cd565b6105c5565b61014a6102083660046111fe565b6105f2565b61014a61021b366004611252565b610651565b5f818152602081815260408083206001600160a01b03861684529091529020545b92915050565b5f6001600160e01b03198216636cdb3d1360e11b148061027757506001600160e01b031982166303a24d0760e21b145b8061024157506301ffc9a760e01b6001600160e01b0319831614610241565b5f8181526005602052604090208054606091906102b29061126b565b80601f01602080910402602001604051908101604052809291908181526020018280546102de9061126b565b80156103295780601f1061030057610100808354040283529160200191610329565b820191905f5260205f20905b81548152906001019060200180831161030c57829003601f168201915b50505050509050919050565b336001600160a01b0386168114801590610356575061035486826105c5565b155b1561038c5760405163711bec9160e11b81526001600160a01b038083166004830152871660248201526044015b60405180910390fd5b610399868686868661068e565b505050505050565b5f6103aa6106f3565b6001600160a01b0384166103d1576040516314afceb360e11b815260040160405180910390fd5b825f036103f15760405163162908e360e11b815260040160405180910390fd5b602882511080610402575060648251115b15610420576040516321d094fb60e21b815260040160405180910390fd5b60048054905f61042f836112b7565b90915550506004545f81815260066020908152604080832080546001600160a01b0319166001600160a01b038a16179055600590915290206104718482611318565b5061048c85828660405180602001604052805f815250610720565b80856001600160a01b03167fb24688b8a418f9e698c4cb59c2a8fea89d26c1dfda57d32ba427d5404395e69b866040516104c891815260200190565b60405180910390a3949350505050565b606081518351146105095781518351604051635b05999160e01b815260048101929092526024820152604401610383565b5f835167ffffffffffffffff81111561052457610524610e27565b60405190808252806020026020018201604052801561054d578160200160208202803683370190505b5090505f5b845181101561059b5760208082028601015161057690602080840287010151610220565b828281518110610588576105886113d3565b6020908102919091010152600101610552565b509392505050565b6105ab6106f3565b6105b45f61077b565b565b6105c13383836107cc565b5050565b6001600160a01b039182165f90815260016020908152604080832093909416825291909152205460ff1690565b336001600160a01b0386168114801590610613575061061186826105c5565b155b156106445760405163711bec9160e11b81526001600160a01b03808316600483015287166024820152604401610383565b6103998686868686610860565b6106596106f3565b6001600160a01b03811661068257604051631e4fbdf760e01b81525f6004820152602401610383565b61068b8161077b565b50565b6001600160a01b0384166106b757604051632bfa23e760e11b81525f6004820152602401610383565b6001600160a01b0385166106df57604051626a0d4560e21b81525f6004820152602401610383565b6106ec85858585856108ec565b5050505050565b6003546001600160a01b031633146105b45760405163118cdaa760e01b8152336004820152602401610383565b6001600160a01b03841661074957604051632bfa23e760e11b81525f6004820152602401610383565b604080516001808252602082018690528183019081526060820185905260808201909252906103995f878484876108ec565b600380546001600160a01b038381166001600160a01b0319831681179093556040519116919082907f8be0079c531659141344cd1fd0a4f28419497f9722a3daafe3b4186f6b6457e0905f90a35050565b6001600160a01b0382166107f45760405162ced3e160e81b81525f6004820152602401610383565b6001600160a01b038381165f81815260016020908152604080832094871680845294825291829020805460ff191686151590811790915591519182527f17307eab39ab6107e8899845ad3d59bd9653f200f220920489ca2b5937696c31910160405180910390a3505050565b6001600160a01b03841661088957604051632bfa23e760e11b81525f6004820152602401610383565b6001600160a01b0385166108b157604051626a0d4560e21b81525f6004820152602401610383565b604080516001808252602082018690528183019081526060820185905260808201909252906108e387878484876108ec565b50505050505050565b6108f88585858561093f565b6001600160a01b038416156106ec5782513390600103610931576020848101519084015161092a838989858589610b4e565b5050610399565b610399818787878787610c6f565b805182511461096e5781518151604051635b05999160e01b815260048101929092526024820152604401610383565b335f5b8351811015610a70576020818102858101820151908501909101516001600160a01b03881615610a22575f828152602081815260408083206001600160a01b038c168452909152902054818110156109fc576040516303dee4c560e01b81526001600160a01b038a166004820152602481018290526044810183905260648101849052608401610383565b5f838152602081815260408083206001600160a01b038d16845290915290209082900390555b6001600160a01b03871615610a66575f828152602081815260408083206001600160a01b038b16845290915281208054839290610a609084906113e7565b90915550505b5050600101610971565b508251600103610af05760208301515f906020840151909150856001600160a01b0316876001600160a01b0316846001600160a01b03167fc3d58168c5ae7397731d063d5bbf3d657854427343f4c083240f7aacaa2d0f628585604051610ae1929190918252602082015260400190565b60405180910390a450506106ec565b836001600160a01b0316856001600160a01b0316826001600160a01b03167f4a39dc06d4c0dbc64b70af90fd698a233a518aa5d07e595d983b8c0526c8f7fb8686604051610b3f9291906113fa565b60405180910390a45050505050565b6001600160a01b0384163b156103995760405163f23a6e6160e01b81526001600160a01b0385169063f23a6e6190610b929089908990889088908890600401611427565b6020604051808303815f875af1925050508015610bcc575060408051601f3d908101601f19168201909252610bc99181019061146b565b60015b610c33573d808015610bf9576040519150601f19603f3d011682016040523d82523d5f602084013e610bfe565b606091505b5080515f03610c2b57604051632bfa23e760e11b81526001600160a01b0386166004820152602401610383565b805160208201fd5b6001600160e01b0319811663f23a6e6160e01b146108e357604051632bfa23e760e11b81526001600160a01b0386166004820152602401610383565b6001600160a01b0384163b156103995760405163bc197c8160e01b81526001600160a01b0385169063bc197c8190610cb39089908990889088908890600401611486565b6020604051808303815f875af1925050508015610ced575060408051601f3d908101601f19168201909252610cea9181019061146b565b60015b610d1a573d808015610bf9576040519150601f19603f3d011682016040523d82523d5f602084013e610bfe565b6001600160e01b0319811663bc197c8160e01b146108e357604051632bfa23e760e11b81526001600160a01b0386166004820152602401610383565b80356001600160a01b0381168114610d6c575f5ffd5b919050565b5f5f60408385031215610d82575f5ffd5b610d8b83610d56565b946020939093013593505050565b6001600160e01b03198116811461068b575f5ffd5b5f60208284031215610dbe575f5ffd5b8135610dc981610d99565b9392505050565b5f60208284031215610de0575f5ffd5b5035919050565b5f81518084528060208401602086015e5f602082860101526020601f19601f83011685010191505092915050565b602081525f610dc96020830184610de7565b634e487b7160e01b5f52604160045260245ffd5b604051601f8201601f1916810167ffffffffffffffff81118282101715610e6457610e64610e27565b604052919050565b5f67ffffffffffffffff821115610e8557610e85610e27565b5060051b60200190565b5f82601f830112610e9e575f5ffd5b8135610eb1610eac82610e6c565b610e3b565b8082825260208201915060208360051b860101925085831115610ed2575f5ffd5b602085015b83811015610eef578035835260209283019201610ed7565b5095945050505050565b5f5f67ffffffffffffffff841115610f1357610f13610e27565b50601f8301601f1916602001610f2881610e3b565b915050828152838383011115610f3c575f5ffd5b828260208301375f602084830101529392505050565b5f82601f830112610f61575f5ffd5b610dc983833560208501610ef9565b5f5f5f5f5f60a08688031215610f84575f5ffd5b610f8d86610d56565b9450610f9b60208701610d56565b9350604086013567ffffffffffffffff811115610fb6575f5ffd5b610fc288828901610e8f565b935050606086013567ffffffffffffffff811115610fde575f5ffd5b610fea88828901610e8f565b925050608086013567ffffffffffffffff811115611006575f5ffd5b61101288828901610f52565b9150509295509295909350565b5f5f5f60608486031215611031575f5ffd5b61103a84610d56565b925060208401359150604084013567ffffffffffffffff81111561105c575f5ffd5b8401601f8101861361106c575f5ffd5b61107b86823560208401610ef9565b9150509250925092565b5f5f60408385031215611096575f5ffd5b823567ffffffffffffffff8111156110ac575f5ffd5b8301601f810185136110bc575f5ffd5b80356110ca610eac82610e6c565b8082825260208201915060208360051b8501019250878311156110eb575f5ffd5b6020840193505b828410156111145761110384610d56565b8252602093840193909101906110f2565b9450505050602083013567ffffffffffffffff811115611132575f5ffd5b61113e85828601610e8f565b9150509250929050565b5f8151808452602084019350602083015f5b8281101561117857815186526020958601959091019060010161115a565b5093949350505050565b602081525f610dc96020830184611148565b5f5f604083850312156111a5575f5ffd5b6111ae83610d56565b9150602083013580151581146111c2575f5ffd5b809150509250929050565b5f5f604083850312156111de575f5ffd5b6111e783610d56565b91506111f560208401610d56565b90509250929050565b5f5f5f5f5f60a08688031215611212575f5ffd5b61121b86610d56565b945061122960208701610d56565b93506040860135925060608601359150608086013567ffffffffffffffff811115611006575f5ffd5b5f60208284031215611262575f5ffd5b610dc982610d56565b600181811c9082168061127f57607f821691505b60208210810361129d57634e487b7160e01b5f52602260045260245ffd5b50919050565b634e487b7160e01b5f52601160045260245ffd5b5f600182016112c8576112c86112a3565b5060010190565b601f82111561131357805f5260205f20601f840160051c810160208510156112f45750805b601f840160051c820191505b818110156106ec575f8155600101611300565b505050565b815167ffffffffffffffff81111561133257611332610e27565b61134681611340845461126b565b846112cf565b6020601f821160018114611378575f83156113615750848201515b5f19600385901b1c1916600184901b1784556106ec565b5f84815260208120601f198516915b828110156113a75787850151825560209485019460019092019101611387565b50848210156113c457868401515f19600387901b60f8161c191681555b50505050600190811b01905550565b634e487b7160e01b5f52603260045260245ffd5b80820180821115610241576102416112a3565b604081525f61140c6040830185611148565b828103602084015261141e8185611148565b95945050505050565b6001600160a01b03868116825285166020820152604081018490526060810183905260a0608082018190525f9061146090830184610de7565b979650505050505050565b5f6020828403121561147b575f5ffd5b8151610dc981610d99565b6001600160a01b0386811682528516602082015260a0604082018190525f906114b190830186611148565b82810360608401526114c38186611148565b905082810360808401526114d78185610de7565b9897505050505050505056fea26469706673582212202b7e2a306726a764c398f083f88d0594e4f7ce9fbdd33f50f0a6306cd03e720864736f6c634300081c0033",
  "linkReferences": {},
  "deployedLinkReferences": {},
  "immutableReferences": {},
  "inputSourceName": "project/contracts/ProductTokenization.sol",
  "buildInfoId": "solc-0_8_28-64b572a47b0854846ed3290e05132c5970521ade"
}